{
  "_format": "hh-sol-artifact-1",
  "contractName": "LPTokenWrapper",
  "sourceName": "contracts/pools/LPTokenWrapper.sol",
  "abi": [
    {
      "inputs": [
        {
          "internalType": "address",
          "name": "account",
          "type": "address"
        }
      ],
      "name": "balanceOf",
      "outputs": [
        {
          "internalType": "uint256",
          "name": "",
          "type": "uint256"
        }
      ],
      "stateMutability": "view",
      "type": "function"
    },
    {
      "inputs": [],
      "name": "lpt",
      "outputs": [
        {
          "internalType": "contract IERC20",
          "name": "",
          "type": "address"
        }
      ],
      "stateMutability": "view",
      "type": "function"
    },
    {
      "inputs": [
        {
          "internalType": "uint256",
          "name": "amount",
          "type": "uint256"
        }
      ],
      "name": "stake",
      "outputs": [],
      "stateMutability": "nonpayable",
      "type": "function"
    },
    {
      "inputs": [],
      "name": "totalSupply",
      "outputs": [
        {
          "internalType": "uint256",
          "name": "",
          "type": "uint256"
        }
      ],
      "stateMutability": "view",
      "type": "function"
    },
    {
      "inputs": [
        {
          "internalType": "uint256",
          "name": "amount",
          "type": "uint256"
        }
      ],
      "name": "withdraw",
      "outputs": [],
      "stateMutability": "nonpayable",
      "type": "function"
    }
  ],
  "bytecode": "0x608060405234801561001057600080fd5b506107de806100206000396000f3fe608060405234801561001057600080fd5b50600436106100675760003560e01c806370a082311161005057806370a0823114610098578063a694fc3a146100ce578063ce5fc8d0146100e157600080fd5b806318160ddd1461006c5780632e1a7d4d14610083575b600080fd5b6001545b6040519081526020015b60405180910390f35b610096610091366004610699565b610126565b005b6100706100a6366004610645565b73ffffffffffffffffffffffffffffffffffffffff1660009081526002602052604090205490565b6100966100dc366004610699565b61018b565b6000546101019073ffffffffffffffffffffffffffffffffffffffff1681565b60405173ffffffffffffffffffffffffffffffffffffffff909116815260200161007a565b60015461013390826101ee565b6001553360009081526002602052604090205461015090826101ee565b3360008181526002602052604081209290925590546101889173ffffffffffffffffffffffffffffffffffffffff9091169083610201565b50565b60015461019890826102da565b600155336000908152600260205260409020546101b590826102da565b3360008181526002602052604081209290925590546101889173ffffffffffffffffffffffffffffffffffffffff9091169030846102e6565b60006101fa8284610736565b9392505050565b60405173ffffffffffffffffffffffffffffffffffffffff83166024820152604481018290526102d59084907fa9059cbb00000000000000000000000000000000000000000000000000000000906064015b604080517fffffffffffffffffffffffffffffffffffffffffffffffffffffffffffffffe08184030181529190526020810180517bffffffffffffffffffffffffffffffffffffffffffffffffffffffff167fffffffff000000000000000000000000000000000000000000000000000000009093169290921790915261034a565b505050565b60006101fa828461071e565b60405173ffffffffffffffffffffffffffffffffffffffff808516602483015283166044820152606481018290526103449085907f23b872dd0000000000000000000000000000000000000000000000000000000090608401610253565b50505050565b60006103ac826040518060400160405280602081526020017f5361666545524332303a206c6f772d6c6576656c2063616c6c206661696c65648152508573ffffffffffffffffffffffffffffffffffffffff1661045b9092919063ffffffff16565b8051909150156102d557808060200190518101906103ca9190610679565b6102d5576040517f08c379a000000000000000000000000000000000000000000000000000000000815260206004820152602a60248201527f5361666545524332303a204552433230206f7065726174696f6e20646964206e60448201527f6f7420737563636565640000000000000000000000000000000000000000000060648201526084015b60405180910390fd5b606061046a8484600085610472565b949350505050565b606082471015610504576040517f08c379a000000000000000000000000000000000000000000000000000000000815260206004820152602660248201527f416464726573733a20696e73756666696369656e742062616c616e636520666f60448201527f722063616c6c00000000000000000000000000000000000000000000000000006064820152608401610452565b843b61056c576040517f08c379a000000000000000000000000000000000000000000000000000000000815260206004820152601d60248201527f416464726573733a2063616c6c20746f206e6f6e2d636f6e74726163740000006044820152606401610452565b6000808673ffffffffffffffffffffffffffffffffffffffff16858760405161059591906106b1565b60006040518083038185875af1925050503d80600081146105d2576040519150601f19603f3d011682016040523d82523d6000602084013e6105d7565b606091505b50915091506105e78282866105f2565b979650505050505050565b606083156106015750816101fa565b8251156106115782518084602001fd5b816040517f08c379a000000000000000000000000000000000000000000000000000000000815260040161045291906106cd565b600060208284031215610656578081fd5b813573ffffffffffffffffffffffffffffffffffffffff811681146101fa578182fd5b60006020828403121561068a578081fd5b815180151581146101fa578182fd5b6000602082840312156106aa578081fd5b5035919050565b600082516106c381846020870161074d565b9190910192915050565b60208152600082518060208401526106ec81604085016020870161074d565b601f017fffffffffffffffffffffffffffffffffffffffffffffffffffffffffffffffe0169190910160400192915050565b6000821982111561073157610731610779565b500190565b60008282101561074857610748610779565b500390565b60005b83811015610768578181015183820152602001610750565b838111156103445750506000910152565b7f4e487b7100000000000000000000000000000000000000000000000000000000600052601160045260246000fdfea264697066735822122058f4680962e1765148985d07932cde97c7cf57800de55996fef53366d1ba0ff164736f6c63430008040033",
  "linkReferences": {},
  "deployedLinkReferences": {}
}