{
  "_format": "hh-sol-artifact-1",
  "contractName": "UniswapV2Router02",
  "sourceName": "contracts/uniswapv2/UniswapV2Router02.sol",
  "abi": [
    {
      "inputs": [
        {
          "internalType": "address",
          "name": "_factory",
          "type": "address"
        },
        {
          "internalType": "address",
          "name": "_WETH",
          "type": "address"
        }
      ],
      "stateMutability": "nonpayable",
      "type": "constructor"
    },
    {
      "inputs": [],
      "name": "WETH",
      "outputs": [
        {
          "internalType": "address",
          "name": "",
          "type": "address"
        }
      ],
      "stateMutability": "view",
      "type": "function"
    },
    {
      "inputs": [
        {
          "internalType": "address",
          "name": "tokenA",
          "type": "address"
        },
        {
          "internalType": "address",
          "name": "tokenB",
          "type": "address"
        },
        {
          "internalType": "uint256",
          "name": "amountADesired",
          "type": "uint256"
        },
        {
          "internalType": "uint256",
          "name": "amountBDesired",
          "type": "uint256"
        },
        {
          "internalType": "uint256",
          "name": "amountAMin",
          "type": "uint256"
        },
        {
          "internalType": "uint256",
          "name": "amountBMin",
          "type": "uint256"
        },
        {
          "internalType": "address",
          "name": "to",
          "type": "address"
        },
        {
          "internalType": "uint256",
          "name": "deadline",
          "type": "uint256"
        }
      ],
      "name": "addLiquidity",
      "outputs": [
        {
          "internalType": "uint256",
          "name": "amountA",
          "type": "uint256"
        },
        {
          "internalType": "uint256",
          "name": "amountB",
          "type": "uint256"
        },
        {
          "internalType": "uint256",
          "name": "liquidity",
          "type": "uint256"
        }
      ],
      "stateMutability": "nonpayable",
      "type": "function"
    },
    {
      "inputs": [
        {
          "internalType": "address",
          "name": "token",
          "type": "address"
        },
        {
          "internalType": "uint256",
          "name": "amountTokenDesired",
          "type": "uint256"
        },
        {
          "internalType": "uint256",
          "name": "amountTokenMin",
          "type": "uint256"
        },
        {
          "internalType": "uint256",
          "name": "amountETHMin",
          "type": "uint256"
        },
        {
          "internalType": "address",
          "name": "to",
          "type": "address"
        },
        {
          "internalType": "uint256",
          "name": "deadline",
          "type": "uint256"
        }
      ],
      "name": "addLiquidityETH",
      "outputs": [
        {
          "internalType": "uint256",
          "name": "amountToken",
          "type": "uint256"
        },
        {
          "internalType": "uint256",
          "name": "amountETH",
          "type": "uint256"
        },
        {
          "internalType": "uint256",
          "name": "liquidity",
          "type": "uint256"
        }
      ],
      "stateMutability": "payable",
      "type": "function"
    },
    {
      "inputs": [],
      "name": "factory",
      "outputs": [
        {
          "internalType": "address",
          "name": "",
          "type": "address"
        }
      ],
      "stateMutability": "view",
      "type": "function"
    },
    {
      "inputs": [
        {
          "internalType": "uint256",
          "name": "amountOut",
          "type": "uint256"
        },
        {
          "internalType": "uint256",
          "name": "reserveIn",
          "type": "uint256"
        },
        {
          "internalType": "uint256",
          "name": "reserveOut",
          "type": "uint256"
        }
      ],
      "name": "getAmountIn",
      "outputs": [
        {
          "internalType": "uint256",
          "name": "amountIn",
          "type": "uint256"
        }
      ],
      "stateMutability": "pure",
      "type": "function"
    },
    {
      "inputs": [
        {
          "internalType": "uint256",
          "name": "amountIn",
          "type": "uint256"
        },
        {
          "internalType": "uint256",
          "name": "reserveIn",
          "type": "uint256"
        },
        {
          "internalType": "uint256",
          "name": "reserveOut",
          "type": "uint256"
        }
      ],
      "name": "getAmountOut",
      "outputs": [
        {
          "internalType": "uint256",
          "name": "amountOut",
          "type": "uint256"
        }
      ],
      "stateMutability": "pure",
      "type": "function"
    },
    {
      "inputs": [
        {
          "internalType": "uint256",
          "name": "amountOut",
          "type": "uint256"
        },
        {
          "internalType": "address[]",
          "name": "path",
          "type": "address[]"
        }
      ],
      "name": "getAmountsIn",
      "outputs": [
        {
          "internalType": "uint256[]",
          "name": "amounts",
          "type": "uint256[]"
        }
      ],
      "stateMutability": "view",
      "type": "function"
    },
    {
      "inputs": [
        {
          "internalType": "uint256",
          "name": "amountIn",
          "type": "uint256"
        },
        {
          "internalType": "address[]",
          "name": "path",
          "type": "address[]"
        }
      ],
      "name": "getAmountsOut",
      "outputs": [
        {
          "internalType": "uint256[]",
          "name": "amounts",
          "type": "uint256[]"
        }
      ],
      "stateMutability": "view",
      "type": "function"
    },
    {
      "inputs": [
        {
          "internalType": "address",
          "name": "tokenA",
          "type": "address"
        },
        {
          "internalType": "address",
          "name": "tokenB",
          "type": "address"
        },
        {
          "internalType": "uint256",
          "name": "amountA",
          "type": "uint256"
        },
        {
          "internalType": "uint256",
          "name": "amountB",
          "type": "uint256"
        }
      ],
      "name": "liquidate",
      "outputs": [],
      "stateMutability": "nonpayable",
      "type": "function"
    },
    {
      "inputs": [
        {
          "internalType": "address",
          "name": "_vault",
          "type": "address"
        }
      ],
      "name": "migrate",
      "outputs": [],
      "stateMutability": "nonpayable",
      "type": "function"
    },
    {
      "inputs": [],
      "name": "operator",
      "outputs": [
        {
          "internalType": "address",
          "name": "",
          "type": "address"
        }
      ],
      "stateMutability": "view",
      "type": "function"
    },
    {
      "inputs": [
        {
          "internalType": "uint256",
          "name": "amountA",
          "type": "uint256"
        },
        {
          "internalType": "uint256",
          "name": "reserveA",
          "type": "uint256"
        },
        {
          "internalType": "uint256",
          "name": "reserveB",
          "type": "uint256"
        }
      ],
      "name": "quote",
      "outputs": [
        {
          "internalType": "uint256",
          "name": "amountB",
          "type": "uint256"
        }
      ],
      "stateMutability": "pure",
      "type": "function"
    },
    {
      "inputs": [
        {
          "internalType": "address",
          "name": "tokenA",
          "type": "address"
        },
        {
          "internalType": "address",
          "name": "tokenB",
          "type": "address"
        },
        {
          "internalType": "uint256",
          "name": "liquidity",
          "type": "uint256"
        },
        {
          "internalType": "uint256",
          "name": "amountAMin",
          "type": "uint256"
        },
        {
          "internalType": "uint256",
          "name": "amountBMin",
          "type": "uint256"
        },
        {
          "internalType": "address",
          "name": "to",
          "type": "address"
        },
        {
          "internalType": "uint256",
          "name": "deadline",
          "type": "uint256"
        }
      ],
      "name": "removeLiquidity",
      "outputs": [
        {
          "internalType": "uint256",
          "name": "amountA",
          "type": "uint256"
        },
        {
          "internalType": "uint256",
          "name": "amountB",
          "type": "uint256"
        }
      ],
      "stateMutability": "nonpayable",
      "type": "function"
    },
    {
      "inputs": [
        {
          "internalType": "address",
          "name": "token",
          "type": "address"
        },
        {
          "internalType": "uint256",
          "name": "liquidity",
          "type": "uint256"
        },
        {
          "internalType": "uint256",
          "name": "amountTokenMin",
          "type": "uint256"
        },
        {
          "internalType": "uint256",
          "name": "amountETHMin",
          "type": "uint256"
        },
        {
          "internalType": "address",
          "name": "to",
          "type": "address"
        },
        {
          "internalType": "uint256",
          "name": "deadline",
          "type": "uint256"
        }
      ],
      "name": "removeLiquidityETH",
      "outputs": [
        {
          "internalType": "uint256",
          "name": "amountToken",
          "type": "uint256"
        },
        {
          "internalType": "uint256",
          "name": "amountETH",
          "type": "uint256"
        }
      ],
      "stateMutability": "nonpayable",
      "type": "function"
    },
    {
      "inputs": [
        {
          "internalType": "address",
          "name": "token",
          "type": "address"
        },
        {
          "internalType": "uint256",
          "name": "liquidity",
          "type": "uint256"
        },
        {
          "internalType": "uint256",
          "name": "amountTokenMin",
          "type": "uint256"
        },
        {
          "internalType": "uint256",
          "name": "amountETHMin",
          "type": "uint256"
        },
        {
          "internalType": "address",
          "name": "to",
          "type": "address"
        },
        {
          "internalType": "uint256",
          "name": "deadline",
          "type": "uint256"
        }
      ],
      "name": "removeLiquidityETHSupportingFeeOnTransferTokens",
      "outputs": [
        {
          "internalType": "uint256",
          "name": "amountETH",
          "type": "uint256"
        }
      ],
      "stateMutability": "nonpayable",
      "type": "function"
    },
    {
      "inputs": [
        {
          "internalType": "address",
          "name": "token",
          "type": "address"
        },
        {
          "internalType": "uint256",
          "name": "liquidity",
          "type": "uint256"
        },
        {
          "internalType": "uint256",
          "name": "amountTokenMin",
          "type": "uint256"
        },
        {
          "internalType": "uint256",
          "name": "amountETHMin",
          "type": "uint256"
        },
        {
          "internalType": "address",
          "name": "to",
          "type": "address"
        },
        {
          "internalType": "uint256",
          "name": "deadline",
          "type": "uint256"
        },
        {
          "internalType": "bool",
          "name": "approveMax",
          "type": "bool"
        },
        {
          "internalType": "uint8",
          "name": "v",
          "type": "uint8"
        },
        {
          "internalType": "bytes32",
          "name": "r",
          "type": "bytes32"
        },
        {
          "internalType": "bytes32",
          "name": "s",
          "type": "bytes32"
        }
      ],
      "name": "removeLiquidityETHWithPermit",
      "outputs": [
        {
          "internalType": "uint256",
          "name": "amountToken",
          "type": "uint256"
        },
        {
          "internalType": "uint256",
          "name": "amountETH",
          "type": "uint256"
        }
      ],
      "stateMutability": "nonpayable",
      "type": "function"
    },
    {
      "inputs": [
        {
          "internalType": "address",
          "name": "token",
          "type": "address"
        },
        {
          "internalType": "uint256",
          "name": "liquidity",
          "type": "uint256"
        },
        {
          "internalType": "uint256",
          "name": "amountTokenMin",
          "type": "uint256"
        },
        {
          "internalType": "uint256",
          "name": "amountETHMin",
          "type": "uint256"
        },
        {
          "internalType": "address",
          "name": "to",
          "type": "address"
        },
        {
          "internalType": "uint256",
          "name": "deadline",
          "type": "uint256"
        },
        {
          "internalType": "bool",
          "name": "approveMax",
          "type": "bool"
        },
        {
          "internalType": "uint8",
          "name": "v",
          "type": "uint8"
        },
        {
          "internalType": "bytes32",
          "name": "r",
          "type": "bytes32"
        },
        {
          "internalType": "bytes32",
          "name": "s",
          "type": "bytes32"
        }
      ],
      "name": "removeLiquidityETHWithPermitSupportingFeeOnTransferTokens",
      "outputs": [
        {
          "internalType": "uint256",
          "name": "amountETH",
          "type": "uint256"
        }
      ],
      "stateMutability": "nonpayable",
      "type": "function"
    },
    {
      "inputs": [
        {
          "internalType": "address",
          "name": "tokenA",
          "type": "address"
        },
        {
          "internalType": "address",
          "name": "tokenB",
          "type": "address"
        },
        {
          "internalType": "uint256",
          "name": "liquidity",
          "type": "uint256"
        },
        {
          "internalType": "uint256",
          "name": "amountAMin",
          "type": "uint256"
        },
        {
          "internalType": "uint256",
          "name": "amountBMin",
          "type": "uint256"
        },
        {
          "internalType": "address",
          "name": "to",
          "type": "address"
        },
        {
          "internalType": "uint256",
          "name": "deadline",
          "type": "uint256"
        },
        {
          "internalType": "bool",
          "name": "approveMax",
          "type": "bool"
        },
        {
          "internalType": "uint8",
          "name": "v",
          "type": "uint8"
        },
        {
          "internalType": "bytes32",
          "name": "r",
          "type": "bytes32"
        },
        {
          "internalType": "bytes32",
          "name": "s",
          "type": "bytes32"
        }
      ],
      "name": "removeLiquidityWithPermit",
      "outputs": [
        {
          "internalType": "uint256",
          "name": "amountA",
          "type": "uint256"
        },
        {
          "internalType": "uint256",
          "name": "amountB",
          "type": "uint256"
        }
      ],
      "stateMutability": "nonpayable",
      "type": "function"
    },
    {
      "inputs": [
        {
          "internalType": "uint256",
          "name": "amountOut",
          "type": "uint256"
        },
        {
          "internalType": "address[]",
          "name": "path",
          "type": "address[]"
        },
        {
          "internalType": "address",
          "name": "to",
          "type": "address"
        },
        {
          "internalType": "uint256",
          "name": "deadline",
          "type": "uint256"
        }
      ],
      "name": "swapETHForExactTokens",
      "outputs": [
        {
          "internalType": "uint256[]",
          "name": "amounts",
          "type": "uint256[]"
        }
      ],
      "stateMutability": "payable",
      "type": "function"
    },
    {
      "inputs": [
        {
          "internalType": "uint256",
          "name": "amountOutMin",
          "type": "uint256"
        },
        {
          "internalType": "address[]",
          "name": "path",
          "type": "address[]"
        },
        {
          "internalType": "address",
          "name": "to",
          "type": "address"
        },
        {
          "internalType": "uint256",
          "name": "deadline",
          "type": "uint256"
        }
      ],
      "name": "swapExactETHForTokens",
      "outputs": [
        {
          "internalType": "uint256[]",
          "name": "amounts",
          "type": "uint256[]"
        }
      ],
      "stateMutability": "payable",
      "type": "function"
    },
    {
      "inputs": [
        {
          "internalType": "uint256",
          "name": "amountOutMin",
          "type": "uint256"
        },
        {
          "internalType": "address[]",
          "name": "path",
          "type": "address[]"
        },
        {
          "internalType": "address",
          "name": "to",
          "type": "address"
        },
        {
          "internalType": "uint256",
          "name": "deadline",
          "type": "uint256"
        }
      ],
      "name": "swapExactETHForTokensSupportingFeeOnTransferTokens",
      "outputs": [],
      "stateMutability": "payable",
      "type": "function"
    },
    {
      "inputs": [
        {
          "internalType": "uint256",
          "name": "amountIn",
          "type": "uint256"
        },
        {
          "internalType": "uint256",
          "name": "amountOutMin",
          "type": "uint256"
        },
        {
          "internalType": "address[]",
          "name": "path",
          "type": "address[]"
        },
        {
          "internalType": "address",
          "name": "to",
          "type": "address"
        },
        {
          "internalType": "uint256",
          "name": "deadline",
          "type": "uint256"
        }
      ],
      "name": "swapExactTokensForETH",
      "outputs": [
        {
          "internalType": "uint256[]",
          "name": "amounts",
          "type": "uint256[]"
        }
      ],
      "stateMutability": "nonpayable",
      "type": "function"
    },
    {
      "inputs": [
        {
          "internalType": "uint256",
          "name": "amountIn",
          "type": "uint256"
        },
        {
          "internalType": "uint256",
          "name": "amountOutMin",
          "type": "uint256"
        },
        {
          "internalType": "address[]",
          "name": "path",
          "type": "address[]"
        },
        {
          "internalType": "address",
          "name": "to",
          "type": "address"
        },
        {
          "internalType": "uint256",
          "name": "deadline",
          "type": "uint256"
        }
      ],
      "name": "swapExactTokensForETHSupportingFeeOnTransferTokens",
      "outputs": [],
      "stateMutability": "nonpayable",
      "type": "function"
    },
    {
      "inputs": [
        {
          "internalType": "uint256",
          "name": "amountIn",
          "type": "uint256"
        },
        {
          "internalType": "uint256",
          "name": "amountOutMin",
          "type": "uint256"
        },
        {
          "internalType": "address[]",
          "name": "path",
          "type": "address[]"
        },
        {
          "internalType": "address",
          "name": "to",
          "type": "address"
        },
        {
          "internalType": "uint256",
          "name": "deadline",
          "type": "uint256"
        }
      ],
      "name": "swapExactTokensForTokens",
      "outputs": [
        {
          "internalType": "uint256[]",
          "name": "amounts",
          "type": "uint256[]"
        }
      ],
      "stateMutability": "nonpayable",
      "type": "function"
    },
    {
      "inputs": [
        {
          "internalType": "uint256",
          "name": "amountIn",
          "type": "uint256"
        },
        {
          "internalType": "uint256",
          "name": "amountOutMin",
          "type": "uint256"
        },
        {
          "internalType": "address[]",
          "name": "path",
          "type": "address[]"
        },
        {
          "internalType": "address",
          "name": "to",
          "type": "address"
        },
        {
          "internalType": "uint256",
          "name": "deadline",
          "type": "uint256"
        }
      ],
      "name": "swapExactTokensForTokensSupportingFeeOnTransferTokens",
      "outputs": [],
      "stateMutability": "nonpayable",
      "type": "function"
    },
    {
      "inputs": [
        {
          "internalType": "uint256",
          "name": "amountOut",
          "type": "uint256"
        },
        {
          "internalType": "uint256",
          "name": "amountInMax",
          "type": "uint256"
        },
        {
          "internalType": "address[]",
          "name": "path",
          "type": "address[]"
        },
        {
          "internalType": "address",
          "name": "to",
          "type": "address"
        },
        {
          "internalType": "uint256",
          "name": "deadline",
          "type": "uint256"
        }
      ],
      "name": "swapTokensForExactETH",
      "outputs": [
        {
          "internalType": "uint256[]",
          "name": "amounts",
          "type": "uint256[]"
        }
      ],
      "stateMutability": "nonpayable",
      "type": "function"
    },
    {
      "inputs": [
        {
          "internalType": "uint256",
          "name": "amountOut",
          "type": "uint256"
        },
        {
          "internalType": "uint256",
          "name": "amountInMax",
          "type": "uint256"
        },
        {
          "internalType": "address[]",
          "name": "path",
          "type": "address[]"
        },
        {
          "internalType": "address",
          "name": "to",
          "type": "address"
        },
        {
          "internalType": "uint256",
          "name": "deadline",
          "type": "uint256"
        }
      ],
      "name": "swapTokensForExactTokens",
      "outputs": [
        {
          "internalType": "uint256[]",
          "name": "amounts",
          "type": "uint256[]"
        }
      ],
      "stateMutability": "nonpayable",
      "type": "function"
    },
    {
      "inputs": [],
      "name": "vault",
      "outputs": [
        {
          "internalType": "address",
          "name": "",
          "type": "address"
        }
      ],
      "stateMutability": "view",
      "type": "function"
    },
    {
      "stateMutability": "payable",
      "type": "receive"
    }
  ],
  "bytecode": "0x60c06040523480156200001157600080fd5b50604051620065bd380380620065bd833981016040819052620000349162000070565b6001600160601b0319606092831b8116608052911b1660a052620000a7565b80516001600160a01b03811681146200006b57600080fd5b919050565b6000806040838503121562000083578182fd5b6200008e8362000053565b91506200009e6020840162000053565b90509250929050565b60805160601c60a05160601c6163706200024d600039600081816101d80152818161045f015281816106af015281816107170152818161083701528181610c0b0152818161115c015281816113ac0152818161199801528181611b3901528181611c8901528181611d7301528181611fb301528181612075015281816124860152818161258c015281816126740152818161277c015281816127fd0152818161320b0152818161352301528181613579015281816135ad015281816136750152818161386301528181613a970152613b590152600081816105260152818161093101528181610ac101528181610d4c01528181610d8501528181610f24015281816112560152818161138a0152818161159001528181611e79015281816120b4015281816122da0152818161283c01528181612bd001528181612fa2015281816130a3015281816131b9015281816131e9015281816133ba015281816135570152818161396901528181613b98015281816148950152818161490c01528181614d3601528181614f220152818161550b015281816155f0015261567601526163706000f3fe6080604052600436106101bb5760003560e01c8063ad5c4648116100ec578063ce5494bb1161008a578063e8e3370011610064578063e8e33700146105a8578063f305d719146105e3578063fb3bdb41146105f6578063fbfa77cf1461060957600080fd5b8063ce5494bb14610548578063d06ca61f14610568578063ded9382a1461058857600080fd5b8063b6f9de95116100c6578063b6f9de95146104c1578063baa2abde146104d4578063c1342574146104f4578063c45a01551461051457600080fd5b8063ad5c46481461044d578063ad615dec14610481578063af2979eb146104a157600080fd5b8063570ca73511610159578063791ac94711610133578063791ac947146103da5780637ff36ab5146103fa57806385f8c2591461040d5780638803dbee1461042d57600080fd5b8063570ca735146103485780635b0d59841461039a5780635c11d795146103ba57600080fd5b80631f00ca74116101955780631f00ca74146102c85780632195995c146102e857806338ed1739146103085780634a25d94a1461032857600080fd5b806302751cec14610233578063054d50d41461026d57806318cbafe51461029b57600080fd5b3661022e573373ffffffffffffffffffffffffffffffffffffffff7f0000000000000000000000000000000000000000000000000000000000000000161461022c577f4e487b7100000000000000000000000000000000000000000000000000000000600052600160045260246000fd5b005b600080fd5b34801561023f57600080fd5b5061025361024e366004615d05565b610636565b604080519283526020830191909152015b60405180910390f35b34801561027957600080fd5b5061028d610288366004616063565b61079e565b604051908152602001610264565b3480156102a757600080fd5b506102bb6102b6366004615ff2565b6107b3565b60405161026491906160aa565b3480156102d457600080fd5b506102bb6102e3366004615ede565b610d45565b3480156102f457600080fd5b50610253610303366004615be1565b610d7b565b34801561031457600080fd5b506102bb610323366004615ff2565b610eb2565b34801561033457600080fd5b506102bb610343366004615ff2565b6110d8565b34801561035457600080fd5b506001546103759073ffffffffffffffffffffffffffffffffffffffff1681565b60405173ffffffffffffffffffffffffffffffffffffffff9091168152602001610264565b3480156103a657600080fd5b5061028d6103b5366004615d62565b611382565b3480156103c657600080fd5b5061022c6103d5366004615ff2565b6114cd565b3480156103e657600080fd5b5061022c6103f5366004615ff2565b611916565b6102bb610408366004615e79565b611d04565b34801561041957600080fd5b5061028d610428366004616063565b61225b565b34801561043957600080fd5b506102bb610448366004615ff2565b612268565b34801561045957600080fd5b506103757f000000000000000000000000000000000000000000000000000000000000000081565b34801561048d57600080fd5b5061028d61049c366004616063565b612406565b3480156104ad57600080fd5b5061028d6104bc366004615d05565b612413565b61022c6104cf366004615e79565b612607565b3480156104e057600080fd5b506102536104ef366004615b70565b612b5b565b34801561050057600080fd5b5061022c61050f366004615b2b565b612ed1565b34801561052057600080fd5b506103757f000000000000000000000000000000000000000000000000000000000000000081565b34801561055457600080fd5b5061022c610563366004615aec565b6130ea565b34801561057457600080fd5b506102bb610583366004615ede565b6131b2565b34801561059457600080fd5b506102536105a3366004615d62565b6131df565b3480156105b457600080fd5b506105c86105c3366004615c8a565b613330565b60408051938452602084019290925290820152606001610264565b6105c86105f1366004615d05565b6134ad565b6102bb610604366004615e79565b6137f4565b34801561061557600080fd5b506000546103759073ffffffffffffffffffffffffffffffffffffffff1681565b60008082428110156106a9576040517f08c379a000000000000000000000000000000000000000000000000000000000815260206004820152601860248201527f556e69737761705632526f757465723a2045585049524544000000000000000060448201526064015b60405180910390fd5b6106d8897f00000000000000000000000000000000000000000000000000000000000000008a8a8a308a612b5b565b90935091506106e8898685613dcf565b6040517f2e1a7d4d000000000000000000000000000000000000000000000000000000008152600481018390527f000000000000000000000000000000000000000000000000000000000000000073ffffffffffffffffffffffffffffffffffffffff1690632e1a7d4d90602401600060405180830381600087803b15801561077057600080fd5b505af1158015610784573d6000803e3d6000fd5b505050506107928583613f38565b50965096945050505050565b60006107ab848484614047565b949350505050565b60608142811015610820576040517f08c379a000000000000000000000000000000000000000000000000000000000815260206004820152601860248201527f556e69737761705632526f757465723a2045585049524544000000000000000060448201526064016106a0565b73ffffffffffffffffffffffffffffffffffffffff7f00000000000000000000000000000000000000000000000000000000000000001686866108646001826161f8565b81811061089a577f4e487b7100000000000000000000000000000000000000000000000000000000600052603260045260246000fd5b90506020020160208101906108af9190615aec565b73ffffffffffffffffffffffffffffffffffffffff161461092c576040517f08c379a000000000000000000000000000000000000000000000000000000000815260206004820152601d60248201527f556e69737761705632526f757465723a20494e56414c49445f5041544800000060448201526064016106a0565b61098a7f0000000000000000000000000000000000000000000000000000000000000000898888808060200260200160405190810160405280939291908181526020018383602002808284376000920191909152506141c192505050565b915086826001845161099c91906161f8565b815181106109d3577f4e487b7100000000000000000000000000000000000000000000000000000000600052603260045260246000fd5b60200260200101511015610a69576040517f08c379a000000000000000000000000000000000000000000000000000000000815260206004820152602b60248201527f556e69737761705632526f757465723a20494e53554646494349454e545f4f5560448201527f545055545f414d4f554e5400000000000000000000000000000000000000000060648201526084016106a0565b610bca86866000818110610aa6577f4e487b7100000000000000000000000000000000000000000000000000000000600052603260045260246000fd5b9050602002016020810190610abb9190615aec565b33610b837f00000000000000000000000000000000000000000000000000000000000000008a8a6000818110610b1a577f4e487b7100000000000000000000000000000000000000000000000000000000600052603260045260246000fd5b9050602002016020810190610b2f9190615aec565b8b8b6001818110610b69577f4e487b7100000000000000000000000000000000000000000000000000000000600052603260045260246000fd5b9050602002016020810190610b7e9190615aec565b614450565b85600081518110610bbd577f4e487b7100000000000000000000000000000000000000000000000000000000600052603260045260246000fd5b6020026020010151614585565b610c0982878780806020026020016040519081016040528093929190818152602001838360200280828437600092019190915250309250614723915050565b7f000000000000000000000000000000000000000000000000000000000000000073ffffffffffffffffffffffffffffffffffffffff16632e1a7d4d8360018551610c5491906161f8565b81518110610c8b577f4e487b7100000000000000000000000000000000000000000000000000000000600052603260045260246000fd5b60200260200101516040518263ffffffff1660e01b8152600401610cb191815260200190565b600060405180830381600087803b158015610ccb57600080fd5b505af1158015610cdf573d6000803e3d6000fd5b50505050610d3a848360018551610cf691906161f8565b81518110610d2d577f4e487b7100000000000000000000000000000000000000000000000000000000600052603260045260246000fd5b6020026020010151613f38565b509695505050505050565b6060610d727f000000000000000000000000000000000000000000000000000000000000000084846149ee565b90505b92915050565b6000806000610dab7f00000000000000000000000000000000000000000000000000000000000000008f8f614450565b9050600087610dba578c610ddc565b7fffffffffffffffffffffffffffffffffffffffffffffffffffffffffffffffff5b6040517fd505accf00000000000000000000000000000000000000000000000000000000815233600482015230602482015260448101829052606481018b905260ff8916608482015260a4810188905260c4810187905290915073ffffffffffffffffffffffffffffffffffffffff83169063d505accf9060e401600060405180830381600087803b158015610e7157600080fd5b505af1158015610e85573d6000803e3d6000fd5b50505050610e988f8f8f8f8f8f8f612b5b565b809450819550505050509b509b9950505050505050505050565b60608142811015610f1f576040517f08c379a000000000000000000000000000000000000000000000000000000000815260206004820152601860248201527f556e69737761705632526f757465723a2045585049524544000000000000000060448201526064016106a0565b610f7d7f0000000000000000000000000000000000000000000000000000000000000000898888808060200260200160405190810160405280939291908181526020018383602002808284376000920191909152506141c192505050565b9150868260018451610f8f91906161f8565b81518110610fc6577f4e487b7100000000000000000000000000000000000000000000000000000000600052603260045260246000fd5b6020026020010151101561105c576040517f08c379a000000000000000000000000000000000000000000000000000000000815260206004820152602b60248201527f556e69737761705632526f757465723a20494e53554646494349454e545f4f5560448201527f545055545f414d4f554e5400000000000000000000000000000000000000000060648201526084016106a0565b61109986866000818110610aa6577f4e487b7100000000000000000000000000000000000000000000000000000000600052603260045260246000fd5b610d3a82878780806020026020016040519081016040528093929190818152602001838360200280828437600092019190915250899250614723915050565b60608142811015611145576040517f08c379a000000000000000000000000000000000000000000000000000000000815260206004820152601860248201527f556e69737761705632526f757465723a2045585049524544000000000000000060448201526064016106a0565b73ffffffffffffffffffffffffffffffffffffffff7f00000000000000000000000000000000000000000000000000000000000000001686866111896001826161f8565b8181106111bf577f4e487b7100000000000000000000000000000000000000000000000000000000600052603260045260246000fd5b90506020020160208101906111d49190615aec565b73ffffffffffffffffffffffffffffffffffffffff1614611251576040517f08c379a000000000000000000000000000000000000000000000000000000000815260206004820152601d60248201527f556e69737761705632526f757465723a20494e56414c49445f5041544800000060448201526064016106a0565b6112af7f0000000000000000000000000000000000000000000000000000000000000000898888808060200260200160405190810160405280939291908181526020018383602002808284376000920191909152506149ee92505050565b915086826000815181106112ec577f4e487b7100000000000000000000000000000000000000000000000000000000600052603260045260246000fd5b60200260200101511115610a69576040517f08c379a000000000000000000000000000000000000000000000000000000000815260206004820152602760248201527f556e69737761705632526f757465723a204558434553534956455f494e50555460448201527f5f414d4f554e540000000000000000000000000000000000000000000000000060648201526084016106a0565b6000806113d07f00000000000000000000000000000000000000000000000000000000000000008d7f0000000000000000000000000000000000000000000000000000000000000000614450565b90506000866113df578b611401565b7fffffffffffffffffffffffffffffffffffffffffffffffffffffffffffffffff5b6040517fd505accf00000000000000000000000000000000000000000000000000000000815233600482015230602482015260448101829052606481018a905260ff8816608482015260a4810187905260c4810186905290915073ffffffffffffffffffffffffffffffffffffffff83169063d505accf9060e401600060405180830381600087803b15801561149657600080fd5b505af11580156114aa573d6000803e3d6000fd5b505050506114bc8d8d8d8d8d8d612413565b9d9c50505050505050505050505050565b8042811015611538576040517f08c379a000000000000000000000000000000000000000000000000000000000815260206004820152601860248201527f556e69737761705632526f757465723a2045585049524544000000000000000060448201526064016106a0565b61163e85856000818110611575577f4e487b7100000000000000000000000000000000000000000000000000000000600052603260045260246000fd5b905060200201602081019061158a9190615aec565b336116387f0000000000000000000000000000000000000000000000000000000000000000898960008181106115e9577f4e487b7100000000000000000000000000000000000000000000000000000000600052603260045260246000fd5b90506020020160208101906115fe9190615aec565b8a8a6001818110610b69577f4e487b7100000000000000000000000000000000000000000000000000000000600052603260045260246000fd5b8a614585565b6000858561164d6001826161f8565b818110611683577f4e487b7100000000000000000000000000000000000000000000000000000000600052603260045260246000fd5b90506020020160208101906116989190615aec565b6040517f70a0823100000000000000000000000000000000000000000000000000000000815273ffffffffffffffffffffffffffffffffffffffff868116600483015291909116906370a082319060240160206040518083038186803b15801561170157600080fd5b505afa158015611715573d6000803e3d6000fd5b505050506040513d601f19601f820116820180604052508101906117399190615e61565b9050611779868680806020026020016040519081016040528093929190818152602001838360200280828437600092019190915250889250614c73915050565b8661187e82888861178b6001826161f8565b8181106117c1577f4e487b7100000000000000000000000000000000000000000000000000000000600052603260045260246000fd5b90506020020160208101906117d69190615aec565b6040517f70a0823100000000000000000000000000000000000000000000000000000000815273ffffffffffffffffffffffffffffffffffffffff898116600483015291909116906370a08231906024015b60206040518083038186803b15801561184057600080fd5b505afa158015611854573d6000803e3d6000fd5b505050506040513d601f19601f820116820180604052508101906118789190615e61565b90615004565b101561190c576040517f08c379a000000000000000000000000000000000000000000000000000000000815260206004820152602b60248201527f556e69737761705632526f757465723a20494e53554646494349454e545f4f5560448201527f545055545f414d4f554e5400000000000000000000000000000000000000000060648201526084016106a0565b5050505050505050565b8042811015611981576040517f08c379a000000000000000000000000000000000000000000000000000000000815260206004820152601860248201527f556e69737761705632526f757465723a2045585049524544000000000000000060448201526064016106a0565b73ffffffffffffffffffffffffffffffffffffffff7f00000000000000000000000000000000000000000000000000000000000000001685856119c56001826161f8565b8181106119fb577f4e487b7100000000000000000000000000000000000000000000000000000000600052603260045260246000fd5b9050602002016020810190611a109190615aec565b73ffffffffffffffffffffffffffffffffffffffff1614611a8d576040517f08c379a000000000000000000000000000000000000000000000000000000000815260206004820152601d60248201527f556e69737761705632526f757465723a20494e56414c49445f5041544800000060448201526064016106a0565b611aca85856000818110611575577f4e487b7100000000000000000000000000000000000000000000000000000000600052603260045260246000fd5b611b08858580806020026020016040519081016040528093929190818152602001838360200280828437600092019190915250309250614c73915050565b6040517f70a082310000000000000000000000000000000000000000000000000000000081523060048201526000907f000000000000000000000000000000000000000000000000000000000000000073ffffffffffffffffffffffffffffffffffffffff16906370a082319060240160206040518083038186803b158015611b9057600080fd5b505afa158015611ba4573d6000803e3d6000fd5b505050506040513d601f19601f82011682018060405250810190611bc89190615e61565b905086811015611c5a576040517f08c379a000000000000000000000000000000000000000000000000000000000815260206004820152602b60248201527f556e69737761705632526f757465723a20494e53554646494349454e545f4f5560448201527f545055545f414d4f554e5400000000000000000000000000000000000000000060648201526084016106a0565b6040517f2e1a7d4d000000000000000000000000000000000000000000000000000000008152600481018290527f000000000000000000000000000000000000000000000000000000000000000073ffffffffffffffffffffffffffffffffffffffff1690632e1a7d4d90602401600060405180830381600087803b158015611ce257600080fd5b505af1158015611cf6573d6000803e3d6000fd5b5050505061190c8482613f38565b60608142811015611d71576040517f08c379a000000000000000000000000000000000000000000000000000000000815260206004820152601860248201527f556e69737761705632526f757465723a2045585049524544000000000000000060448201526064016106a0565b7f000000000000000000000000000000000000000000000000000000000000000073ffffffffffffffffffffffffffffffffffffffff1686866000818110611de2577f4e487b7100000000000000000000000000000000000000000000000000000000600052603260045260246000fd5b9050602002016020810190611df79190615aec565b73ffffffffffffffffffffffffffffffffffffffff1614611e74576040517f08c379a000000000000000000000000000000000000000000000000000000000815260206004820152601d60248201527f556e69737761705632526f757465723a20494e56414c49445f5041544800000060448201526064016106a0565b611ed27f0000000000000000000000000000000000000000000000000000000000000000348888808060200260200160405190810160405280939291908181526020018383602002808284376000920191909152506141c192505050565b9150868260018451611ee491906161f8565b81518110611f1b577f4e487b7100000000000000000000000000000000000000000000000000000000600052603260045260246000fd5b60200260200101511015611fb1576040517f08c379a000000000000000000000000000000000000000000000000000000000815260206004820152602b60248201527f556e69737761705632526f757465723a20494e53554646494349454e545f4f5560448201527f545055545f414d4f554e5400000000000000000000000000000000000000000060648201526084016106a0565b7f000000000000000000000000000000000000000000000000000000000000000073ffffffffffffffffffffffffffffffffffffffff1663d0e30db083600081518110612027577f4e487b7100000000000000000000000000000000000000000000000000000000600052603260045260246000fd5b60200260200101516040518263ffffffff1660e01b81526004016000604051808303818588803b15801561205a57600080fd5b505af115801561206e573d6000803e3d6000fd5b50505050507f000000000000000000000000000000000000000000000000000000000000000073ffffffffffffffffffffffffffffffffffffffff1663a9059cbb61210d7f0000000000000000000000000000000000000000000000000000000000000000898960008181106115e9577f4e487b7100000000000000000000000000000000000000000000000000000000600052603260045260246000fd5b84600081518110612147577f4e487b7100000000000000000000000000000000000000000000000000000000600052603260045260246000fd5b60200260200101516040518363ffffffff1660e01b815260040161218d92919073ffffffffffffffffffffffffffffffffffffffff929092168252602082015260400190565b602060405180830381600087803b1580156121a757600080fd5b505af11580156121bb573d6000803e3d6000fd5b505050506040513d601f19601f820116820180604052508101906121df9190615df7565b612212577f4e487b7100000000000000000000000000000000000000000000000000000000600052600160045260246000fd5b61225182878780806020026020016040519081016040528093929190818152602001838360200280828437600092019190915250899250614723915050565b5095945050505050565b60006107ab84848461507c565b606081428110156122d5576040517f08c379a000000000000000000000000000000000000000000000000000000000815260206004820152601860248201527f556e69737761705632526f757465723a2045585049524544000000000000000060448201526064016106a0565b6123337f0000000000000000000000000000000000000000000000000000000000000000898888808060200260200160405190810160405280939291908181526020018383602002808284376000920191909152506149ee92505050565b91508682600081518110612370577f4e487b7100000000000000000000000000000000000000000000000000000000600052603260045260246000fd5b6020026020010151111561105c576040517f08c379a000000000000000000000000000000000000000000000000000000000815260206004820152602760248201527f556e69737761705632526f757465723a204558434553534956455f494e50555460448201527f5f414d4f554e540000000000000000000000000000000000000000000000000060648201526084016106a0565b60006107ab8484846151f0565b60008142811015612480576040517f08c379a000000000000000000000000000000000000000000000000000000000815260206004820152601860248201527f556e69737761705632526f757465723a2045585049524544000000000000000060448201526064016106a0565b6124af887f00000000000000000000000000000000000000000000000000000000000000008989893089612b5b565b6040517f70a0823100000000000000000000000000000000000000000000000000000000815230600482015290935061255d91508990869073ffffffffffffffffffffffffffffffffffffffff8316906370a082319060240160206040518083038186803b15801561252057600080fd5b505afa158015612534573d6000803e3d6000fd5b505050506040513d601f19601f820116820180604052508101906125589190615e61565b613dcf565b6040517f2e1a7d4d000000000000000000000000000000000000000000000000000000008152600481018390527f000000000000000000000000000000000000000000000000000000000000000073ffffffffffffffffffffffffffffffffffffffff1690632e1a7d4d90602401600060405180830381600087803b1580156125e557600080fd5b505af11580156125f9573d6000803e3d6000fd5b50505050610d3a8483613f38565b8042811015612672576040517f08c379a000000000000000000000000000000000000000000000000000000000815260206004820152601860248201527f556e69737761705632526f757465723a2045585049524544000000000000000060448201526064016106a0565b7f000000000000000000000000000000000000000000000000000000000000000073ffffffffffffffffffffffffffffffffffffffff16858560008181106126e3577f4e487b7100000000000000000000000000000000000000000000000000000000600052603260045260246000fd5b90506020020160208101906126f89190615aec565b73ffffffffffffffffffffffffffffffffffffffff1614612775576040517f08c379a000000000000000000000000000000000000000000000000000000000815260206004820152601d60248201527f556e69737761705632526f757465723a20494e56414c49445f5041544800000060448201526064016106a0565b60003490507f000000000000000000000000000000000000000000000000000000000000000073ffffffffffffffffffffffffffffffffffffffff1663d0e30db0826040518263ffffffff1660e01b81526004016000604051808303818588803b1580156127e257600080fd5b505af11580156127f6573d6000803e3d6000fd5b50505050507f000000000000000000000000000000000000000000000000000000000000000073ffffffffffffffffffffffffffffffffffffffff1663a9059cbb6128957f0000000000000000000000000000000000000000000000000000000000000000898960008181106115e9577f4e487b7100000000000000000000000000000000000000000000000000000000600052603260045260246000fd5b6040517fffffffff0000000000000000000000000000000000000000000000000000000060e084901b16815273ffffffffffffffffffffffffffffffffffffffff909116600482015260248101849052604401602060405180830381600087803b15801561290257600080fd5b505af1158015612916573d6000803e3d6000fd5b505050506040513d601f19601f8201168201806040525081019061293a9190615df7565b61296d577f4e487b7100000000000000000000000000000000000000000000000000000000600052600160045260246000fd5b6000868661297c6001826161f8565b8181106129b2577f4e487b7100000000000000000000000000000000000000000000000000000000600052603260045260246000fd5b90506020020160208101906129c79190615aec565b6040517f70a0823100000000000000000000000000000000000000000000000000000000815273ffffffffffffffffffffffffffffffffffffffff878116600483015291909116906370a082319060240160206040518083038186803b158015612a3057600080fd5b505afa158015612a44573d6000803e3d6000fd5b505050506040513d601f19601f82011682018060405250810190612a689190615e61565b9050612aa8878780806020026020016040519081016040528093929190818152602001838360200280828437600092019190915250899250614c73915050565b8761187e828989612aba6001826161f8565b818110612af0577f4e487b7100000000000000000000000000000000000000000000000000000000600052603260045260246000fd5b9050602002016020810190612b059190615aec565b6040517f70a0823100000000000000000000000000000000000000000000000000000000815273ffffffffffffffffffffffffffffffffffffffff8a8116600483015291909116906370a0823190602401611828565b6000808242811015612bc9576040517f08c379a000000000000000000000000000000000000000000000000000000000815260206004820152601860248201527f556e69737761705632526f757465723a2045585049524544000000000000000060448201526064016106a0565b6000612bf67f00000000000000000000000000000000000000000000000000000000000000008c8c614450565b6040517f23b872dd00000000000000000000000000000000000000000000000000000000815233600482015273ffffffffffffffffffffffffffffffffffffffff821660248201819052604482018c90529192506323b872dd90606401602060405180830381600087803b158015612c6d57600080fd5b505af1158015612c81573d6000803e3d6000fd5b505050506040513d601f19601f82011682018060405250810190612ca59190615df7565b506040517f89afcb4400000000000000000000000000000000000000000000000000000000815273ffffffffffffffffffffffffffffffffffffffff878116600483015260009182918416906389afcb44906024016040805180830381600087803b158015612d1357600080fd5b505af1158015612d27573d6000803e3d6000fd5b505050506040513d601f19601f82011682018060405250810190612d4b9190615fcf565b915091506000612d5b8e8e615332565b5090508073ffffffffffffffffffffffffffffffffffffffff168e73ffffffffffffffffffffffffffffffffffffffff1614612d98578183612d9b565b82825b90975095508a871015612e30576040517f08c379a000000000000000000000000000000000000000000000000000000000815260206004820152602660248201527f556e69737761705632526f757465723a20494e53554646494349454e545f415f60448201527f414d4f554e54000000000000000000000000000000000000000000000000000060648201526084016106a0565b89861015612ec0576040517f08c379a000000000000000000000000000000000000000000000000000000000815260206004820152602660248201527f556e69737761705632526f757465723a20494e53554646494349454e545f425f60448201527f414d4f554e54000000000000000000000000000000000000000000000000000060648201526084016106a0565b505050505097509795505050505050565b60005473ffffffffffffffffffffffffffffffffffffffff163314612f52576040517f08c379a000000000000000000000000000000000000000000000000000000000815260206004820152601360248201527f4c697175646174653a20464f5242494444454e0000000000000000000000000060448201526064016106a0565b6040517fe6a4390500000000000000000000000000000000000000000000000000000000815273ffffffffffffffffffffffffffffffffffffffff858116600483015284811660248301526000917f00000000000000000000000000000000000000000000000000000000000000009091169063e6a439059060440160206040518083038186803b158015612fe657600080fd5b505afa158015612ffa573d6000803e3d6000fd5b505050506040513d601f19601f8201168201806040525081019061301e9190615b0f565b73ffffffffffffffffffffffffffffffffffffffff16141561309c576040517f08c379a000000000000000000000000000000000000000000000000000000000815260206004820152601d60248201527f4c69717569646174653a2050616972206e6f7420737570706f7274656400000060448201526064016106a0565b60006130c97f00000000000000000000000000000000000000000000000000000000000000008686614450565b90506130d785338386614585565b6130e384338385614585565b5050505050565b60015473ffffffffffffffffffffffffffffffffffffffff16331461316b576040517f08c379a000000000000000000000000000000000000000000000000000000000815260206004820152601460248201527f556e697377617056323a20464f5242494444454e00000000000000000000000060448201526064016106a0565b600080547fffffffffffffffffffffffff00000000000000000000000000000000000000001673ffffffffffffffffffffffffffffffffffffffff92909216919091179055565b6060610d727f000000000000000000000000000000000000000000000000000000000000000084846141c1565b600080600061322f7f00000000000000000000000000000000000000000000000000000000000000008e7f0000000000000000000000000000000000000000000000000000000000000000614450565b905060008761323e578c613260565b7fffffffffffffffffffffffffffffffffffffffffffffffffffffffffffffffff5b6040517fd505accf00000000000000000000000000000000000000000000000000000000815233600482015230602482015260448101829052606481018b905260ff8916608482015260a4810188905260c4810187905290915073ffffffffffffffffffffffffffffffffffffffff83169063d505accf9060e401600060405180830381600087803b1580156132f557600080fd5b505af1158015613309573d6000803e3d6000fd5b5050505061331b8e8e8e8e8e8e610636565b909f909e509c50505050505050505050505050565b600080600083428110156133a0576040517f08c379a000000000000000000000000000000000000000000000000000000000815260206004820152601860248201527f556e69737761705632526f757465723a2045585049524544000000000000000060448201526064016106a0565b6133ae8c8c8c8c8c8c6154b7565b909450925060006133e07f00000000000000000000000000000000000000000000000000000000000000008e8e614450565b90506133ee8d338388614585565b6133fa8c338387614585565b6040517f6a62784200000000000000000000000000000000000000000000000000000000815273ffffffffffffffffffffffffffffffffffffffff8881166004830152821690636a62784290602401602060405180830381600087803b15801561346357600080fd5b505af1158015613477573d6000803e3d6000fd5b505050506040513d601f19601f8201168201806040525081019061349b9190615e61565b92505050985098509895505050505050565b6000806000834281101561351d576040517f08c379a000000000000000000000000000000000000000000000000000000000815260206004820152601860248201527f556e69737761705632526f757465723a2045585049524544000000000000000060448201526064016106a0565b61354b8a7f00000000000000000000000000000000000000000000000000000000000000008b348c8c6154b7565b9094509250600061359d7f00000000000000000000000000000000000000000000000000000000000000008c7f0000000000000000000000000000000000000000000000000000000000000000614450565b90506135ab8b338388614585565b7f000000000000000000000000000000000000000000000000000000000000000073ffffffffffffffffffffffffffffffffffffffff1663d0e30db0856040518263ffffffff1660e01b81526004016000604051808303818588803b15801561361357600080fd5b505af1158015613627573d6000803e3d6000fd5b50506040517fa9059cbb00000000000000000000000000000000000000000000000000000000815273ffffffffffffffffffffffffffffffffffffffff8581166004830152602482018990527f000000000000000000000000000000000000000000000000000000000000000016935063a9059cbb92506044019050602060405180830381600087803b1580156136bd57600080fd5b505af11580156136d1573d6000803e3d6000fd5b505050506040513d601f19601f820116820180604052508101906136f59190615df7565b613728577f4e487b7100000000000000000000000000000000000000000000000000000000600052600160045260246000fd5b6040517f6a62784200000000000000000000000000000000000000000000000000000000815273ffffffffffffffffffffffffffffffffffffffff8881166004830152821690636a62784290602401602060405180830381600087803b15801561379157600080fd5b505af11580156137a5573d6000803e3d6000fd5b505050506040513d601f19601f820116820180604052508101906137c99190615e61565b9250833411156137e6576137e6336137e186346161f8565b613f38565b505096509650969350505050565b60608142811015613861576040517f08c379a000000000000000000000000000000000000000000000000000000000815260206004820152601860248201527f556e69737761705632526f757465723a2045585049524544000000000000000060448201526064016106a0565b7f000000000000000000000000000000000000000000000000000000000000000073ffffffffffffffffffffffffffffffffffffffff16868660008181106138d2577f4e487b7100000000000000000000000000000000000000000000000000000000600052603260045260246000fd5b90506020020160208101906138e79190615aec565b73ffffffffffffffffffffffffffffffffffffffff1614613964576040517f08c379a000000000000000000000000000000000000000000000000000000000815260206004820152601d60248201527f556e69737761705632526f757465723a20494e56414c49445f5041544800000060448201526064016106a0565b6139c27f0000000000000000000000000000000000000000000000000000000000000000888888808060200260200160405190810160405280939291908181526020018383602002808284376000920191909152506149ee92505050565b915034826000815181106139ff577f4e487b7100000000000000000000000000000000000000000000000000000000600052603260045260246000fd5b60200260200101511115613a95576040517f08c379a000000000000000000000000000000000000000000000000000000000815260206004820152602760248201527f556e69737761705632526f757465723a204558434553534956455f494e50555460448201527f5f414d4f554e540000000000000000000000000000000000000000000000000060648201526084016106a0565b7f000000000000000000000000000000000000000000000000000000000000000073ffffffffffffffffffffffffffffffffffffffff1663d0e30db083600081518110613b0b577f4e487b7100000000000000000000000000000000000000000000000000000000600052603260045260246000fd5b60200260200101516040518263ffffffff1660e01b81526004016000604051808303818588803b158015613b3e57600080fd5b505af1158015613b52573d6000803e3d6000fd5b50505050507f000000000000000000000000000000000000000000000000000000000000000073ffffffffffffffffffffffffffffffffffffffff1663a9059cbb613bf17f0000000000000000000000000000000000000000000000000000000000000000898960008181106115e9577f4e487b7100000000000000000000000000000000000000000000000000000000600052603260045260246000fd5b84600081518110613c2b577f4e487b7100000000000000000000000000000000000000000000000000000000600052603260045260246000fd5b60200260200101516040518363ffffffff1660e01b8152600401613c7192919073ffffffffffffffffffffffffffffffffffffffff929092168252602082015260400190565b602060405180830381600087803b158015613c8b57600080fd5b505af1158015613c9f573d6000803e3d6000fd5b505050506040513d601f19601f82011682018060405250810190613cc39190615df7565b613cf6577f4e487b7100000000000000000000000000000000000000000000000000000000600052600160045260246000fd5b613d3582878780806020026020016040519081016040528093929190818152602001838360200280828437600092019190915250899250614723915050565b81600081518110613d6f577f4e487b7100000000000000000000000000000000000000000000000000000000600052603260045260246000fd5b6020026020010151341115612251576122513383600081518110613dbc577f4e487b7100000000000000000000000000000000000000000000000000000000600052603260045260246000fd5b6020026020010151346137e191906161f8565b6040805173ffffffffffffffffffffffffffffffffffffffff8481166024830152604480830185905283518084039091018152606490920183526020820180517bffffffffffffffffffffffffffffffffffffffffffffffffffffffff167fa9059cbb000000000000000000000000000000000000000000000000000000001790529151600092839290871691613e66919061608e565b6000604051808303816000865af19150503d8060008114613ea3576040519150601f19603f3d011682016040523d82523d6000602084013e613ea8565b606091505b5091509150818015613ed2575080511580613ed2575080806020019051810190613ed29190615df7565b6130e3576040517f08c379a000000000000000000000000000000000000000000000000000000000815260206004820152601f60248201527f5472616e7366657248656c7065723a205452414e534645525f4641494c45440060448201526064016106a0565b6040805160008082526020820190925273ffffffffffffffffffffffffffffffffffffffff8416908390604051613f6f919061608e565b60006040518083038185875af1925050503d8060008114613fac576040519150601f19603f3d011682016040523d82523d6000602084013e613fb1565b606091505b5050905080614042576040517f08c379a000000000000000000000000000000000000000000000000000000000815260206004820152602360248201527f5472616e7366657248656c7065723a204554485f5452414e534645525f46414960448201527f4c4544000000000000000000000000000000000000000000000000000000000060648201526084016106a0565b505050565b60008084116140d8576040517f08c379a000000000000000000000000000000000000000000000000000000000815260206004820152602b60248201527f556e697377617056324c6962726172793a20494e53554646494349454e545f4960448201527f4e5055545f414d4f554e5400000000000000000000000000000000000000000060648201526084016106a0565b6000831180156140e85750600082115b614174576040517f08c379a000000000000000000000000000000000000000000000000000000000815260206004820152602860248201527f556e697377617056324c6962726172793a20494e53554646494349454e545f4c60448201527f495155494449545900000000000000000000000000000000000000000000000060648201526084016106a0565b6000614182856103e561585a565b90506000614190828561585a565b905060006141aa836141a4886103e861585a565b906158e4565b90506141b68183616182565b979650505050505050565b606060028251101561422f576040517f08c379a000000000000000000000000000000000000000000000000000000000815260206004820152601e60248201527f556e697377617056324c6962726172793a20494e56414c49445f50415448000060448201526064016106a0565b815167ffffffffffffffff811115614270577f4e487b7100000000000000000000000000000000000000000000000000000000600052604160045260246000fd5b604051908082528060200260200182016040528015614299578160200160208202803683370190505b50905082816000815181106142d7577f4e487b7100000000000000000000000000000000000000000000000000000000600052603260045260246000fd5b60200260200101818152505060005b600183516142f491906161f8565b811015614448576000806143958786858151811061433b577f4e487b7100000000000000000000000000000000000000000000000000000000600052603260045260246000fd5b602002602001015187866001614351919061616a565b81518110614388577f4e487b7100000000000000000000000000000000000000000000000000000000600052603260045260246000fd5b602002602001015161595c565b915091506143e48484815181106143d5577f4e487b7100000000000000000000000000000000000000000000000000000000600052603260045260246000fd5b60200260200101518383614047565b846143f085600161616a565b81518110614427577f4e487b7100000000000000000000000000000000000000000000000000000000600052603260045260246000fd5b6020026020010181815250505050808061444090616270565b9150506142e6565b509392505050565b600080600061445f8585615332565b6040517fffffffffffffffffffffffffffffffffffffffff000000000000000000000000606084811b8216602084015283901b16603482015291935091508690604801604051602081830303815290604052805190602001206040516020016145459291907fff00000000000000000000000000000000000000000000000000000000000000815260609290921b7fffffffffffffffffffffffffffffffffffffffff00000000000000000000000016600183015260158201527fe18a34eb0e04b04f7a0ac29a6e80748dca96319b42c54d679cb821dca90c6303603582015260550190565b604080517fffffffffffffffffffffffffffffffffffffffffffffffffffffffffffffffe081840301815291905280516020909101209695505050505050565b6040805173ffffffffffffffffffffffffffffffffffffffff85811660248301528481166044830152606480830185905283518084039091018152608490920183526020820180517bffffffffffffffffffffffffffffffffffffffffffffffffffffffff167f23b872dd000000000000000000000000000000000000000000000000000000001790529151600092839290881691614624919061608e565b6000604051808303816000865af19150503d8060008114614661576040519150601f19603f3d011682016040523d82523d6000602084013e614666565b606091505b50915091508180156146905750805115806146905750808060200190518101906146909190615df7565b61471b576040517f08c379a0000000000000000000000000000000000000000000000000000000008152602060048201526024808201527f5472616e7366657248656c7065723a205452414e534645525f46524f4d5f464160448201527f494c45440000000000000000000000000000000000000000000000000000000060648201526084016106a0565b505050505050565b60005b6001835161473491906161f8565b8110156149e857600080848381518110614777577f4e487b7100000000000000000000000000000000000000000000000000000000600052603260045260246000fd5b60200260200101518584600161478d919061616a565b815181106147c4577f4e487b7100000000000000000000000000000000000000000000000000000000600052603260045260246000fd5b60200260200101519150915060006147dc8383615332565b5090506000876147ed86600161616a565b81518110614824577f4e487b7100000000000000000000000000000000000000000000000000000000600052603260045260246000fd5b602002602001015190506000808373ffffffffffffffffffffffffffffffffffffffff168673ffffffffffffffffffffffffffffffffffffffff161461486c57826000614870565b6000835b91509150600060028a5161488491906161f8565b88106148905788614905565b6149057f0000000000000000000000000000000000000000000000000000000000000000878c6148c18c600261616a565b815181106148f8577f4e487b7100000000000000000000000000000000000000000000000000000000600052603260045260246000fd5b6020026020010151614450565b90506149327f00000000000000000000000000000000000000000000000000000000000000008888614450565b73ffffffffffffffffffffffffffffffffffffffff1663022c0d9f84848460006040519080825280601f01601f19166020018201604052801561497c576020820181803683370190505b506040518563ffffffff1660e01b815260040161499c94939291906160ee565b600060405180830381600087803b1580156149b657600080fd5b505af11580156149ca573d6000803e3d6000fd5b505050505050505050505080806149e090616270565b915050614726565b50505050565b6060600282511015614a5c576040517f08c379a000000000000000000000000000000000000000000000000000000000815260206004820152601e60248201527f556e697377617056324c6962726172793a20494e56414c49445f50415448000060448201526064016106a0565b815167ffffffffffffffff811115614a9d577f4e487b7100000000000000000000000000000000000000000000000000000000600052604160045260246000fd5b604051908082528060200260200182016040528015614ac6578160200160208202803683370190505b509050828160018351614ad991906161f8565b81518110614b10577f4e487b7100000000000000000000000000000000000000000000000000000000600052603260045260246000fd5b602002602001018181525050600060018351614b2c91906161f8565b90505b801561444857600080614bc08786614b486001876161f8565b81518110614b7f577f4e487b7100000000000000000000000000000000000000000000000000000000600052603260045260246000fd5b6020026020010151878681518110614388577f4e487b7100000000000000000000000000000000000000000000000000000000600052603260045260246000fd5b91509150614c0f848481518110614c00577f4e487b7100000000000000000000000000000000000000000000000000000000600052603260045260246000fd5b6020026020010151838361507c565b84614c1b6001866161f8565b81518110614c52577f4e487b7100000000000000000000000000000000000000000000000000000000600052603260045260246000fd5b60200260200101818152505050508080614c6b9061623b565b915050614b2f565b60005b60018351614c8491906161f8565b81101561404257600080848381518110614cc7577f4e487b7100000000000000000000000000000000000000000000000000000000600052603260045260246000fd5b602002602001015185846001614cdd919061616a565b81518110614d14577f4e487b7100000000000000000000000000000000000000000000000000000000600052603260045260246000fd5b6020026020010151915091506000614d2c8383615332565b5090506000614d5c7f00000000000000000000000000000000000000000000000000000000000000008585614450565b90506000806000808473ffffffffffffffffffffffffffffffffffffffff16630902f1ac6040518163ffffffff1660e01b815260040160606040518083038186803b158015614daa57600080fd5b505afa158015614dbe573d6000803e3d6000fd5b505050506040513d601f19601f82011682018060405250810190614de29190615e13565b506dffffffffffffffffffffffffffff1691506dffffffffffffffffffffffffffff1691506000808773ffffffffffffffffffffffffffffffffffffffff168a73ffffffffffffffffffffffffffffffffffffffff1614614e44578284614e47565b83835b6040517f70a0823100000000000000000000000000000000000000000000000000000000815273ffffffffffffffffffffffffffffffffffffffff8a81166004830152929450909250614ea8918491908d16906370a0823190602401611828565b9550614eb5868383614047565b9450505050506000808573ffffffffffffffffffffffffffffffffffffffff168873ffffffffffffffffffffffffffffffffffffffff1614614ef957826000614efd565b6000835b91509150600060028c51614f1191906161f8565b8a10614f1d578a614f4e565b614f4e7f0000000000000000000000000000000000000000000000000000000000000000898e6148c18e600261616a565b604080516000815260208101918290527f022c0d9f0000000000000000000000000000000000000000000000000000000090915290915073ffffffffffffffffffffffffffffffffffffffff87169063022c0d9f90614fb690869086908690602481016160ee565b600060405180830381600087803b158015614fd057600080fd5b505af1158015614fe4573d6000803e3d6000fd5b505050505050505050505050508080614ffc90616270565b915050614c76565b60008261501183826161f8565b9150811115610d75576040517f08c379a000000000000000000000000000000000000000000000000000000000815260206004820152601560248201527f64732d6d6174682d7375622d756e646572666c6f77000000000000000000000060448201526064016106a0565b600080841161510d576040517f08c379a000000000000000000000000000000000000000000000000000000000815260206004820152602c60248201527f556e697377617056324c6962726172793a20494e53554646494349454e545f4f60448201527f55545055545f414d4f554e54000000000000000000000000000000000000000060648201526084016106a0565b60008311801561511d5750600082115b6151a9576040517f08c379a000000000000000000000000000000000000000000000000000000000815260206004820152602860248201527f556e697377617056324c6962726172793a20494e53554646494349454e545f4c60448201527f495155494449545900000000000000000000000000000000000000000000000060648201526084016106a0565b60006151c16103e86151bb868861585a565b9061585a565b905060006151d56103e56151bb8689615004565b90506151e660016141a48385616182565b9695505050505050565b6000808411615281576040517f08c379a000000000000000000000000000000000000000000000000000000000815260206004820152602560248201527f556e697377617056324c6962726172793a20494e53554646494349454e545f4160448201527f4d4f554e5400000000000000000000000000000000000000000000000000000060648201526084016106a0565b6000831180156152915750600082115b61531d576040517f08c379a000000000000000000000000000000000000000000000000000000000815260206004820152602860248201527f556e697377617056324c6962726172793a20494e53554646494349454e545f4c60448201527f495155494449545900000000000000000000000000000000000000000000000060648201526084016106a0565b82615328858461585a565b6107ab9190616182565b6000808273ffffffffffffffffffffffffffffffffffffffff168473ffffffffffffffffffffffffffffffffffffffff1614156153f1576040517f08c379a000000000000000000000000000000000000000000000000000000000815260206004820152602560248201527f556e697377617056324c6962726172793a204944454e544943414c5f4144445260448201527f455353455300000000000000000000000000000000000000000000000000000060648201526084016106a0565b8273ffffffffffffffffffffffffffffffffffffffff168473ffffffffffffffffffffffffffffffffffffffff161061542b57828461542e565b83835b909250905073ffffffffffffffffffffffffffffffffffffffff82166154b0576040517f08c379a000000000000000000000000000000000000000000000000000000000815260206004820152601e60248201527f556e697377617056324c6962726172793a205a45524f5f41444452455353000060448201526064016106a0565b9250929050565b6040517fe6a4390500000000000000000000000000000000000000000000000000000000815273ffffffffffffffffffffffffffffffffffffffff87811660048301528681166024830152600091829182917f00000000000000000000000000000000000000000000000000000000000000009091169063e6a439059060440160206040518083038186803b15801561554f57600080fd5b505afa158015615563573d6000803e3d6000fd5b505050506040513d601f19601f820116820180604052508101906155879190615b0f565b73ffffffffffffffffffffffffffffffffffffffff16141561566e576040517fc9c6539600000000000000000000000000000000000000000000000000000000815273ffffffffffffffffffffffffffffffffffffffff898116600483015288811660248301527f0000000000000000000000000000000000000000000000000000000000000000169063c9c6539690604401602060405180830381600087803b15801561563457600080fd5b505af1158015615648573d6000803e3d6000fd5b505050506040513d601f19601f8201168201806040525081019061566c9190615b0f565b505b60008061569c7f00000000000000000000000000000000000000000000000000000000000000008b8b61595c565b915091508160001480156156ae575080155b156156be5787935086925061584d565b60006156cb8984846151f0565b905087811161576f5785811015615764576040517f08c379a000000000000000000000000000000000000000000000000000000000815260206004820152602660248201527f556e69737761705632526f757465723a20494e53554646494349454e545f425f60448201527f414d4f554e54000000000000000000000000000000000000000000000000000060648201526084016106a0565b88945092508261584b565b600061577c8984866151f0565b9050898111156157b5577f4e487b7100000000000000000000000000000000000000000000000000000000600052600160045260246000fd5b87811015615845576040517f08c379a000000000000000000000000000000000000000000000000000000000815260206004820152602660248201527f556e69737761705632526f757465723a20494e53554646494349454e545f415f60448201527f414d4f554e54000000000000000000000000000000000000000000000000000060648201526084016106a0565b94508793505b505b5050965096945050505050565b600081158061587e5750828261587081836161bb565b925061587c9083616182565b145b610d75576040517f08c379a000000000000000000000000000000000000000000000000000000000815260206004820152601460248201527f64732d6d6174682d6d756c2d6f766572666c6f7700000000000000000000000060448201526064016106a0565b6000826158f1838261616a565b9150811015610d75576040517f08c379a000000000000000000000000000000000000000000000000000000000815260206004820152601460248201527f64732d6d6174682d6164642d6f766572666c6f7700000000000000000000000060448201526064016106a0565b600080600061596b8585615332565b50905060008061597c888888614450565b73ffffffffffffffffffffffffffffffffffffffff16630902f1ac6040518163ffffffff1660e01b815260040160606040518083038186803b1580156159c157600080fd5b505afa1580156159d5573d6000803e3d6000fd5b505050506040513d601f19601f820116820180604052508101906159f99190615e13565b506dffffffffffffffffffffffffffff1691506dffffffffffffffffffffffffffff1691508273ffffffffffffffffffffffffffffffffffffffff168773ffffffffffffffffffffffffffffffffffffffff1614615a58578082615a5b565b81815b90999098509650505050505050565b8035615a7581616307565b919050565b60008083601f840112615a8b578081fd5b50813567ffffffffffffffff811115615aa2578182fd5b6020830191508360208260051b85010111156154b057600080fd5b80516dffffffffffffffffffffffffffff81168114615a7557600080fd5b803560ff81168114615a7557600080fd5b600060208284031215615afd578081fd5b8135615b0881616307565b9392505050565b600060208284031215615b20578081fd5b8151615b0881616307565b60008060008060808587031215615b40578283fd5b8435615b4b81616307565b93506020850135615b5b81616307565b93969395505050506040820135916060013590565b600080600080600080600060e0888a031215615b8a578283fd5b8735615b9581616307565b96506020880135615ba581616307565b955060408801359450606088013593506080880135925060a0880135615bca81616307565b8092505060c0880135905092959891949750929550565b60008060008060008060008060008060006101608c8e031215615c02578384fd5b8b35615c0d81616307565b9a5060208c0135615c1d81616307565b995060408c0135985060608c0135975060808c0135965060a08c0135615c4281616307565b955060c08c0135945060e08c0135615c598161632c565b9350615c686101008d01615adb565b92506101208c013591506101408c013590509295989b509295989b9093969950565b600080600080600080600080610100898b031215615ca6578384fd5b8835615cb181616307565b97506020890135615cc181616307565b965060408901359550606089013594506080890135935060a0890135925060c0890135615ced81616307565b8092505060e089013590509295985092959890939650565b60008060008060008060c08789031215615d1d578384fd5b8635615d2881616307565b95506020870135945060408701359350606087013592506080870135615d4d81616307565b8092505060a087013590509295509295509295565b6000806000806000806000806000806101408b8d031215615d81578384fd5b8a35615d8c81616307565b995060208b0135985060408b0135975060608b0135965060808b0135615db181616307565b955060a08b0135945060c08b0135615dc88161632c565b9350615dd660e08c01615adb565b92506101008b013591506101208b013590509295989b9194979a5092959850565b600060208284031215615e08578081fd5b8151615b088161632c565b600080600060608486031215615e27578081fd5b615e3084615abd565b9250615e3e60208501615abd565b9150604084015163ffffffff81168114615e56578182fd5b809150509250925092565b600060208284031215615e72578081fd5b5051919050565b600080600080600060808688031215615e90578283fd5b85359450602086013567ffffffffffffffff811115615ead578384fd5b615eb988828901615a7a565b9095509350506040860135615ecd81616307565b949793965091946060013592915050565b60008060408385031215615ef0578182fd5b8235915060208084013567ffffffffffffffff80821115615f0f578384fd5b818601915086601f830112615f22578384fd5b813581811115615f3457615f346162d8565b8060051b6040517fffffffffffffffffffffffffffffffffffffffffffffffffffffffffffffffe0603f83011681018181108582111715615f7757615f776162d8565b604052828152858101935084860182860187018b1015615f95578788fd5b8795505b83861015615fbe57615faa81615a6a565b855260019590950194938601938601615f99565b508096505050505050509250929050565b60008060408385031215615fe1578182fd5b505080516020909101519092909150565b60008060008060008060a0878903121561600a578384fd5b8635955060208701359450604087013567ffffffffffffffff81111561602e578485fd5b61603a89828a01615a7a565b909550935050606087013561604e81616307565b80925050608087013590509295509295509295565b600080600060608486031215616077578081fd5b505081359360208301359350604090920135919050565b600082516160a081846020870161620f565b9190910192915050565b6020808252825182820181905260009190848201906040850190845b818110156160e2578351835292840192918401916001016160c6565b50909695505050505050565b84815283602082015273ffffffffffffffffffffffffffffffffffffffff8316604082015260806060820152600082518060808401526161358160a085016020870161620f565b601f017fffffffffffffffffffffffffffffffffffffffffffffffffffffffffffffffe0169190910160a00195945050505050565b6000821982111561617d5761617d6162a9565b500190565b6000826161b6577f4e487b710000000000000000000000000000000000000000000000000000000081526012600452602481fd5b500490565b6000817fffffffffffffffffffffffffffffffffffffffffffffffffffffffffffffffff04831182151516156161f3576161f36162a9565b500290565b60008282101561620a5761620a6162a9565b500390565b60005b8381101561622a578181015183820152602001616212565b838111156149e85750506000910152565b60008161624a5761624a6162a9565b507fffffffffffffffffffffffffffffffffffffffffffffffffffffffffffffffff0190565b60007fffffffffffffffffffffffffffffffffffffffffffffffffffffffffffffffff8214156162a2576162a26162a9565b5060010190565b7f4e487b7100000000000000000000000000000000000000000000000000000000600052601160045260246000fd5b7f4e487b7100000000000000000000000000000000000000000000000000000000600052604160045260246000fd5b73ffffffffffffffffffffffffffffffffffffffff8116811461632957600080fd5b50565b801515811461632957600080fdfea264697066735822122028c4c8513a5f468f78a8a22cf6e83eb3a8368a189cfabdffad65f5de2995c4c964736f6c63430008040033",
  "linkReferences": {},
  "deployedLinkReferences": {}
}