{
  "_format": "hh-sol-artifact-1",
  "contractName": "WETHSTNDLPTokenSharePool",
  "sourceName": "contracts/pools/LPRewardPool.sol",
  "abi": [
    {
      "inputs": [
        {
          "internalType": "address",
          "name": "stnd_",
          "type": "address"
        },
        {
          "internalType": "address",
          "name": "lptoken_",
          "type": "address"
        },
        {
          "internalType": "uint256",
          "name": "starttime_",
          "type": "uint256"
        }
      ],
      "stateMutability": "nonpayable",
      "type": "constructor"
    },
    {
      "anonymous": false,
      "inputs": [
        {
          "indexed": true,
          "internalType": "address",
          "name": "previousOwner",
          "type": "address"
        },
        {
          "indexed": true,
          "internalType": "address",
          "name": "newOwner",
          "type": "address"
        }
      ],
      "name": "OwnershipTransferred",
      "type": "event"
    },
    {
      "anonymous": false,
      "inputs": [
        {
          "indexed": false,
          "internalType": "uint256",
          "name": "reward",
          "type": "uint256"
        }
      ],
      "name": "RewardAdded",
      "type": "event"
    },
    {
      "anonymous": false,
      "inputs": [
        {
          "indexed": true,
          "internalType": "address",
          "name": "user",
          "type": "address"
        },
        {
          "indexed": false,
          "internalType": "uint256",
          "name": "reward",
          "type": "uint256"
        }
      ],
      "name": "RewardPaid",
      "type": "event"
    },
    {
      "anonymous": false,
      "inputs": [
        {
          "indexed": true,
          "internalType": "address",
          "name": "user",
          "type": "address"
        },
        {
          "indexed": false,
          "internalType": "uint256",
          "name": "amount",
          "type": "uint256"
        }
      ],
      "name": "Staked",
      "type": "event"
    },
    {
      "anonymous": false,
      "inputs": [
        {
          "indexed": true,
          "internalType": "address",
          "name": "user",
          "type": "address"
        },
        {
          "indexed": false,
          "internalType": "uint256",
          "name": "amount",
          "type": "uint256"
        }
      ],
      "name": "Withdrawn",
      "type": "event"
    },
    {
      "inputs": [],
      "name": "DURATION",
      "outputs": [
        {
          "internalType": "uint256",
          "name": "",
          "type": "uint256"
        }
      ],
      "stateMutability": "view",
      "type": "function"
    },
    {
      "inputs": [
        {
          "internalType": "address",
          "name": "account",
          "type": "address"
        }
      ],
      "name": "balanceOf",
      "outputs": [
        {
          "internalType": "uint256",
          "name": "",
          "type": "uint256"
        }
      ],
      "stateMutability": "view",
      "type": "function"
    },
    {
      "inputs": [
        {
          "internalType": "address",
          "name": "account",
          "type": "address"
        }
      ],
      "name": "earned",
      "outputs": [
        {
          "internalType": "uint256",
          "name": "",
          "type": "uint256"
        }
      ],
      "stateMutability": "view",
      "type": "function"
    },
    {
      "inputs": [],
      "name": "exit",
      "outputs": [],
      "stateMutability": "nonpayable",
      "type": "function"
    },
    {
      "inputs": [],
      "name": "getReward",
      "outputs": [],
      "stateMutability": "nonpayable",
      "type": "function"
    },
    {
      "inputs": [],
      "name": "initreward",
      "outputs": [
        {
          "internalType": "uint256",
          "name": "",
          "type": "uint256"
        }
      ],
      "stateMutability": "view",
      "type": "function"
    },
    {
      "inputs": [],
      "name": "lastTimeRewardApplicable",
      "outputs": [
        {
          "internalType": "uint256",
          "name": "",
          "type": "uint256"
        }
      ],
      "stateMutability": "view",
      "type": "function"
    },
    {
      "inputs": [],
      "name": "lastUpdateTime",
      "outputs": [
        {
          "internalType": "uint256",
          "name": "",
          "type": "uint256"
        }
      ],
      "stateMutability": "view",
      "type": "function"
    },
    {
      "inputs": [],
      "name": "lpt",
      "outputs": [
        {
          "internalType": "contract IERC20",
          "name": "",
          "type": "address"
        }
      ],
      "stateMutability": "view",
      "type": "function"
    },
    {
      "inputs": [
        {
          "internalType": "uint256",
          "name": "reward",
          "type": "uint256"
        }
      ],
      "name": "notifyRewardAmount",
      "outputs": [],
      "stateMutability": "nonpayable",
      "type": "function"
    },
    {
      "inputs": [],
      "name": "owner",
      "outputs": [
        {
          "internalType": "address",
          "name": "",
          "type": "address"
        }
      ],
      "stateMutability": "view",
      "type": "function"
    },
    {
      "inputs": [],
      "name": "periodFinish",
      "outputs": [
        {
          "internalType": "uint256",
          "name": "",
          "type": "uint256"
        }
      ],
      "stateMutability": "view",
      "type": "function"
    },
    {
      "inputs": [],
      "name": "renounceOwnership",
      "outputs": [],
      "stateMutability": "nonpayable",
      "type": "function"
    },
    {
      "inputs": [],
      "name": "rewardDistribution",
      "outputs": [
        {
          "internalType": "address",
          "name": "",
          "type": "address"
        }
      ],
      "stateMutability": "view",
      "type": "function"
    },
    {
      "inputs": [],
      "name": "rewardPerToken",
      "outputs": [
        {
          "internalType": "uint256",
          "name": "",
          "type": "uint256"
        }
      ],
      "stateMutability": "view",
      "type": "function"
    },
    {
      "inputs": [],
      "name": "rewardPerTokenStored",
      "outputs": [
        {
          "internalType": "uint256",
          "name": "",
          "type": "uint256"
        }
      ],
      "stateMutability": "view",
      "type": "function"
    },
    {
      "inputs": [],
      "name": "rewardRate",
      "outputs": [
        {
          "internalType": "uint256",
          "name": "",
          "type": "uint256"
        }
      ],
      "stateMutability": "view",
      "type": "function"
    },
    {
      "inputs": [
        {
          "internalType": "address",
          "name": "",
          "type": "address"
        }
      ],
      "name": "rewards",
      "outputs": [
        {
          "internalType": "uint256",
          "name": "",
          "type": "uint256"
        }
      ],
      "stateMutability": "view",
      "type": "function"
    },
    {
      "inputs": [
        {
          "internalType": "address",
          "name": "_rewardDistribution",
          "type": "address"
        }
      ],
      "name": "setRewardDistribution",
      "outputs": [],
      "stateMutability": "nonpayable",
      "type": "function"
    },
    {
      "inputs": [
        {
          "internalType": "uint256",
          "name": "amount",
          "type": "uint256"
        }
      ],
      "name": "stake",
      "outputs": [],
      "stateMutability": "nonpayable",
      "type": "function"
    },
    {
      "inputs": [],
      "name": "starttime",
      "outputs": [
        {
          "internalType": "uint256",
          "name": "",
          "type": "uint256"
        }
      ],
      "stateMutability": "view",
      "type": "function"
    },
    {
      "inputs": [],
      "name": "stnd",
      "outputs": [
        {
          "internalType": "contract IERC20",
          "name": "",
          "type": "address"
        }
      ],
      "stateMutability": "view",
      "type": "function"
    },
    {
      "inputs": [],
      "name": "totalSupply",
      "outputs": [
        {
          "internalType": "uint256",
          "name": "",
          "type": "uint256"
        }
      ],
      "stateMutability": "view",
      "type": "function"
    },
    {
      "inputs": [
        {
          "internalType": "address",
          "name": "newOwner",
          "type": "address"
        }
      ],
      "name": "transferOwnership",
      "outputs": [],
      "stateMutability": "nonpayable",
      "type": "function"
    },
    {
      "inputs": [
        {
          "internalType": "address",
          "name": "",
          "type": "address"
        }
      ],
      "name": "userRewardPerTokenPaid",
      "outputs": [
        {
          "internalType": "uint256",
          "name": "",
          "type": "uint256"
        }
      ],
      "stateMutability": "view",
      "type": "function"
    },
    {
      "inputs": [
        {
          "internalType": "uint256",
          "name": "amount",
          "type": "uint256"
        }
      ],
      "name": "withdraw",
      "outputs": [],
      "stateMutability": "nonpayable",
      "type": "function"
    }
  ],
  "bytecode": "0x6080604052692722067e34e6ecbb0000600655600060085560006009553480156200002957600080fd5b50604051620018e0380380620018e08339810160408190526200004c91620000e5565b600380546001600160a01b0319163390811790915560405181906000907f8be0079c531659141344cd1fd0a4f28419497f9722a3daafe3b4186f6b6457e0908290a350600580546001600160a01b039485166001600160a01b031991821617909155600080549390941692169190911790915560075562000125565b80516001600160a01b0381168114620000e057600080fd5b919050565b600080600060608486031215620000fa578283fd5b6200010584620000c8565b92506200011560208501620000c8565b9150604084015190509250925092565b6117ab80620001356000396000f3fe608060405234801561001057600080fd5b50600436106101ad5760003560e01c80638b876347116100ee578063c8f33c9111610097578063df136d6511610071578063df136d6514610395578063e9fad8ee1461039e578063ebe2b12b146103a6578063f2fde38b146103af57600080fd5b8063c8f33c9114610364578063cd3daf9d1461036d578063ce5fc8d01461037557600080fd5b806396735aa0116100c857806396735aa0146103285780639c907b5814610348578063a694fc3a1461035157600080fd5b80638b876347146102e15780638da58897146103015780638da5cb5b1461030a57600080fd5b80632e1a7d4d1161015b57806370a082311161013557806370a0823114610292578063715018a6146102c85780637b0a47ee146102d057806380faa57d146102d957600080fd5b80632e1a7d4d146102645780633c6b16ab146102775780633d18b9121461028a57600080fd5b8063101114cf1161018c578063101114cf1461020d57806318160ddd146102525780631be052891461025a57600080fd5b80628cc262146101b25780630700037d146101d85780630d68b761146101f8575b600080fd5b6101c56101c036600461159c565b6103c2565b6040519081526020015b60405180910390f35b6101c56101e636600461159c565b600d6020526000908152604090205481565b61020b61020636600461159c565b61045b565b005b60045461022d9073ffffffffffffffffffffffffffffffffffffffff1681565b60405173ffffffffffffffffffffffffffffffffffffffff90911681526020016101cf565b6001546101c5565b6101c562278d0081565b61020b6102723660046115f0565b610528565b61020b6102853660046115f0565b610736565b61020b61094c565b6101c56102a036600461159c565b73ffffffffffffffffffffffffffffffffffffffff1660009081526002602052604090205490565b61020b610b28565b6101c560095481565b6101c5610c18565b6101c56102ef36600461159c565b600c6020526000908152604090205481565b6101c560075481565b60035473ffffffffffffffffffffffffffffffffffffffff1661022d565b60055461022d9073ffffffffffffffffffffffffffffffffffffffff1681565b6101c560065481565b61020b61035f3660046115f0565b610c2b565b6101c5600a5481565b6101c5610e31565b60005461022d9073ffffffffffffffffffffffffffffffffffffffff1681565b6101c5600b5481565b61020b610e7f565b6101c560085481565b61020b6103bd36600461159c565b610ea2565b73ffffffffffffffffffffffffffffffffffffffff81166000908152600d6020908152604080832054600c909252822054610455919061044f90670de0b6b3a7640000906104499061041c90610416610e31565b90611054565b73ffffffffffffffffffffffffffffffffffffffff88166000908152600260205260409020545b90611067565b90611073565b9061107f565b92915050565b60035473ffffffffffffffffffffffffffffffffffffffff1633146104e1576040517f08c379a000000000000000000000000000000000000000000000000000000000815260206004820181905260248201527f4f776e61626c653a2063616c6c6572206973206e6f7420746865206f776e657260448201526064015b60405180910390fd5b600480547fffffffffffffffffffffffff00000000000000000000000000000000000000001673ffffffffffffffffffffffffffffffffffffffff92909216919091179055565b33610531610e31565b600b5561053c610c18565b600a5573ffffffffffffffffffffffffffffffffffffffff81161561059d57610564816103c2565b73ffffffffffffffffffffffffffffffffffffffff82166000908152600d6020908152604080832093909355600b54600c909152919020555b600854421061061d576105c16064610449604b60065461106790919063ffffffff16565b60068190556105d39062278d00611073565b6009556105e34262278d0061107f565b6008556006546040519081527fde88a922e0d3b88b24e9623efeb464919c6bf9f66857a65e2bfcf2ce87a9433d9060200160405180910390a15b600754421015610689576040517f08c379a000000000000000000000000000000000000000000000000000000000815260206004820152600960248201527f6e6f74207374617274000000000000000000000000000000000000000000000060448201526064016104d8565b600082116106f3576040517f08c379a000000000000000000000000000000000000000000000000000000000815260206004820152601160248201527f43616e6e6f74207769746864726177203000000000000000000000000000000060448201526064016104d8565b6106fc8261108b565b60405182815233907f7084f5476618d8e60b11ef0d7d3f06914655adb8793e28ff7f018d4c76d505d5906020015b60405180910390a25050565b60045473ffffffffffffffffffffffffffffffffffffffff163373ffffffffffffffffffffffffffffffffffffffff16146107f3576040517f08c379a000000000000000000000000000000000000000000000000000000000815260206004820152602160248201527f43616c6c6572206973206e6f742072657761726420646973747269627574696f60448201527f6e0000000000000000000000000000000000000000000000000000000000000060648201526084016104d8565b60006107fd610e31565b600b55610808610c18565b600a5573ffffffffffffffffffffffffffffffffffffffff81161561086957610830816103c2565b73ffffffffffffffffffffffffffffffffffffffff82166000908152600d6020908152604080832093909355600b54600c909152919020555b600754421115610920576008544210610891576108898262278d00611073565b6009556108d3565b6008546000906108a19042611054565b905060006108ba6009548361106790919063ffffffff16565b90506108cd62278d00610449868461107f565b60095550505b42600a8190556108e69062278d0061107f565b6008556040518281527fde88a922e0d3b88b24e9623efeb464919c6bf9f66857a65e2bfcf2ce87a9433d9060200160405180910390a15050565b6006546109309062278d00611073565b600955600754600a8190556108e69062278d0061107f565b5050565b33610955610e31565b600b55610960610c18565b600a5573ffffffffffffffffffffffffffffffffffffffff8116156109c157610988816103c2565b73ffffffffffffffffffffffffffffffffffffffff82166000908152600d6020908152604080832093909355600b54600c909152919020555b6008544210610a41576109e56064610449604b60065461106790919063ffffffff16565b60068190556109f79062278d00611073565b600955610a074262278d0061107f565b6008556006546040519081527fde88a922e0d3b88b24e9623efeb464919c6bf9f66857a65e2bfcf2ce87a9433d9060200160405180910390a15b600754421015610aad576040517f08c379a000000000000000000000000000000000000000000000000000000000815260206004820152600960248201527f6e6f74207374617274000000000000000000000000000000000000000000000060448201526064016104d8565b6000610ab8336103c2565b9050801561094857336000818152600d6020526040812055600554610af69173ffffffffffffffffffffffffffffffffffffffff90911690836110f0565b60405181815233907fe2403640ba68fed3a2f88b7557551d1993f84b99bb10ff833f0cf8db0c5e04869060200161072a565b60035473ffffffffffffffffffffffffffffffffffffffff163314610ba9576040517f08c379a000000000000000000000000000000000000000000000000000000000815260206004820181905260248201527f4f776e61626c653a2063616c6c6572206973206e6f7420746865206f776e657260448201526064016104d8565b60035460405160009173ffffffffffffffffffffffffffffffffffffffff16907f8be0079c531659141344cd1fd0a4f28419497f9722a3daafe3b4186f6b6457e0908390a3600380547fffffffffffffffffffffffff0000000000000000000000000000000000000000169055565b6000610c26426008546111c9565b905090565b33610c34610e31565b600b55610c3f610c18565b600a5573ffffffffffffffffffffffffffffffffffffffff811615610ca057610c67816103c2565b73ffffffffffffffffffffffffffffffffffffffff82166000908152600d6020908152604080832093909355600b54600c909152919020555b6008544210610d2057610cc46064610449604b60065461106790919063ffffffff16565b6006819055610cd69062278d00611073565b600955610ce64262278d0061107f565b6008556006546040519081527fde88a922e0d3b88b24e9623efeb464919c6bf9f66857a65e2bfcf2ce87a9433d9060200160405180910390a15b600754421015610d8c576040517f08c379a000000000000000000000000000000000000000000000000000000000815260206004820152600960248201527f6e6f74207374617274000000000000000000000000000000000000000000000060448201526064016104d8565b60008211610df6576040517f08c379a000000000000000000000000000000000000000000000000000000000815260206004820152600e60248201527f43616e6e6f74207374616b65203000000000000000000000000000000000000060448201526064016104d8565b610dff826111df565b60405182815233907f9e71bc8eea02a63969f509818f2dafb9254532904319f9dbda79b67bd34a5f3d9060200161072a565b6000610e3c60015490565b610e475750600b5490565b610c26610e76610e5660015490565b610449670de0b6b3a7640000610443600954610443600a54610416610c18565b600b549061107f565b33600090815260026020526040902054610e9890610528565b610ea061094c565b565b60035473ffffffffffffffffffffffffffffffffffffffff163314610f23576040517f08c379a000000000000000000000000000000000000000000000000000000000815260206004820181905260248201527f4f776e61626c653a2063616c6c6572206973206e6f7420746865206f776e657260448201526064016104d8565b73ffffffffffffffffffffffffffffffffffffffff8116610fc6576040517f08c379a000000000000000000000000000000000000000000000000000000000815260206004820152602660248201527f4f776e61626c653a206e6577206f776e657220697320746865207a65726f206160448201527f646472657373000000000000000000000000000000000000000000000000000060648201526084016104d8565b60035460405173ffffffffffffffffffffffffffffffffffffffff8084169216907f8be0079c531659141344cd1fd0a4f28419497f9722a3daafe3b4186f6b6457e090600090a3600380547fffffffffffffffffffffffff00000000000000000000000000000000000000001673ffffffffffffffffffffffffffffffffffffffff92909216919091179055565b60006110608284611703565b9392505050565b600061106082846116c6565b6000611060828461168d565b60006110608284611675565b6001546110989082611054565b600155336000908152600260205260409020546110b59082611054565b3360008181526002602052604081209290925590546110ed9173ffffffffffffffffffffffffffffffffffffffff90911690836110f0565b50565b60405173ffffffffffffffffffffffffffffffffffffffff83166024820152604481018290526111c49084907fa9059cbb00000000000000000000000000000000000000000000000000000000906064015b604080517fffffffffffffffffffffffffffffffffffffffffffffffffffffffffffffffe08184030181529190526020810180517bffffffffffffffffffffffffffffffffffffffffffffffffffffffff167fffffffff0000000000000000000000000000000000000000000000000000000090931692909217909152611242565b505050565b60008183106111d85781611060565b5090919050565b6001546111ec908261107f565b60015533600090815260026020526040902054611209908261107f565b3360008181526002602052604081209290925590546110ed9173ffffffffffffffffffffffffffffffffffffffff90911690308461134e565b60006112a4826040518060400160405280602081526020017f5361666545524332303a206c6f772d6c6576656c2063616c6c206661696c65648152508573ffffffffffffffffffffffffffffffffffffffff166113b29092919063ffffffff16565b8051909150156111c457808060200190518101906112c291906115d0565b6111c4576040517f08c379a000000000000000000000000000000000000000000000000000000000815260206004820152602a60248201527f5361666545524332303a204552433230206f7065726174696f6e20646964206e60448201527f6f7420737563636565640000000000000000000000000000000000000000000060648201526084016104d8565b60405173ffffffffffffffffffffffffffffffffffffffff808516602483015283166044820152606481018290526113ac9085907f23b872dd0000000000000000000000000000000000000000000000000000000090608401611142565b50505050565b60606113c184846000856113c9565b949350505050565b60608247101561145b576040517f08c379a000000000000000000000000000000000000000000000000000000000815260206004820152602660248201527f416464726573733a20696e73756666696369656e742062616c616e636520666f60448201527f722063616c6c000000000000000000000000000000000000000000000000000060648201526084016104d8565b843b6114c3576040517f08c379a000000000000000000000000000000000000000000000000000000000815260206004820152601d60248201527f416464726573733a2063616c6c20746f206e6f6e2d636f6e747261637400000060448201526064016104d8565b6000808673ffffffffffffffffffffffffffffffffffffffff1685876040516114ec9190611608565b60006040518083038185875af1925050503d8060008114611529576040519150601f19603f3d011682016040523d82523d6000602084013e61152e565b606091505b509150915061153e828286611549565b979650505050505050565b60608315611558575081611060565b8251156115685782518084602001fd5b816040517f08c379a00000000000000000000000000000000000000000000000000000000081526004016104d89190611624565b6000602082840312156115ad578081fd5b813573ffffffffffffffffffffffffffffffffffffffff81168114611060578182fd5b6000602082840312156115e1578081fd5b81518015158114611060578182fd5b600060208284031215611601578081fd5b5035919050565b6000825161161a81846020870161171a565b9190910192915050565b602081526000825180602084015261164381604085016020870161171a565b601f017fffffffffffffffffffffffffffffffffffffffffffffffffffffffffffffffe0169190910160400192915050565b6000821982111561168857611688611746565b500190565b6000826116c1577f4e487b710000000000000000000000000000000000000000000000000000000081526012600452602481fd5b500490565b6000817fffffffffffffffffffffffffffffffffffffffffffffffffffffffffffffffff04831182151516156116fe576116fe611746565b500290565b60008282101561171557611715611746565b500390565b60005b8381101561173557818101518382015260200161171d565b838111156113ac5750506000910152565b7f4e487b7100000000000000000000000000000000000000000000000000000000600052601160045260246000fdfea2646970667358221220f563ca0c26d97ef72cf26049178545d4759093fbc17cb551423a5f4547d87b8f64736f6c63430008040033",
  "linkReferences": {},
  "deployedLinkReferences": {}
}