{
  "_format": "hh-sol-artifact-1",
  "contractName": "WETHSTNDLPTokenSharePool",
  "sourceName": "contracts/pools/LPRewardPool.sol",
  "abi": [
    {
      "inputs": [
        {
          "internalType": "address",
          "name": "stnd_",
          "type": "address"
        },
        {
          "internalType": "address",
          "name": "lptoken_",
          "type": "address"
        },
        {
          "internalType": "uint256",
          "name": "starttime_",
          "type": "uint256"
        }
      ],
      "stateMutability": "nonpayable",
      "type": "constructor"
    },
    {
      "anonymous": false,
      "inputs": [
        {
          "indexed": true,
          "internalType": "address",
          "name": "previousOwner",
          "type": "address"
        },
        {
          "indexed": true,
          "internalType": "address",
          "name": "newOwner",
          "type": "address"
        }
      ],
      "name": "OwnershipTransferred",
      "type": "event"
    },
    {
      "anonymous": false,
      "inputs": [
        {
          "indexed": false,
          "internalType": "uint256",
          "name": "reward",
          "type": "uint256"
        }
      ],
      "name": "RewardAdded",
      "type": "event"
    },
    {
      "anonymous": false,
      "inputs": [
        {
          "indexed": true,
          "internalType": "address",
          "name": "user",
          "type": "address"
        },
        {
          "indexed": false,
          "internalType": "uint256",
          "name": "reward",
          "type": "uint256"
        }
      ],
      "name": "RewardPaid",
      "type": "event"
    },
    {
      "anonymous": false,
      "inputs": [
        {
          "indexed": true,
          "internalType": "address",
          "name": "user",
          "type": "address"
        },
        {
          "indexed": false,
          "internalType": "uint256",
          "name": "amount",
          "type": "uint256"
        }
      ],
      "name": "Staked",
      "type": "event"
    },
    {
      "anonymous": false,
      "inputs": [
        {
          "indexed": true,
          "internalType": "address",
          "name": "user",
          "type": "address"
        },
        {
          "indexed": false,
          "internalType": "uint256",
          "name": "amount",
          "type": "uint256"
        }
      ],
      "name": "Withdrawn",
      "type": "event"
    },
    {
      "inputs": [],
      "name": "DURATION",
      "outputs": [
        {
          "internalType": "uint256",
          "name": "",
          "type": "uint256"
        }
      ],
      "stateMutability": "view",
      "type": "function"
    },
    {
      "inputs": [
        {
          "internalType": "address",
          "name": "account",
          "type": "address"
        }
      ],
      "name": "balanceOf",
      "outputs": [
        {
          "internalType": "uint256",
          "name": "",
          "type": "uint256"
        }
      ],
      "stateMutability": "view",
      "type": "function"
    },
    {
      "inputs": [
        {
          "internalType": "address",
          "name": "account",
          "type": "address"
        }
      ],
      "name": "earned",
      "outputs": [
        {
          "internalType": "uint256",
          "name": "",
          "type": "uint256"
        }
      ],
      "stateMutability": "view",
      "type": "function"
    },
    {
      "inputs": [],
      "name": "exit",
      "outputs": [],
      "stateMutability": "nonpayable",
      "type": "function"
    },
    {
      "inputs": [],
      "name": "getReward",
      "outputs": [],
      "stateMutability": "nonpayable",
      "type": "function"
    },
    {
      "inputs": [],
      "name": "initreward",
      "outputs": [
        {
          "internalType": "uint256",
          "name": "",
          "type": "uint256"
        }
      ],
      "stateMutability": "view",
      "type": "function"
    },
    {
      "inputs": [],
      "name": "lastTimeRewardApplicable",
      "outputs": [
        {
          "internalType": "uint256",
          "name": "",
          "type": "uint256"
        }
      ],
      "stateMutability": "view",
      "type": "function"
    },
    {
      "inputs": [],
      "name": "lastUpdateTime",
      "outputs": [
        {
          "internalType": "uint256",
          "name": "",
          "type": "uint256"
        }
      ],
      "stateMutability": "view",
      "type": "function"
    },
    {
      "inputs": [],
      "name": "lpt",
      "outputs": [
        {
          "internalType": "contract IERC20",
          "name": "",
          "type": "address"
        }
      ],
      "stateMutability": "view",
      "type": "function"
    },
    {
      "inputs": [
        {
          "internalType": "uint256",
          "name": "reward",
          "type": "uint256"
        }
      ],
      "name": "notifyRewardAmount",
      "outputs": [],
      "stateMutability": "nonpayable",
      "type": "function"
    },
    {
      "inputs": [],
      "name": "owner",
      "outputs": [
        {
          "internalType": "address",
          "name": "",
          "type": "address"
        }
      ],
      "stateMutability": "view",
      "type": "function"
    },
    {
      "inputs": [],
      "name": "periodFinish",
      "outputs": [
        {
          "internalType": "uint256",
          "name": "",
          "type": "uint256"
        }
      ],
      "stateMutability": "view",
      "type": "function"
    },
    {
      "inputs": [],
      "name": "renounceOwnership",
      "outputs": [],
      "stateMutability": "nonpayable",
      "type": "function"
    },
    {
      "inputs": [],
      "name": "rewardDistribution",
      "outputs": [
        {
          "internalType": "address",
          "name": "",
          "type": "address"
        }
      ],
      "stateMutability": "view",
      "type": "function"
    },
    {
      "inputs": [],
      "name": "rewardPerToken",
      "outputs": [
        {
          "internalType": "uint256",
          "name": "",
          "type": "uint256"
        }
      ],
      "stateMutability": "view",
      "type": "function"
    },
    {
      "inputs": [],
      "name": "rewardPerTokenStored",
      "outputs": [
        {
          "internalType": "uint256",
          "name": "",
          "type": "uint256"
        }
      ],
      "stateMutability": "view",
      "type": "function"
    },
    {
      "inputs": [],
      "name": "rewardRate",
      "outputs": [
        {
          "internalType": "uint256",
          "name": "",
          "type": "uint256"
        }
      ],
      "stateMutability": "view",
      "type": "function"
    },
    {
      "inputs": [
        {
          "internalType": "address",
          "name": "",
          "type": "address"
        }
      ],
      "name": "rewards",
      "outputs": [
        {
          "internalType": "uint256",
          "name": "",
          "type": "uint256"
        }
      ],
      "stateMutability": "view",
      "type": "function"
    },
    {
      "inputs": [
        {
          "internalType": "address",
          "name": "_rewardDistribution",
          "type": "address"
        }
      ],
      "name": "setRewardDistribution",
      "outputs": [],
      "stateMutability": "nonpayable",
      "type": "function"
    },
    {
      "inputs": [
        {
          "internalType": "uint256",
          "name": "amount",
          "type": "uint256"
        }
      ],
      "name": "stake",
      "outputs": [],
      "stateMutability": "nonpayable",
      "type": "function"
    },
    {
      "inputs": [],
      "name": "starttime",
      "outputs": [
        {
          "internalType": "uint256",
          "name": "",
          "type": "uint256"
        }
      ],
      "stateMutability": "view",
      "type": "function"
    },
    {
      "inputs": [],
      "name": "stnd",
      "outputs": [
        {
          "internalType": "contract IERC20",
          "name": "",
          "type": "address"
        }
      ],
      "stateMutability": "view",
      "type": "function"
    },
    {
      "inputs": [],
      "name": "totalInput",
      "outputs": [
        {
          "internalType": "uint256",
          "name": "",
          "type": "uint256"
        }
      ],
      "stateMutability": "view",
      "type": "function"
    },
    {
      "inputs": [
        {
          "internalType": "address",
          "name": "newOwner",
          "type": "address"
        }
      ],
      "name": "transferOwnership",
      "outputs": [],
      "stateMutability": "nonpayable",
      "type": "function"
    },
    {
      "inputs": [
        {
          "internalType": "address",
          "name": "",
          "type": "address"
        }
      ],
      "name": "userRewardPerTokenPaid",
      "outputs": [
        {
          "internalType": "uint256",
          "name": "",
          "type": "uint256"
        }
      ],
      "stateMutability": "view",
      "type": "function"
    },
    {
      "inputs": [
        {
          "internalType": "uint256",
          "name": "amount",
          "type": "uint256"
        }
      ],
      "name": "withdraw",
      "outputs": [],
      "stateMutability": "nonpayable",
      "type": "function"
    },
    {
      "inputs": [
        {
          "internalType": "uint256",
          "name": "amount",
          "type": "uint256"
        }
      ],
      "name": "withdrawReward",
      "outputs": [],
      "stateMutability": "nonpayable",
      "type": "function"
    }
  ],
  "bytecode": "0x6080604052683635c9adc5dea0000060075560006009556000600a553480156200002857600080fd5b50604051620019ad380380620019ad8339810160408190526200004b91620000f3565b600380546001600160a01b0319163390811790915560405181906000907f8be0079c531659141344cd1fd0a4f28419497f9722a3daafe3b4186f6b6457e0908290a350600580546001600160a01b039485166001600160a01b031991821617909155600080549390941692811692909217909255600891909155600680549091163317905562000133565b80516001600160a01b0381168114620000ee57600080fd5b919050565b60008060006060848603121562000108578283fd5b6200011384620000d6565b92506200012360208501620000d6565b9150604084015190509250925092565b61186a80620001436000396000f3fe608060405234801561001057600080fd5b50600436106101b85760003560e01c80638b876347116100f9578063c8f33c9111610097578063df136d6511610071578063df136d65146103b3578063e9fad8ee146103bc578063ebe2b12b146103c4578063f2fde38b146103cd57600080fd5b8063c8f33c9114610382578063cd3daf9d1461038b578063ce5fc8d01461039357600080fd5b806396735aa0116100d357806396735aa01461033e5780639c907b581461035e5780639e15bc2514610367578063a694fc3a1461036f57600080fd5b80638b876347146102f75780638da58897146103175780638da5cb5b1461032057600080fd5b80633c6b16ab1161016657806370a082311161014057806370a08231146102a8578063715018a6146102de5780637b0a47ee146102e657806380faa57d146102ef57600080fd5b80633c6b16ab1461027a5780633d18b9121461028d578063523a3f081461029557600080fd5b8063101114cf11610197578063101114cf146102185780631be052891461025d5780632e1a7d4d1461026757600080fd5b80628cc262146101bd5780630700037d146101e35780630d68b76114610203575b600080fd5b6101d06101cb36600461165b565b6103e0565b6040519081526020015b60405180910390f35b6101d06101f136600461165b565b600e6020526000908152604090205481565b61021661021136600461165b565b610479565b005b6004546102389073ffffffffffffffffffffffffffffffffffffffff1681565b60405173ffffffffffffffffffffffffffffffffffffffff90911681526020016101da565b6101d0624f1a0081565b6102166102753660046116af565b610546565b6102166102883660046116af565b610754565b61021661096a565b6102166102a33660046116af565b610b46565b6101d06102b636600461165b565b73ffffffffffffffffffffffffffffffffffffffff1660009081526002602052604090205490565b610216610bee565b6101d0600a5481565b6101d0610cde565b6101d061030536600461165b565b600d6020526000908152604090205481565b6101d060085481565b60035473ffffffffffffffffffffffffffffffffffffffff16610238565b6005546102389073ffffffffffffffffffffffffffffffffffffffff1681565b6101d060075481565b6001546101d0565b61021661037d3660046116af565b610cf1565b6101d0600b5481565b6101d0610ef7565b6000546102389073ffffffffffffffffffffffffffffffffffffffff1681565b6101d0600c5481565b610216610f45565b6101d060095481565b6102166103db36600461165b565b610f68565b73ffffffffffffffffffffffffffffffffffffffff81166000908152600e6020908152604080832054600d909252822054610473919061046d90670de0b6b3a7640000906104679061043a90610434610ef7565b9061111a565b73ffffffffffffffffffffffffffffffffffffffff88166000908152600260205260409020545b9061112d565b90611139565b90611145565b92915050565b60035473ffffffffffffffffffffffffffffffffffffffff1633146104ff576040517f08c379a000000000000000000000000000000000000000000000000000000000815260206004820181905260248201527f4f776e61626c653a2063616c6c6572206973206e6f7420746865206f776e657260448201526064015b60405180910390fd5b600480547fffffffffffffffffffffffff00000000000000000000000000000000000000001673ffffffffffffffffffffffffffffffffffffffff92909216919091179055565b3361054f610ef7565b600c5561055a610cde565b600b5573ffffffffffffffffffffffffffffffffffffffff8116156105bb57610582816103e0565b73ffffffffffffffffffffffffffffffffffffffff82166000908152600e6020908152604080832093909355600c54600d909152919020555b600954421061063b576105df6064610467604b60075461112d90919063ffffffff16565b60078190556105f190624f1a00611139565b600a5561060142624f1a00611145565b6009556007546040519081527fde88a922e0d3b88b24e9623efeb464919c6bf9f66857a65e2bfcf2ce87a9433d9060200160405180910390a15b6008544210156106a7576040517f08c379a000000000000000000000000000000000000000000000000000000000815260206004820152600960248201527f6e6f74207374617274000000000000000000000000000000000000000000000060448201526064016104f6565b60008211610711576040517f08c379a000000000000000000000000000000000000000000000000000000000815260206004820152601160248201527f43616e6e6f74207769746864726177203000000000000000000000000000000060448201526064016104f6565b61071a82611151565b60405182815233907f7084f5476618d8e60b11ef0d7d3f06914655adb8793e28ff7f018d4c76d505d5906020015b60405180910390a25050565b60045473ffffffffffffffffffffffffffffffffffffffff163373ffffffffffffffffffffffffffffffffffffffff1614610811576040517f08c379a000000000000000000000000000000000000000000000000000000000815260206004820152602160248201527f43616c6c6572206973206e6f742072657761726420646973747269627574696f60448201527f6e0000000000000000000000000000000000000000000000000000000000000060648201526084016104f6565b600061081b610ef7565b600c55610826610cde565b600b5573ffffffffffffffffffffffffffffffffffffffff8116156108875761084e816103e0565b73ffffffffffffffffffffffffffffffffffffffff82166000908152600e6020908152604080832093909355600c54600d909152919020555b60085442111561093e5760095442106108af576108a782624f1a00611139565b600a556108f1565b6009546000906108bf904261111a565b905060006108d8600a548361112d90919063ffffffff16565b90506108eb624f1a006104678684611145565b600a5550505b42600b81905561090490624f1a00611145565b6009556040518281527fde88a922e0d3b88b24e9623efeb464919c6bf9f66857a65e2bfcf2ce87a9433d9060200160405180910390a15050565b60075461094e90624f1a00611139565b600a55600854600b81905561090490624f1a00611145565b5050565b33610973610ef7565b600c5561097e610cde565b600b5573ffffffffffffffffffffffffffffffffffffffff8116156109df576109a6816103e0565b73ffffffffffffffffffffffffffffffffffffffff82166000908152600e6020908152604080832093909355600c54600d909152919020555b6009544210610a5f57610a036064610467604b60075461112d90919063ffffffff16565b6007819055610a1590624f1a00611139565b600a55610a2542624f1a00611145565b6009556007546040519081527fde88a922e0d3b88b24e9623efeb464919c6bf9f66857a65e2bfcf2ce87a9433d9060200160405180910390a15b600854421015610acb576040517f08c379a000000000000000000000000000000000000000000000000000000000815260206004820152600960248201527f6e6f74207374617274000000000000000000000000000000000000000000000060448201526064016104f6565b6000610ad6336103e0565b9050801561096657336000818152600e6020526040812055600554610b149173ffffffffffffffffffffffffffffffffffffffff90911690836111af565b60405181815233907fe2403640ba68fed3a2f88b7557551d1993f84b99bb10ff833f0cf8db0c5e048690602001610748565b60065473ffffffffffffffffffffffffffffffffffffffff163314610bc7576040517f08c379a000000000000000000000000000000000000000000000000000000000815260206004820152601c60248201527f4e6f7420746865206f70657261746f72206f662074686520706f6f6c0000000060448201526064016104f6565b600554610beb9073ffffffffffffffffffffffffffffffffffffffff1633836111af565b50565b60035473ffffffffffffffffffffffffffffffffffffffff163314610c6f576040517f08c379a000000000000000000000000000000000000000000000000000000000815260206004820181905260248201527f4f776e61626c653a2063616c6c6572206973206e6f7420746865206f776e657260448201526064016104f6565b60035460405160009173ffffffffffffffffffffffffffffffffffffffff16907f8be0079c531659141344cd1fd0a4f28419497f9722a3daafe3b4186f6b6457e0908390a3600380547fffffffffffffffffffffffff0000000000000000000000000000000000000000169055565b6000610cec42600954611288565b905090565b33610cfa610ef7565b600c55610d05610cde565b600b5573ffffffffffffffffffffffffffffffffffffffff811615610d6657610d2d816103e0565b73ffffffffffffffffffffffffffffffffffffffff82166000908152600e6020908152604080832093909355600c54600d909152919020555b6009544210610de657610d8a6064610467604b60075461112d90919063ffffffff16565b6007819055610d9c90624f1a00611139565b600a55610dac42624f1a00611145565b6009556007546040519081527fde88a922e0d3b88b24e9623efeb464919c6bf9f66857a65e2bfcf2ce87a9433d9060200160405180910390a15b600854421015610e52576040517f08c379a000000000000000000000000000000000000000000000000000000000815260206004820152600960248201527f6e6f74207374617274000000000000000000000000000000000000000000000060448201526064016104f6565b60008211610ebc576040517f08c379a000000000000000000000000000000000000000000000000000000000815260206004820152600e60248201527f43616e6e6f74207374616b65203000000000000000000000000000000000000060448201526064016104f6565b610ec58261129e565b60405182815233907f9e71bc8eea02a63969f509818f2dafb9254532904319f9dbda79b67bd34a5f3d90602001610748565b6000610f0260015490565b610f0d5750600c5490565b610cec610f3c610f1c60015490565b610467670de0b6b3a7640000610461600a54610461600b54610434610cde565b600c5490611145565b33600090815260026020526040902054610f5e90610546565b610f6661096a565b565b60035473ffffffffffffffffffffffffffffffffffffffff163314610fe9576040517f08c379a000000000000000000000000000000000000000000000000000000000815260206004820181905260248201527f4f776e61626c653a2063616c6c6572206973206e6f7420746865206f776e657260448201526064016104f6565b73ffffffffffffffffffffffffffffffffffffffff811661108c576040517f08c379a000000000000000000000000000000000000000000000000000000000815260206004820152602660248201527f4f776e61626c653a206e6577206f776e657220697320746865207a65726f206160448201527f646472657373000000000000000000000000000000000000000000000000000060648201526084016104f6565b60035460405173ffffffffffffffffffffffffffffffffffffffff8084169216907f8be0079c531659141344cd1fd0a4f28419497f9722a3daafe3b4186f6b6457e090600090a3600380547fffffffffffffffffffffffff00000000000000000000000000000000000000001673ffffffffffffffffffffffffffffffffffffffff92909216919091179055565b600061112682846117c2565b9392505050565b60006111268284611785565b6000611126828461174c565b60006111268284611734565b60015461115e908261111a565b6001553360009081526002602052604090205461117b908261111a565b336000818152600260205260408120929092559054610beb9173ffffffffffffffffffffffffffffffffffffffff90911690835b60405173ffffffffffffffffffffffffffffffffffffffff83166024820152604481018290526112839084907fa9059cbb00000000000000000000000000000000000000000000000000000000906064015b604080517fffffffffffffffffffffffffffffffffffffffffffffffffffffffffffffffe08184030181529190526020810180517bffffffffffffffffffffffffffffffffffffffffffffffffffffffff167fffffffff0000000000000000000000000000000000000000000000000000000090931692909217909152611301565b505050565b60008183106112975781611126565b5090919050565b6001546112ab9082611145565b600155336000908152600260205260409020546112c89082611145565b336000818152600260205260408120929092559054610beb9173ffffffffffffffffffffffffffffffffffffffff90911690308461140d565b6000611363826040518060400160405280602081526020017f5361666545524332303a206c6f772d6c6576656c2063616c6c206661696c65648152508573ffffffffffffffffffffffffffffffffffffffff166114719092919063ffffffff16565b8051909150156112835780806020019051810190611381919061168f565b611283576040517f08c379a000000000000000000000000000000000000000000000000000000000815260206004820152602a60248201527f5361666545524332303a204552433230206f7065726174696f6e20646964206e60448201527f6f7420737563636565640000000000000000000000000000000000000000000060648201526084016104f6565b60405173ffffffffffffffffffffffffffffffffffffffff8085166024830152831660448201526064810182905261146b9085907f23b872dd0000000000000000000000000000000000000000000000000000000090608401611201565b50505050565b60606114808484600085611488565b949350505050565b60608247101561151a576040517f08c379a000000000000000000000000000000000000000000000000000000000815260206004820152602660248201527f416464726573733a20696e73756666696369656e742062616c616e636520666f60448201527f722063616c6c000000000000000000000000000000000000000000000000000060648201526084016104f6565b843b611582576040517f08c379a000000000000000000000000000000000000000000000000000000000815260206004820152601d60248201527f416464726573733a2063616c6c20746f206e6f6e2d636f6e747261637400000060448201526064016104f6565b6000808673ffffffffffffffffffffffffffffffffffffffff1685876040516115ab91906116c7565b60006040518083038185875af1925050503d80600081146115e8576040519150601f19603f3d011682016040523d82523d6000602084013e6115ed565b606091505b50915091506115fd828286611608565b979650505050505050565b60608315611617575081611126565b8251156116275782518084602001fd5b816040517f08c379a00000000000000000000000000000000000000000000000000000000081526004016104f691906116e3565b60006020828403121561166c578081fd5b813573ffffffffffffffffffffffffffffffffffffffff81168114611126578182fd5b6000602082840312156116a0578081fd5b81518015158114611126578182fd5b6000602082840312156116c0578081fd5b5035919050565b600082516116d98184602087016117d9565b9190910192915050565b60208152600082518060208401526117028160408501602087016117d9565b601f017fffffffffffffffffffffffffffffffffffffffffffffffffffffffffffffffe0169190910160400192915050565b6000821982111561174757611747611805565b500190565b600082611780577f4e487b710000000000000000000000000000000000000000000000000000000081526012600452602481fd5b500490565b6000817fffffffffffffffffffffffffffffffffffffffffffffffffffffffffffffffff04831182151516156117bd576117bd611805565b500290565b6000828210156117d4576117d4611805565b500390565b60005b838110156117f45781810151838201526020016117dc565b8381111561146b5750506000910152565b7f4e487b7100000000000000000000000000000000000000000000000000000000600052601160045260246000fdfea26469706673582212207473c904fcbffa39ac766e7f61b5b1e2a4c8160da47e033a15a4f187b9c6687d64736f6c63430008040033",
  "linkReferences": {},
  "deployedLinkReferences": {}
}