{
  "_format": "hh-sol-artifact-1",
  "contractName": "WETHSTNDLPTokenSharePool",
  "sourceName": "contracts/pools/LPRewardPool.sol",
  "abi": [
    {
      "inputs": [
        {
          "internalType": "address",
          "name": "stnd_",
          "type": "address"
        },
        {
          "internalType": "address",
          "name": "lptoken_",
          "type": "address"
        },
        {
          "internalType": "uint256",
          "name": "starttime_",
          "type": "uint256"
        }
      ],
      "stateMutability": "nonpayable",
      "type": "constructor"
    },
    {
      "anonymous": false,
      "inputs": [
        {
          "indexed": true,
          "internalType": "address",
          "name": "previousOwner",
          "type": "address"
        },
        {
          "indexed": true,
          "internalType": "address",
          "name": "newOwner",
          "type": "address"
        }
      ],
      "name": "OwnershipTransferred",
      "type": "event"
    },
    {
      "anonymous": false,
      "inputs": [
        {
          "indexed": false,
          "internalType": "uint256",
          "name": "reward",
          "type": "uint256"
        }
      ],
      "name": "RewardAdded",
      "type": "event"
    },
    {
      "anonymous": false,
      "inputs": [
        {
          "indexed": true,
          "internalType": "address",
          "name": "user",
          "type": "address"
        },
        {
          "indexed": false,
          "internalType": "uint256",
          "name": "reward",
          "type": "uint256"
        }
      ],
      "name": "RewardPaid",
      "type": "event"
    },
    {
      "anonymous": false,
      "inputs": [
        {
          "indexed": true,
          "internalType": "address",
          "name": "user",
          "type": "address"
        },
        {
          "indexed": false,
          "internalType": "uint256",
          "name": "amount",
          "type": "uint256"
        }
      ],
      "name": "Staked",
      "type": "event"
    },
    {
      "anonymous": false,
      "inputs": [
        {
          "indexed": true,
          "internalType": "address",
          "name": "user",
          "type": "address"
        },
        {
          "indexed": false,
          "internalType": "uint256",
          "name": "amount",
          "type": "uint256"
        }
      ],
      "name": "Withdrawn",
      "type": "event"
    },
    {
      "inputs": [],
      "name": "DURATION",
      "outputs": [
        {
          "internalType": "uint256",
          "name": "",
          "type": "uint256"
        }
      ],
      "stateMutability": "view",
      "type": "function"
    },
    {
      "inputs": [
        {
          "internalType": "address",
          "name": "account",
          "type": "address"
        }
      ],
      "name": "balanceOf",
      "outputs": [
        {
          "internalType": "uint256",
          "name": "",
          "type": "uint256"
        }
      ],
      "stateMutability": "view",
      "type": "function"
    },
    {
      "inputs": [
        {
          "internalType": "address",
          "name": "account",
          "type": "address"
        }
      ],
      "name": "earned",
      "outputs": [
        {
          "internalType": "uint256",
          "name": "",
          "type": "uint256"
        }
      ],
      "stateMutability": "view",
      "type": "function"
    },
    {
      "inputs": [],
      "name": "exit",
      "outputs": [],
      "stateMutability": "nonpayable",
      "type": "function"
    },
    {
      "inputs": [],
      "name": "getReward",
      "outputs": [],
      "stateMutability": "nonpayable",
      "type": "function"
    },
    {
      "inputs": [],
      "name": "initreward",
      "outputs": [
        {
          "internalType": "uint256",
          "name": "",
          "type": "uint256"
        }
      ],
      "stateMutability": "view",
      "type": "function"
    },
    {
      "inputs": [],
      "name": "lastTimeRewardApplicable",
      "outputs": [
        {
          "internalType": "uint256",
          "name": "",
          "type": "uint256"
        }
      ],
      "stateMutability": "view",
      "type": "function"
    },
    {
      "inputs": [],
      "name": "lastUpdateTime",
      "outputs": [
        {
          "internalType": "uint256",
          "name": "",
          "type": "uint256"
        }
      ],
      "stateMutability": "view",
      "type": "function"
    },
    {
      "inputs": [],
      "name": "lpt",
      "outputs": [
        {
          "internalType": "contract IERC20",
          "name": "",
          "type": "address"
        }
      ],
      "stateMutability": "view",
      "type": "function"
    },
    {
      "inputs": [
        {
          "internalType": "uint256",
          "name": "reward",
          "type": "uint256"
        }
      ],
      "name": "notifyRewardAmount",
      "outputs": [],
      "stateMutability": "nonpayable",
      "type": "function"
    },
    {
      "inputs": [],
      "name": "owner",
      "outputs": [
        {
          "internalType": "address",
          "name": "",
          "type": "address"
        }
      ],
      "stateMutability": "view",
      "type": "function"
    },
    {
      "inputs": [],
      "name": "periodFinish",
      "outputs": [
        {
          "internalType": "uint256",
          "name": "",
          "type": "uint256"
        }
      ],
      "stateMutability": "view",
      "type": "function"
    },
    {
      "inputs": [],
      "name": "renounceOwnership",
      "outputs": [],
      "stateMutability": "nonpayable",
      "type": "function"
    },
    {
      "inputs": [],
      "name": "rewardDistribution",
      "outputs": [
        {
          "internalType": "address",
          "name": "",
          "type": "address"
        }
      ],
      "stateMutability": "view",
      "type": "function"
    },
    {
      "inputs": [],
      "name": "rewardPerToken",
      "outputs": [
        {
          "internalType": "uint256",
          "name": "",
          "type": "uint256"
        }
      ],
      "stateMutability": "view",
      "type": "function"
    },
    {
      "inputs": [],
      "name": "rewardPerTokenStored",
      "outputs": [
        {
          "internalType": "uint256",
          "name": "",
          "type": "uint256"
        }
      ],
      "stateMutability": "view",
      "type": "function"
    },
    {
      "inputs": [],
      "name": "rewardRate",
      "outputs": [
        {
          "internalType": "uint256",
          "name": "",
          "type": "uint256"
        }
      ],
      "stateMutability": "view",
      "type": "function"
    },
    {
      "inputs": [
        {
          "internalType": "address",
          "name": "",
          "type": "address"
        }
      ],
      "name": "rewards",
      "outputs": [
        {
          "internalType": "uint256",
          "name": "",
          "type": "uint256"
        }
      ],
      "stateMutability": "view",
      "type": "function"
    },
    {
      "inputs": [
        {
          "internalType": "address",
          "name": "_rewardDistribution",
          "type": "address"
        }
      ],
      "name": "setRewardDistribution",
      "outputs": [],
      "stateMutability": "nonpayable",
      "type": "function"
    },
    {
      "inputs": [
        {
          "internalType": "uint256",
          "name": "amount",
          "type": "uint256"
        }
      ],
      "name": "stake",
      "outputs": [],
      "stateMutability": "nonpayable",
      "type": "function"
    },
    {
      "inputs": [],
      "name": "starttime",
      "outputs": [
        {
          "internalType": "uint256",
          "name": "",
          "type": "uint256"
        }
      ],
      "stateMutability": "view",
      "type": "function"
    },
    {
      "inputs": [],
      "name": "stnd",
      "outputs": [
        {
          "internalType": "contract IERC20",
          "name": "",
          "type": "address"
        }
      ],
      "stateMutability": "view",
      "type": "function"
    },
    {
      "inputs": [],
      "name": "totalInput",
      "outputs": [
        {
          "internalType": "uint256",
          "name": "",
          "type": "uint256"
        }
      ],
      "stateMutability": "view",
      "type": "function"
    },
    {
      "inputs": [
        {
          "internalType": "address",
          "name": "newOwner",
          "type": "address"
        }
      ],
      "name": "transferOwnership",
      "outputs": [],
      "stateMutability": "nonpayable",
      "type": "function"
    },
    {
      "inputs": [
        {
          "internalType": "address",
          "name": "",
          "type": "address"
        }
      ],
      "name": "userRewardPerTokenPaid",
      "outputs": [
        {
          "internalType": "uint256",
          "name": "",
          "type": "uint256"
        }
      ],
      "stateMutability": "view",
      "type": "function"
    },
    {
      "inputs": [
        {
          "internalType": "uint256",
          "name": "amount",
          "type": "uint256"
        }
      ],
      "name": "withdraw",
      "outputs": [],
      "stateMutability": "nonpayable",
      "type": "function"
    },
    {
      "inputs": [
        {
          "internalType": "uint256",
          "name": "amount",
          "type": "uint256"
        }
      ],
      "name": "withdrawReward",
      "outputs": [],
      "stateMutability": "nonpayable",
      "type": "function"
    }
  ],
  "bytecode": "0x6080604052693f870857a3e0e380000060075560006009556000600a5534801561002857600080fd5b506040516200181938038062001819833981016040819052610049916100ef565b600380546001600160a01b0319163390811790915560405181906000907f8be0079c531659141344cd1fd0a4f28419497f9722a3daafe3b4186f6b6457e0908290a350600580546001600160a01b039485166001600160a01b031991821617909155600080549390941692811692909217909255600891909155600680549091163317905561012a565b80516001600160a01b03811681146100ea57600080fd5b919050565b600080600060608486031215610103578283fd5b61010c846100d3565b925061011a602085016100d3565b9150604084015190509250925092565b6116df806200013a6000396000f3fe608060405234801561001057600080fd5b50600436106101b85760003560e01c80638b876347116100f9578063c8f33c9111610097578063df136d6511610071578063df136d65146103b2578063e9fad8ee146103bb578063ebe2b12b146103c3578063f2fde38b146103cc57600080fd5b8063c8f33c9114610381578063cd3daf9d1461038a578063ce5fc8d01461039257600080fd5b806396735aa0116100d357806396735aa01461033d5780639c907b581461035d5780639e15bc2514610366578063a694fc3a1461036e57600080fd5b80638b876347146102f65780638da58897146103165780638da5cb5b1461031f57600080fd5b80633c6b16ab1161016657806370a082311161014057806370a08231146102a7578063715018a6146102dd5780637b0a47ee146102e557806380faa57d146102ee57600080fd5b80633c6b16ab146102795780633d18b9121461028c578063523a3f081461029457600080fd5b8063101114cf11610197578063101114cf146102185780631be052891461025d5780632e1a7d4d1461026657600080fd5b80628cc262146101bd5780630700037d146101e35780630d68b76114610203575b600080fd5b6101d06101cb3660046114d0565b6103df565b6040519081526020015b60405180910390f35b6101d06101f13660046114d0565b600e6020526000908152604090205481565b6102166102113660046114d0565b610478565b005b6004546102389073ffffffffffffffffffffffffffffffffffffffff1681565b60405173ffffffffffffffffffffffffffffffffffffffff90911681526020016101da565b6101d061012c81565b610216610274366004611524565b610545565b610216610287366004611524565b6106d3565b6102166108df565b6102166102a2366004611524565b610a3b565b6101d06102b53660046114d0565b73ffffffffffffffffffffffffffffffffffffffff1660009081526002602052604090205490565b610216610ae3565b6101d0600a5481565b6101d0610bd3565b6101d06103043660046114d0565b600d6020526000908152604090205481565b6101d060085481565b60035473ffffffffffffffffffffffffffffffffffffffff16610238565b6005546102389073ffffffffffffffffffffffffffffffffffffffff1681565b6101d060075481565b6001546101d0565b61021661037c366004611524565b610be6565b6101d0600b5481565b6101d0610d6c565b6000546102389073ffffffffffffffffffffffffffffffffffffffff1681565b6101d0600c5481565b610216610dba565b6101d060095481565b6102166103da3660046114d0565b610ddd565b73ffffffffffffffffffffffffffffffffffffffff81166000908152600e6020908152604080832054600d909252822054610472919061046c90670de0b6b3a7640000906104669061043990610433610d6c565b90610f8f565b73ffffffffffffffffffffffffffffffffffffffff88166000908152600260205260409020545b90610fa2565b90610fae565b90610fba565b92915050565b60035473ffffffffffffffffffffffffffffffffffffffff1633146104fe576040517f08c379a000000000000000000000000000000000000000000000000000000000815260206004820181905260248201527f4f776e61626c653a2063616c6c6572206973206e6f7420746865206f776e657260448201526064015b60405180910390fd5b600480547fffffffffffffffffffffffff00000000000000000000000000000000000000001673ffffffffffffffffffffffffffffffffffffffff92909216919091179055565b3361054e610d6c565b600c55610559610bd3565b600b5573ffffffffffffffffffffffffffffffffffffffff8116156105ba57610581816103df565b73ffffffffffffffffffffffffffffffffffffffff82166000908152600e6020908152604080832093909355600c54600d909152919020555b600854421015610626576040517f08c379a000000000000000000000000000000000000000000000000000000000815260206004820152600960248201527f6e6f74207374617274000000000000000000000000000000000000000000000060448201526064016104f5565b60008211610690576040517f08c379a000000000000000000000000000000000000000000000000000000000815260206004820152601160248201527f43616e6e6f74207769746864726177203000000000000000000000000000000060448201526064016104f5565b61069982610fc6565b60405182815233907f7084f5476618d8e60b11ef0d7d3f06914655adb8793e28ff7f018d4c76d505d5906020015b60405180910390a25050565b60035473ffffffffffffffffffffffffffffffffffffffff163314610754576040517f08c379a000000000000000000000000000000000000000000000000000000000815260206004820181905260248201527f4f776e61626c653a2063616c6c6572206973206e6f7420746865206f776e657260448201526064016104f5565b600061075e610d6c565b600c55610769610bd3565b600b5573ffffffffffffffffffffffffffffffffffffffff8116156107ca57610791816103df565b73ffffffffffffffffffffffffffffffffffffffff82166000908152600e6020908152604080832093909355600c54600d909152919020555b60085442111561087f5760095442106107f1576107e98261012c610fae565b600a55610832565b6009546000906108019042610f8f565b9050600061081a600a5483610fa290919063ffffffff16565b905061082c61012c6104668684610fba565b600a5550505b42600b8190556108449061012c610fba565b6009556040518281527fde88a922e0d3b88b24e9623efeb464919c6bf9f66857a65e2bfcf2ce87a9433d906020015b60405180910390a15050565b60075461088e9061012c610fae565b600a55600854600b8190556108a59061012c610fba565b6009556007546040519081527fde88a922e0d3b88b24e9623efeb464919c6bf9f66857a65e2bfcf2ce87a9433d90602001610873565b5050565b336108e8610d6c565b600c556108f3610bd3565b600b5573ffffffffffffffffffffffffffffffffffffffff8116156109545761091b816103df565b73ffffffffffffffffffffffffffffffffffffffff82166000908152600e6020908152604080832093909355600c54600d909152919020555b6008544210156109c0576040517f08c379a000000000000000000000000000000000000000000000000000000000815260206004820152600960248201527f6e6f74207374617274000000000000000000000000000000000000000000000060448201526064016104f5565b60006109cb336103df565b905080156108db57336000818152600e6020526040812055600554610a099173ffffffffffffffffffffffffffffffffffffffff9091169083611024565b60405181815233907fe2403640ba68fed3a2f88b7557551d1993f84b99bb10ff833f0cf8db0c5e0486906020016106c7565b60065473ffffffffffffffffffffffffffffffffffffffff163314610abc576040517f08c379a000000000000000000000000000000000000000000000000000000000815260206004820152601c60248201527f4e6f7420746865206f70657261746f72206f662074686520706f6f6c0000000060448201526064016104f5565b600554610ae09073ffffffffffffffffffffffffffffffffffffffff163383611024565b50565b60035473ffffffffffffffffffffffffffffffffffffffff163314610b64576040517f08c379a000000000000000000000000000000000000000000000000000000000815260206004820181905260248201527f4f776e61626c653a2063616c6c6572206973206e6f7420746865206f776e657260448201526064016104f5565b60035460405160009173ffffffffffffffffffffffffffffffffffffffff16907f8be0079c531659141344cd1fd0a4f28419497f9722a3daafe3b4186f6b6457e0908390a3600380547fffffffffffffffffffffffff0000000000000000000000000000000000000000169055565b6000610be1426009546110fd565b905090565b33610bef610d6c565b600c55610bfa610bd3565b600b5573ffffffffffffffffffffffffffffffffffffffff811615610c5b57610c22816103df565b73ffffffffffffffffffffffffffffffffffffffff82166000908152600e6020908152604080832093909355600c54600d909152919020555b600854421015610cc7576040517f08c379a000000000000000000000000000000000000000000000000000000000815260206004820152600960248201527f6e6f74207374617274000000000000000000000000000000000000000000000060448201526064016104f5565b60008211610d31576040517f08c379a000000000000000000000000000000000000000000000000000000000815260206004820152600e60248201527f43616e6e6f74207374616b65203000000000000000000000000000000000000060448201526064016104f5565b610d3a82611113565b60405182815233907f9e71bc8eea02a63969f509818f2dafb9254532904319f9dbda79b67bd34a5f3d906020016106c7565b6000610d7760015490565b610d825750600c5490565b610be1610db1610d9160015490565b610466670de0b6b3a7640000610460600a54610460600b54610433610bd3565b600c5490610fba565b33600090815260026020526040902054610dd390610545565b610ddb6108df565b565b60035473ffffffffffffffffffffffffffffffffffffffff163314610e5e576040517f08c379a000000000000000000000000000000000000000000000000000000000815260206004820181905260248201527f4f776e61626c653a2063616c6c6572206973206e6f7420746865206f776e657260448201526064016104f5565b73ffffffffffffffffffffffffffffffffffffffff8116610f01576040517f08c379a000000000000000000000000000000000000000000000000000000000815260206004820152602660248201527f4f776e61626c653a206e6577206f776e657220697320746865207a65726f206160448201527f646472657373000000000000000000000000000000000000000000000000000060648201526084016104f5565b60035460405173ffffffffffffffffffffffffffffffffffffffff8084169216907f8be0079c531659141344cd1fd0a4f28419497f9722a3daafe3b4186f6b6457e090600090a3600380547fffffffffffffffffffffffff00000000000000000000000000000000000000001673ffffffffffffffffffffffffffffffffffffffff92909216919091179055565b6000610f9b8284611637565b9392505050565b6000610f9b82846115fa565b6000610f9b82846115c1565b6000610f9b82846115a9565b600154610fd39082610f8f565b60015533600090815260026020526040902054610ff09082610f8f565b336000818152600260205260408120929092559054610ae09173ffffffffffffffffffffffffffffffffffffffff90911690835b60405173ffffffffffffffffffffffffffffffffffffffff83166024820152604481018290526110f89084907fa9059cbb00000000000000000000000000000000000000000000000000000000906064015b604080517fffffffffffffffffffffffffffffffffffffffffffffffffffffffffffffffe08184030181529190526020810180517bffffffffffffffffffffffffffffffffffffffffffffffffffffffff167fffffffff0000000000000000000000000000000000000000000000000000000090931692909217909152611176565b505050565b600081831061110c5781610f9b565b5090919050565b6001546111209082610fba565b6001553360009081526002602052604090205461113d9082610fba565b336000818152600260205260408120929092559054610ae09173ffffffffffffffffffffffffffffffffffffffff909116903084611282565b60006111d8826040518060400160405280602081526020017f5361666545524332303a206c6f772d6c6576656c2063616c6c206661696c65648152508573ffffffffffffffffffffffffffffffffffffffff166112e69092919063ffffffff16565b8051909150156110f857808060200190518101906111f69190611504565b6110f8576040517f08c379a000000000000000000000000000000000000000000000000000000000815260206004820152602a60248201527f5361666545524332303a204552433230206f7065726174696f6e20646964206e60448201527f6f7420737563636565640000000000000000000000000000000000000000000060648201526084016104f5565b60405173ffffffffffffffffffffffffffffffffffffffff808516602483015283166044820152606481018290526112e09085907f23b872dd0000000000000000000000000000000000000000000000000000000090608401611076565b50505050565b60606112f584846000856112fd565b949350505050565b60608247101561138f576040517f08c379a000000000000000000000000000000000000000000000000000000000815260206004820152602660248201527f416464726573733a20696e73756666696369656e742062616c616e636520666f60448201527f722063616c6c000000000000000000000000000000000000000000000000000060648201526084016104f5565b843b6113f7576040517f08c379a000000000000000000000000000000000000000000000000000000000815260206004820152601d60248201527f416464726573733a2063616c6c20746f206e6f6e2d636f6e747261637400000060448201526064016104f5565b6000808673ffffffffffffffffffffffffffffffffffffffff168587604051611420919061153c565b60006040518083038185875af1925050503d806000811461145d576040519150601f19603f3d011682016040523d82523d6000602084013e611462565b606091505b509150915061147282828661147d565b979650505050505050565b6060831561148c575081610f9b565b82511561149c5782518084602001fd5b816040517f08c379a00000000000000000000000000000000000000000000000000000000081526004016104f59190611558565b6000602082840312156114e1578081fd5b813573ffffffffffffffffffffffffffffffffffffffff81168114610f9b578182fd5b600060208284031215611515578081fd5b81518015158114610f9b578182fd5b600060208284031215611535578081fd5b5035919050565b6000825161154e81846020870161164e565b9190910192915050565b602081526000825180602084015261157781604085016020870161164e565b601f017fffffffffffffffffffffffffffffffffffffffffffffffffffffffffffffffe0169190910160400192915050565b600082198211156115bc576115bc61167a565b500190565b6000826115f5577f4e487b710000000000000000000000000000000000000000000000000000000081526012600452602481fd5b500490565b6000817fffffffffffffffffffffffffffffffffffffffffffffffffffffffffffffffff04831182151516156116325761163261167a565b500290565b6000828210156116495761164961167a565b500390565b60005b83811015611669578181015183820152602001611651565b838111156112e05750506000910152565b7f4e487b7100000000000000000000000000000000000000000000000000000000600052601160045260246000fdfea26469706673582212201c3d679d95720399944e4363a9423787bdaa0378a138cb224c551593795be12864736f6c63430008040033",
  "linkReferences": {},
  "deployedLinkReferences": {}
}