{
  "_format": "hh-sol-artifact-1",
  "contractName": "Exchange",
  "sourceName": "contracts/treasury/exchanges/Exchange.sol",
  "abi": [
    {
      "inputs": [
        {
          "internalType": "address",
          "name": "collateral_",
          "type": "address"
        },
        {
          "internalType": "address",
          "name": "cash_",
          "type": "address"
        },
        {
          "internalType": "address",
          "name": "oracle_",
          "type": "address"
        }
      ],
      "stateMutability": "nonpayable",
      "type": "constructor"
    },
    {
      "anonymous": false,
      "inputs": [
        {
          "indexed": false,
          "internalType": "address",
          "name": "buyer",
          "type": "address"
        },
        {
          "indexed": false,
          "internalType": "uint256",
          "name": "amount",
          "type": "uint256"
        }
      ],
      "name": "CashBought",
      "type": "event"
    },
    {
      "anonymous": false,
      "inputs": [
        {
          "indexed": false,
          "internalType": "address",
          "name": "buyer",
          "type": "address"
        },
        {
          "indexed": false,
          "internalType": "address",
          "name": "collateral",
          "type": "address"
        },
        {
          "indexed": false,
          "internalType": "uint256",
          "name": "amount",
          "type": "uint256"
        }
      ],
      "name": "CollateralBought",
      "type": "event"
    },
    {
      "anonymous": false,
      "inputs": [
        {
          "indexed": true,
          "internalType": "address",
          "name": "previousOperator",
          "type": "address"
        },
        {
          "indexed": true,
          "internalType": "address",
          "name": "newOperator",
          "type": "address"
        }
      ],
      "name": "OperatorTransferred",
      "type": "event"
    },
    {
      "anonymous": false,
      "inputs": [
        {
          "indexed": true,
          "internalType": "address",
          "name": "previousOwner",
          "type": "address"
        },
        {
          "indexed": true,
          "internalType": "address",
          "name": "newOwner",
          "type": "address"
        }
      ],
      "name": "OwnershipTransferred",
      "type": "event"
    },
    {
      "inputs": [
        {
          "internalType": "uint256",
          "name": "amount",
          "type": "uint256"
        }
      ],
      "name": "buyCash",
      "outputs": [],
      "stateMutability": "nonpayable",
      "type": "function"
    },
    {
      "inputs": [
        {
          "internalType": "uint256",
          "name": "amount",
          "type": "uint256"
        }
      ],
      "name": "buyCollateral",
      "outputs": [],
      "stateMutability": "nonpayable",
      "type": "function"
    },
    {
      "inputs": [],
      "name": "isOperator",
      "outputs": [
        {
          "internalType": "bool",
          "name": "",
          "type": "bool"
        }
      ],
      "stateMutability": "view",
      "type": "function"
    },
    {
      "inputs": [],
      "name": "operator",
      "outputs": [
        {
          "internalType": "address",
          "name": "",
          "type": "address"
        }
      ],
      "stateMutability": "view",
      "type": "function"
    },
    {
      "inputs": [],
      "name": "owner",
      "outputs": [
        {
          "internalType": "address",
          "name": "",
          "type": "address"
        }
      ],
      "stateMutability": "view",
      "type": "function"
    },
    {
      "inputs": [],
      "name": "renounceOwnership",
      "outputs": [],
      "stateMutability": "nonpayable",
      "type": "function"
    },
    {
      "inputs": [
        {
          "internalType": "address",
          "name": "newOperator_",
          "type": "address"
        }
      ],
      "name": "transferOperator",
      "outputs": [],
      "stateMutability": "nonpayable",
      "type": "function"
    },
    {
      "inputs": [
        {
          "internalType": "address",
          "name": "newOwner",
          "type": "address"
        }
      ],
      "name": "transferOwnership",
      "outputs": [],
      "stateMutability": "nonpayable",
      "type": "function"
    }
  ],
  "bytecode": "0x608060405234801561001057600080fd5b50604051610f60380380610f608339818101604052606081101561003357600080fd5b5080516020820151604090920151909190600061004e610132565b600180546001600160a01b0319166001600160a01b038316908117909155604051919250906000907f8be0079c531659141344cd1fd0a4f28419497f9722a3daafe3b4186f6b6457e0908290a3506100a4610132565b600280546001600160a01b0319166001600160a01b0392831617908190556040519116906000907f74da04524d50c64947f5dd5381ef1a4dca5cba8ed1d816243f9e48aa0b5617ed908290a3600380546001600160a01b039485166001600160a01b031991821617909155600480549385169382169390931790925560058054919093169116179055610136565b3390565b610e1b806101456000396000f3fe608060405234801561001057600080fd5b50600436106100885760003560e01c8063570ca7351161005b578063570ca7351461010b578063715018a61461012f5780638da5cb5b14610137578063f2fde38b1461013f57610088565b806329605e771461008d5780634456eda2146100b55780634b906698146100d157806352e62099146100ee575b600080fd5b6100b3600480360360208110156100a357600080fd5b50356001600160a01b0316610165565b005b6100bd6101db565b604080519115158252519081900360200190f35b6100b3600480360360208110156100e757600080fd5b5035610202565b6100b36004803603602081101561010457600080fd5b5035610506565b6101136107f9565b604080516001600160a01b039092168252519081900360200190f35b6100b3610808565b6101136108bc565b6100b36004803603602081101561015557600080fd5b50356001600160a01b03166108cb565b61016d6109d6565b6001546001600160a01b039081169116146101cf576040805162461bcd60e51b815260206004820181905260248201527f4f776e61626c653a2063616c6c6572206973206e6f7420746865206f776e6572604482015290519081900360640190fd5b6101d8816109da565b50565b6002546000906001600160a01b03166101f26109d6565b6001600160a01b03161490505b90565b61020a610a77565b156102465760405162461bcd60e51b8152600401808060200182810382526026815260200180610dc06026913960400191505060405180910390fd5b61024e610a96565b1561028a5760405162461bcd60e51b8152600401808060200182810382526026815260200180610dc06026913960400191505060405180910390fd5b600081116102c95760405162461bcd60e51b815260040180806020018281038252602f815260200180610ca8602f913960400191505060405180910390fd5b60006102d3610ab5565b60048054604080516323b872dd60e01b8152339381019390935230602484015260448301869052519293506000926001600160a01b03909116916323b872dd91606480830192602092919082900301818787803b15801561033357600080fd5b505af1158015610347573d6000803e3d6000fd5b505050506040513d602081101561035d57600080fd5b505190508061039d5760405162461bcd60e51b815260040180806020018281038252603f815260200180610d81603f913960400191505060405180910390fd5b60006103b76305f5e1006103b18587610b61565b90610bac565b600480546040805163a9059cbb60e01b8152339381019390935260248301889052519293506000926001600160a01b039091169163a9059cbb91604480830192602092919082900301818787803b15801561041157600080fd5b505af1158015610425573d6000803e3d6000fd5b505050506040513d602081101561043b57600080fd5b505190508061047b5760405162461bcd60e51b815260040180806020018281038252603f815260200180610d81603f913960400191505060405180910390fd5b600354604080513381526001600160a01b039092166020830152818101849052517f0531f4551390f79cb112ef5f4d541ba683a40e3ec29760def426f2e004dc0bad9181900360600190a15050436000908152602081815260408083203284529091528082208054600160ff1991821681179092553384529190922080549091169091179055505050565b61050e610a77565b1561054a5760405162461bcd60e51b8152600401808060200182810382526026815260200180610dc06026913960400191505060405180910390fd5b610552610a96565b1561058e5760405162461bcd60e51b8152600401808060200182810382526026815260200180610dc06026913960400191505060405180910390fd5b600081116105cd5760405162461bcd60e51b815260040180806020018281038252602f815260200180610ca8602f913960400191505060405180910390fd5b60006105d7610ab5565b600354604080516323b872dd60e01b81523360048201523060248201526044810186905290519293506000926001600160a01b03909216916323b872dd9160648082019260209290919082900301818787803b15801561063657600080fd5b505af115801561064a573d6000803e3d6000fd5b505050506040513d602081101561066057600080fd5b50519050806106a05760405162461bcd60e51b815260040180806020018281038252603f815260200180610d81603f913960400191505060405180910390fd5b60006106ba6305f5e1006106b48587610bac565b90610b61565b600480546040805163a9059cbb60e01b8152339381019390935260248301889052519293506000926001600160a01b039091169163a9059cbb91604480830192602092919082900301818787803b15801561071457600080fd5b505af1158015610728573d6000803e3d6000fd5b505050506040513d602081101561073e57600080fd5b505190508061077e5760405162461bcd60e51b815260040180806020018281038252603f815260200180610d81603f913960400191505060405180910390fd5b604080513381526020810184905281517ffd477c8bdbfd7c63a6e4fdd52efe834502612eda6845489474bb230df930910d929181900390910190a15050436000908152602081815260408083203284529091528082208054600160ff1991821681179092553384529190922080549091169091179055505050565b6002546001600160a01b031690565b6108106109d6565b6001546001600160a01b03908116911614610872576040805162461bcd60e51b815260206004820181905260248201527f4f776e61626c653a2063616c6c6572206973206e6f7420746865206f776e6572604482015290519081900360640190fd5b6001546040516000916001600160a01b0316907f8be0079c531659141344cd1fd0a4f28419497f9722a3daafe3b4186f6b6457e0908390a3600180546001600160a01b0319169055565b6001546001600160a01b031690565b6108d36109d6565b6001546001600160a01b03908116911614610935576040805162461bcd60e51b815260206004820181905260248201527f4f776e61626c653a2063616c6c6572206973206e6f7420746865206f776e6572604482015290519081900360640190fd5b6001600160a01b03811661097a5760405162461bcd60e51b8152600401808060200182810382526026815260200180610cd76026913960400191505060405180910390fd5b6001546040516001600160a01b038084169216907f8be0079c531659141344cd1fd0a4f28419497f9722a3daafe3b4186f6b6457e090600090a3600180546001600160a01b0319166001600160a01b0392909216919091179055565b3390565b6001600160a01b038116610a1f5760405162461bcd60e51b815260040180806020018281038252602d815260200180610cfd602d913960400191505060405180910390fd5b6040516001600160a01b038216906000907f74da04524d50c64947f5dd5381ef1a4dca5cba8ed1d816243f9e48aa0b5617ed908290a3600280546001600160a01b0319166001600160a01b0392909216919091179055565b4360009081526020818152604080832032845290915290205460ff1690565b4360009081526020818152604080832033845290915290205460ff1690565b60055460408051638e15f47360e01b815290516000926001600160a01b031691638e15f473916004808301926020929190829003018186803b158015610afa57600080fd5b505afa925050508015610b1f57506040513d6020811015610b1a57600080fd5b505160015b610b5a5760405162461bcd60e51b8152600401808060200182810382526036815260200180610d4b6036913960400191505060405180910390fd5b90506101ff565b6000610ba383836040518060400160405280601a81526020017f536166654d6174683a206469766973696f6e206279207a65726f000000000000815250610c05565b90505b92915050565b600082610bbb57506000610ba6565b82820282848281610bc857fe5b0414610ba35760405162461bcd60e51b8152600401808060200182810382526021815260200180610d2a6021913960400191505060405180910390fd5b60008183610c915760405162461bcd60e51b81526004018080602001828103825283818151815260200191508051906020019080838360005b83811015610c56578181015183820152602001610c3e565b50505050905090810190601f168015610c835780820380516001836020036101000a031916815260200191505b509250505060405180910390fd5b506000838581610c9d57fe5b049594505050505056fe45786368616e67653a2063616e6e6f7420707572636861736520436173682077697468207a65726f20616d6f756e744f776e61626c653a206e6577206f776e657220697320746865207a65726f20616464726573736f70657261746f723a207a65726f206164647265737320676976656e20666f72206e6577206f70657261746f72536166654d6174683a206d756c7469706c69636174696f6e206f766572666c6f7745786368616e67653a206661696c656420746f20636f6e73756c7420636173682070726963652066726f6d20746865206f7261636c6545786368616e67653a206661696c656420746f207472616e7366657220636f6c6c61746572616c2066726f6d2073656e64657220746f2065786368616e6765436f6e747261637447756172643a206f6e6520626c6f636b2c206f6e652066756e6374696f6ea264697066735822122077f794a590d26edb3162ae9380355a6d5aa73733d5df2cad11e75c505635dd6d64736f6c634300060c0033",
  "linkReferences": {},
  "deployedLinkReferences": {}
}