{
  "_format": "hh-sol-artifact-1",
  "contractName": "ChildStandardMintableERC20",
  "sourceName": "contracts/bridge/StandardMaticEIP712+MetaTransaction.sol",
  "abi": [
    {
      "inputs": [
        {
          "internalType": "address",
          "name": "childChainManager",
          "type": "address"
        }
      ],
      "stateMutability": "nonpayable",
      "type": "constructor"
    },
    {
      "anonymous": false,
      "inputs": [
        {
          "indexed": true,
          "internalType": "address",
          "name": "owner",
          "type": "address"
        },
        {
          "indexed": true,
          "internalType": "address",
          "name": "spender",
          "type": "address"
        },
        {
          "indexed": false,
          "internalType": "uint256",
          "name": "value",
          "type": "uint256"
        }
      ],
      "name": "Approval",
      "type": "event"
    },
    {
      "anonymous": false,
      "inputs": [
        {
          "indexed": true,
          "internalType": "address",
          "name": "previousAddress",
          "type": "address"
        },
        {
          "indexed": true,
          "internalType": "address",
          "name": "newAddress",
          "type": "address"
        }
      ],
      "name": "ChildChainChanged",
      "type": "event"
    },
    {
      "anonymous": false,
      "inputs": [
        {
          "indexed": false,
          "internalType": "address",
          "name": "userAddress",
          "type": "address"
        },
        {
          "indexed": false,
          "internalType": "address",
          "name": "relayerAddress",
          "type": "address"
        },
        {
          "indexed": false,
          "internalType": "bytes",
          "name": "functionSignature",
          "type": "bytes"
        }
      ],
      "name": "MetaTransactionExecuted",
      "type": "event"
    },
    {
      "anonymous": false,
      "inputs": [
        {
          "indexed": true,
          "internalType": "bytes32",
          "name": "role",
          "type": "bytes32"
        },
        {
          "indexed": true,
          "internalType": "bytes32",
          "name": "previousAdminRole",
          "type": "bytes32"
        },
        {
          "indexed": true,
          "internalType": "bytes32",
          "name": "newAdminRole",
          "type": "bytes32"
        }
      ],
      "name": "RoleAdminChanged",
      "type": "event"
    },
    {
      "anonymous": false,
      "inputs": [
        {
          "indexed": true,
          "internalType": "bytes32",
          "name": "role",
          "type": "bytes32"
        },
        {
          "indexed": true,
          "internalType": "address",
          "name": "account",
          "type": "address"
        },
        {
          "indexed": true,
          "internalType": "address",
          "name": "sender",
          "type": "address"
        }
      ],
      "name": "RoleGranted",
      "type": "event"
    },
    {
      "anonymous": false,
      "inputs": [
        {
          "indexed": true,
          "internalType": "bytes32",
          "name": "role",
          "type": "bytes32"
        },
        {
          "indexed": true,
          "internalType": "address",
          "name": "account",
          "type": "address"
        },
        {
          "indexed": true,
          "internalType": "address",
          "name": "sender",
          "type": "address"
        }
      ],
      "name": "RoleRevoked",
      "type": "event"
    },
    {
      "anonymous": false,
      "inputs": [
        {
          "indexed": true,
          "internalType": "address",
          "name": "from",
          "type": "address"
        },
        {
          "indexed": true,
          "internalType": "address",
          "name": "to",
          "type": "address"
        },
        {
          "indexed": false,
          "internalType": "uint256",
          "name": "value",
          "type": "uint256"
        }
      ],
      "name": "Transfer",
      "type": "event"
    },
    {
      "inputs": [],
      "name": "DEFAULT_ADMIN_ROLE",
      "outputs": [
        {
          "internalType": "bytes32",
          "name": "",
          "type": "bytes32"
        }
      ],
      "stateMutability": "view",
      "type": "function"
    },
    {
      "inputs": [],
      "name": "DEPOSITOR_ROLE",
      "outputs": [
        {
          "internalType": "bytes32",
          "name": "",
          "type": "bytes32"
        }
      ],
      "stateMutability": "view",
      "type": "function"
    },
    {
      "inputs": [],
      "name": "ERC712_VERSION",
      "outputs": [
        {
          "internalType": "string",
          "name": "",
          "type": "string"
        }
      ],
      "stateMutability": "view",
      "type": "function"
    },
    {
      "inputs": [
        {
          "internalType": "address",
          "name": "",
          "type": "address"
        },
        {
          "internalType": "address",
          "name": "",
          "type": "address"
        }
      ],
      "name": "allowance",
      "outputs": [
        {
          "internalType": "uint256",
          "name": "",
          "type": "uint256"
        }
      ],
      "stateMutability": "pure",
      "type": "function"
    },
    {
      "inputs": [
        {
          "internalType": "address",
          "name": "",
          "type": "address"
        },
        {
          "internalType": "uint256",
          "name": "",
          "type": "uint256"
        }
      ],
      "name": "approve",
      "outputs": [
        {
          "internalType": "bool",
          "name": "",
          "type": "bool"
        }
      ],
      "stateMutability": "pure",
      "type": "function"
    },
    {
      "inputs": [
        {
          "internalType": "address",
          "name": "account",
          "type": "address"
        }
      ],
      "name": "balanceOf",
      "outputs": [
        {
          "internalType": "uint256",
          "name": "",
          "type": "uint256"
        }
      ],
      "stateMutability": "view",
      "type": "function"
    },
    {
      "inputs": [
        {
          "internalType": "address",
          "name": "newAddress",
          "type": "address"
        }
      ],
      "name": "changeChildChain",
      "outputs": [],
      "stateMutability": "nonpayable",
      "type": "function"
    },
    {
      "inputs": [],
      "name": "childChainManagerProxy",
      "outputs": [
        {
          "internalType": "address",
          "name": "",
          "type": "address"
        }
      ],
      "stateMutability": "view",
      "type": "function"
    },
    {
      "inputs": [],
      "name": "decimals",
      "outputs": [
        {
          "internalType": "uint8",
          "name": "",
          "type": "uint8"
        }
      ],
      "stateMutability": "view",
      "type": "function"
    },
    {
      "inputs": [
        {
          "internalType": "address",
          "name": "user",
          "type": "address"
        },
        {
          "internalType": "bytes",
          "name": "depositData",
          "type": "bytes"
        }
      ],
      "name": "deposit",
      "outputs": [],
      "stateMutability": "nonpayable",
      "type": "function"
    },
    {
      "inputs": [
        {
          "internalType": "address",
          "name": "userAddress",
          "type": "address"
        },
        {
          "internalType": "bytes",
          "name": "functionSignature",
          "type": "bytes"
        },
        {
          "internalType": "bytes32",
          "name": "sigR",
          "type": "bytes32"
        },
        {
          "internalType": "bytes32",
          "name": "sigS",
          "type": "bytes32"
        },
        {
          "internalType": "uint8",
          "name": "sigV",
          "type": "uint8"
        }
      ],
      "name": "executeMetaTransaction",
      "outputs": [
        {
          "internalType": "bytes",
          "name": "",
          "type": "bytes"
        }
      ],
      "stateMutability": "payable",
      "type": "function"
    },
    {
      "inputs": [],
      "name": "getChainId",
      "outputs": [
        {
          "internalType": "uint256",
          "name": "",
          "type": "uint256"
        }
      ],
      "stateMutability": "view",
      "type": "function"
    },
    {
      "inputs": [],
      "name": "getDomainSeperator",
      "outputs": [
        {
          "internalType": "bytes32",
          "name": "",
          "type": "bytes32"
        }
      ],
      "stateMutability": "view",
      "type": "function"
    },
    {
      "inputs": [
        {
          "internalType": "address",
          "name": "user",
          "type": "address"
        }
      ],
      "name": "getNonce",
      "outputs": [
        {
          "internalType": "uint256",
          "name": "nonce",
          "type": "uint256"
        }
      ],
      "stateMutability": "view",
      "type": "function"
    },
    {
      "inputs": [
        {
          "internalType": "bytes32",
          "name": "role",
          "type": "bytes32"
        }
      ],
      "name": "getRoleAdmin",
      "outputs": [
        {
          "internalType": "bytes32",
          "name": "",
          "type": "bytes32"
        }
      ],
      "stateMutability": "view",
      "type": "function"
    },
    {
      "inputs": [
        {
          "internalType": "bytes32",
          "name": "role",
          "type": "bytes32"
        },
        {
          "internalType": "uint256",
          "name": "index",
          "type": "uint256"
        }
      ],
      "name": "getRoleMember",
      "outputs": [
        {
          "internalType": "address",
          "name": "",
          "type": "address"
        }
      ],
      "stateMutability": "view",
      "type": "function"
    },
    {
      "inputs": [
        {
          "internalType": "bytes32",
          "name": "role",
          "type": "bytes32"
        }
      ],
      "name": "getRoleMemberCount",
      "outputs": [
        {
          "internalType": "uint256",
          "name": "",
          "type": "uint256"
        }
      ],
      "stateMutability": "view",
      "type": "function"
    },
    {
      "inputs": [
        {
          "internalType": "bytes32",
          "name": "role",
          "type": "bytes32"
        },
        {
          "internalType": "address",
          "name": "account",
          "type": "address"
        }
      ],
      "name": "grantRole",
      "outputs": [],
      "stateMutability": "nonpayable",
      "type": "function"
    },
    {
      "inputs": [
        {
          "internalType": "bytes32",
          "name": "role",
          "type": "bytes32"
        },
        {
          "internalType": "address",
          "name": "account",
          "type": "address"
        }
      ],
      "name": "hasRole",
      "outputs": [
        {
          "internalType": "bool",
          "name": "",
          "type": "bool"
        }
      ],
      "stateMutability": "view",
      "type": "function"
    },
    {
      "inputs": [],
      "name": "name",
      "outputs": [
        {
          "internalType": "string",
          "name": "",
          "type": "string"
        }
      ],
      "stateMutability": "view",
      "type": "function"
    },
    {
      "inputs": [],
      "name": "parent",
      "outputs": [
        {
          "internalType": "address",
          "name": "",
          "type": "address"
        }
      ],
      "stateMutability": "view",
      "type": "function"
    },
    {
      "inputs": [
        {
          "internalType": "bytes32",
          "name": "role",
          "type": "bytes32"
        },
        {
          "internalType": "address",
          "name": "account",
          "type": "address"
        }
      ],
      "name": "renounceRole",
      "outputs": [],
      "stateMutability": "nonpayable",
      "type": "function"
    },
    {
      "inputs": [
        {
          "internalType": "bytes32",
          "name": "role",
          "type": "bytes32"
        },
        {
          "internalType": "address",
          "name": "account",
          "type": "address"
        }
      ],
      "name": "revokeRole",
      "outputs": [],
      "stateMutability": "nonpayable",
      "type": "function"
    },
    {
      "inputs": [
        {
          "internalType": "address",
          "name": "_parent",
          "type": "address"
        }
      ],
      "name": "setParent",
      "outputs": [],
      "stateMutability": "nonpayable",
      "type": "function"
    },
    {
      "inputs": [
        {
          "internalType": "bytes4",
          "name": "interfaceId",
          "type": "bytes4"
        }
      ],
      "name": "supportsInterface",
      "outputs": [
        {
          "internalType": "bool",
          "name": "",
          "type": "bool"
        }
      ],
      "stateMutability": "view",
      "type": "function"
    },
    {
      "inputs": [],
      "name": "symbol",
      "outputs": [
        {
          "internalType": "string",
          "name": "",
          "type": "string"
        }
      ],
      "stateMutability": "view",
      "type": "function"
    },
    {
      "inputs": [],
      "name": "totalSupply",
      "outputs": [
        {
          "internalType": "uint256",
          "name": "",
          "type": "uint256"
        }
      ],
      "stateMutability": "view",
      "type": "function"
    },
    {
      "inputs": [
        {
          "internalType": "address",
          "name": "to",
          "type": "address"
        },
        {
          "internalType": "uint256",
          "name": "value",
          "type": "uint256"
        }
      ],
      "name": "transfer",
      "outputs": [
        {
          "internalType": "bool",
          "name": "",
          "type": "bool"
        }
      ],
      "stateMutability": "nonpayable",
      "type": "function"
    },
    {
      "inputs": [
        {
          "internalType": "address",
          "name": "",
          "type": "address"
        },
        {
          "internalType": "address",
          "name": "",
          "type": "address"
        },
        {
          "internalType": "uint256",
          "name": "",
          "type": "uint256"
        }
      ],
      "name": "transferFrom",
      "outputs": [
        {
          "internalType": "bool",
          "name": "",
          "type": "bool"
        }
      ],
      "stateMutability": "pure",
      "type": "function"
    },
    {
      "inputs": [
        {
          "internalType": "uint256",
          "name": "amount",
          "type": "uint256"
        }
      ],
      "name": "withdraw",
      "outputs": [],
      "stateMutability": "nonpayable",
      "type": "function"
    }
  ],
  "bytecode": "0x60806040526006805460ff191690553480156200001b57600080fd5b506040516200311f3803806200311f8339810160408190526200003e91620004c5565b604080518082018252600881526714dd185b99185c9960c21b60208083019182528351808501909452600484526314d5139160e21b9084015281519192916200008a916002916200041f565b508051620000a09060039060208401906200041f565b50620000bb915060009050620000b562000133565b6200014f565b620000e77f8f4f2da22e8ac8f11e15f9fc141cddbb5deea8800186560abb6e68c5496619a9826200014f565b600a80546001600160a01b0319166001600160a01b03831617905560408051808201909152600881526714dd185b99185c9960c21b60208201526200012c9062000192565b5062000532565b60006200014a620001f660201b620012091760201c565b905090565b6200016682826200025560201b620012731760201c565b60008281526005602090815260409091206200018d9183906200128162000265821b17901c565b505050565b60065460ff1615620001db5760405162461bcd60e51b815260206004820152600e60248201526d185b1c9958591e481a5b9a5d195960921b604482015260640160405180910390fd5b620001e68162000285565b506006805460ff19166001179055565b6000333014156200024f57600080368080601f0160208091040260200160405190810160405280939291908181526020018383808284376000920191909152505050503601516001600160a01b03169150620002529050565b50335b90565b62000261828262000327565b5050565b60006200027c836001600160a01b038416620003cd565b90505b92915050565b6040518060800160405280604f8152602001620030d0604f9139805160209182012082519282019290922060408051808201825260018152603160f81b90840152805180840194909452838101919091527fc89efdaa54c0f20c7adf612882df0950f5a951637e0307cdcb4c672f298b8bc660608401523060808401524660a0808501919091528151808503909101815260c090930190528151910120600755565b60008281526004602090815260408083206001600160a01b038516845290915290205460ff16620002615760008281526004602090815260408083206001600160a01b03851684529091529020805460ff191660011790556200038962000133565b6001600160a01b0316816001600160a01b0316837f2f8788117e7eff1d82e926ec794901d17c78024a50270940304540a733656f0d60405160405180910390a45050565b600081815260018301602052604081205462000416575081546001818101845560008481526020808220909301849055845484825282860190935260409020919091556200027f565b5060006200027f565b8280546200042d90620004f5565b90600052602060002090601f0160209004810192826200045157600085556200049c565b82601f106200046c57805160ff19168380011785556200049c565b828001600101855582156200049c579182015b828111156200049c5782518255916020019190600101906200047f565b50620004aa929150620004ae565b5090565b5b80821115620004aa5760008155600101620004af565b600060208284031215620004d7578081fd5b81516001600160a01b0381168114620004ee578182fd5b9392505050565b600181811c908216806200050a57607f821691505b602082108114156200052c57634e487b7160e01b600052602260045260246000fd5b50919050565b612b8e80620005426000396000f3fe6080604052600436106101cd5760003560e01c806336568abe116100f7578063a217fddf11610095578063cf2c52cb11610064578063cf2c52cb146105eb578063d547741f1461060b578063dd62ed3e1461062b578063ed9ef5241461064657600080fd5b8063a217fddf14610562578063a3b0b5a314610577578063a9059cbb146105ab578063ca15c873146105cb57600080fd5b806370a08231116100d157806370a08231146104975780639010d07c146104da57806391d14854146104fa57806395d89b411461054d57600080fd5b806336568abe146103f857806360f96a8f1461041857806362f629e71461046a57600080fd5b806320379ee51161016f5780632e1a7d4d1161013e5780632e1a7d4d146103895780632f2ff15d146103a9578063313ce567146103c95780633408e470146103e557600080fd5b806320379ee5146102e657806323b872dd146102fb578063248a9ca3146103165780632d0335ab1461034657600080fd5b80630c53c51c116101ab5780630c53c51c146102495780630f7e59701461025c5780631499c592146102a557806318160ddd146102c757600080fd5b806301ffc9a7146101d257806306fdde0314610207578063095ea7b314610229575b600080fd5b3480156101de57600080fd5b506101f26101ed3660046127d0565b610666565b60405190151581526020015b60405180910390f35b34801561021357600080fd5b5061021c6106c2565b6040516101fe9190612983565b34801561023557600080fd5b506101f261024436600461272c565b610754565b61021c61025736600461262f565b6107e4565b34801561026857600080fd5b5061021c6040518060400160405280600181526020017f310000000000000000000000000000000000000000000000000000000000000081525081565b3480156102b157600080fd5b506102c56102c036600461252a565b610a70565b005b3480156102d357600080fd5b506001545b6040519081526020016101fe565b3480156102f257600080fd5b506007546102d8565b34801561030757600080fd5b506101f2610244366004612576565b34801561032257600080fd5b506102d8610331366004612775565b60009081526004602052604090206001015490565b34801561035257600080fd5b506102d861036136600461252a565b73ffffffffffffffffffffffffffffffffffffffff1660009081526008602052604090205490565b34801561039557600080fd5b506102c56103a4366004612775565b610b70565b3480156103b557600080fd5b506102c56103c436600461278d565b610cd4565b3480156103d557600080fd5b50604051601281526020016101fe565b3480156103f157600080fd5b50466102d8565b34801561040457600080fd5b506102c561041336600461278d565b610cfb565b34801561042457600080fd5b506009546104459073ffffffffffffffffffffffffffffffffffffffff1681565b60405173ffffffffffffffffffffffffffffffffffffffff90911681526020016101fe565b34801561047657600080fd5b50600a546104459073ffffffffffffffffffffffffffffffffffffffff1681565b3480156104a357600080fd5b506102d86104b236600461252a565b73ffffffffffffffffffffffffffffffffffffffff1660009081526020819052604090205490565b3480156104e657600080fd5b506104456104f53660046127af565b610d1d565b34801561050657600080fd5b506101f261051536600461278d565b600091825260046020908152604080842073ffffffffffffffffffffffffffffffffffffffff93909316845291905290205460ff1690565b34801561055957600080fd5b5061021c610d3c565b34801561056e57600080fd5b506102d8600081565b34801561058357600080fd5b506102d87f8f4f2da22e8ac8f11e15f9fc141cddbb5deea8800186560abb6e68c5496619a981565b3480156105b757600080fd5b506101f26105c636600461272c565b610d4b565b3480156105d757600080fd5b506102d86105e6366004612775565b610eb9565b3480156105f757600080fd5b506102c56106063660046125b1565b610ed0565b34801561061757600080fd5b506102c561062636600461278d565b610fa8565b34801561063757600080fd5b506102d8610244366004612544565b34801561065257600080fd5b506102c561066136600461252a565b610fb2565b60007fffffffff0000000000000000000000000000000000000000000000000000000082167f5a05180f0000000000000000000000000000000000000000000000000000000014806106bc57506106bc826112a3565b92915050565b6060600280546106d190612a63565b80601f01602080910402602001604051908101604052809291908181526020018280546106fd90612a63565b801561074a5780601f1061071f5761010080835404028352916020019161074a565b820191906000526020600020905b81548152906001019060200180831161072d57829003601f168201915b5050505050905090565b6040517f08c379a000000000000000000000000000000000000000000000000000000000815260206004820152602c60248201527f4368696c645374616e646172644d696e7461626c6545524332303a204469736160448201527f626c65642066656174757265000000000000000000000000000000000000000060648201526000906084015b60405180910390fd5b604080516060818101835273ffffffffffffffffffffffffffffffffffffffff88166000818152600860209081529085902054845283015291810186905261082f878287878761133a565b6108bb576040517f08c379a000000000000000000000000000000000000000000000000000000000815260206004820152602160248201527f5369676e657220616e64207369676e617475726520646f206e6f74206d61746360448201527f680000000000000000000000000000000000000000000000000000000000000060648201526084016107db565b73ffffffffffffffffffffffffffffffffffffffff87166000908152600860205260409020546108ec906001612996565b73ffffffffffffffffffffffffffffffffffffffff88166000908152600860205260409081902091909155517f5845892132946850460bff5a0083f71031bc5bf9aadcd40f1de79423eac9b10b9061094990899033908a90612941565b60405180910390a16000803073ffffffffffffffffffffffffffffffffffffffff16888a60405160200161097e929190612876565b604080517fffffffffffffffffffffffffffffffffffffffffffffffffffffffffffffffe0818403018152908290526109b69161285a565b6000604051808303816000865af19150503d80600081146109f3576040519150601f19603f3d011682016040523d82523d6000602084013e6109f8565b606091505b509150915081610a64576040517f08c379a000000000000000000000000000000000000000000000000000000000815260206004820152601c60248201527f46756e6374696f6e2063616c6c206e6f74207375636365737366756c0000000060448201526064016107db565b98975050505050505050565b610a7d6000610515611483565b610b09576040517f08c379a000000000000000000000000000000000000000000000000000000000815260206004820152603e60248201527f4368696c645374616e646172644d696e7461626c6545524332303a206d75737460448201527f20686176652061646d696e20726f6c6520746f2073657420706172656e74000060648201526084016107db565b73ffffffffffffffffffffffffffffffffffffffff8116610b2957600080fd5b600980547fffffffffffffffffffffffff00000000000000000000000000000000000000001673ffffffffffffffffffffffffffffffffffffffff92909216919091179055565b60095473ffffffffffffffffffffffffffffffffffffffff1615801590610c345750600960009054906101000a900473ffffffffffffffffffffffffffffffffffffffff1673ffffffffffffffffffffffffffffffffffffffff16635c975abb6040518163ffffffff1660e01b815260040160206040518083038186803b158015610bfa57600080fd5b505afa158015610c0e573d6000803e3d6000fd5b505050506040513d601f19601f82011682018060405250810190610c329190612755565b155b610cc0576040517f08c379a000000000000000000000000000000000000000000000000000000000815260206004820152603b60248201527f4368696c645374616e646172644d696e7461626c6545524332303a207061726560448201527f6e7420746f6b656e20636f6e747261637420697320706175736564000000000060648201526084016107db565b610cd1610ccb611483565b82611492565b50565b610cde8282611688565b6000828152600560205260409020610cf69082611281565b505050565b610d0582826116b5565b6000828152600560205260409020610cf69082611781565b6000828152600560205260408120610d3590836117a3565b9392505050565b6060600380546106d190612a63565b60095460009073ffffffffffffffffffffffffffffffffffffffff1615801590610e125750600960009054906101000a900473ffffffffffffffffffffffffffffffffffffffff1673ffffffffffffffffffffffffffffffffffffffff16635c975abb6040518163ffffffff1660e01b815260040160206040518083038186803b158015610dd857600080fd5b505afa158015610dec573d6000803e3d6000fd5b505050506040513d601f19601f82011682018060405250810190610e109190612755565b155b610e9e576040517f08c379a000000000000000000000000000000000000000000000000000000000815260206004820152603b60248201527f4368696c645374616e646172644d696e7461626c6545524332303a207061726560448201527f6e7420746f6b656e20636f6e747261637420697320706175736564000000000060648201526084016107db565b610eb0610ea9611483565b84846117af565b50600192915050565b60008181526005602052604081206106bc90611a6c565b610efc7f8f4f2da22e8ac8f11e15f9fc141cddbb5deea8800186560abb6e68c5496619a9610515611483565b610f88576040517f08c379a000000000000000000000000000000000000000000000000000000000815260206004820152603f60248201527f4368696c645374616e646172644d696e7461626c6545524332303a206d75737460448201527f2068617665206465706f7369746f7220726f6c6520746f206465706f7369740060648201526084016107db565b6000610f9682840184612775565b9050610fa28482611a76565b50505050565b610d058282611b96565b610fbf6000610515611483565b611071576040517f08c379a000000000000000000000000000000000000000000000000000000000815260206004820152604960248201527f4368696c645374616e646172644d696e7461626c6545524332303a206d75737460448201527f20686176652061646d696e20726f6c6520746f20736574206368696c6443686160648201527f696e4d616e616765720000000000000000000000000000000000000000000000608482015260a4016107db565b73ffffffffffffffffffffffffffffffffffffffff8116611114576040517f08c379a000000000000000000000000000000000000000000000000000000000815260206004820152603260248201527f4368696c6420746f6b656e3a206e6577206368696c642061646472657373206960448201527f7320746865207a65726f2061646472657373000000000000000000000000000060648201526084016107db565b600a5460405173ffffffffffffffffffffffffffffffffffffffff8084169216907f1f9f3556dd336016cdf20adaead7d5c73665dba664b60e8c17e9a4eb91ce1d3990600090a3600a5461119f907f8f4f2da22e8ac8f11e15f9fc141cddbb5deea8800186560abb6e68c5496619a99073ffffffffffffffffffffffffffffffffffffffff16610fa8565b600a80547fffffffffffffffffffffffff00000000000000000000000000000000000000001673ffffffffffffffffffffffffffffffffffffffff8316179055610cd17f8f4f2da22e8ac8f11e15f9fc141cddbb5deea8800186560abb6e68c5496619a982611bbe565b60003330141561126d57600080368080601f01602080910402602001604051908101604052809392919081815260200183838082843760009201919091525050505036015173ffffffffffffffffffffffffffffffffffffffff1691506112709050565b50335b90565b61127d8282611bc8565b5050565b6000610d358373ffffffffffffffffffffffffffffffffffffffff8416611cbd565b60007fffffffff0000000000000000000000000000000000000000000000000000000082167f7965db0b0000000000000000000000000000000000000000000000000000000014806106bc57507f01ffc9a7000000000000000000000000000000000000000000000000000000007fffffffff000000000000000000000000000000000000000000000000000000008316146106bc565b600073ffffffffffffffffffffffffffffffffffffffff86166113df576040517f08c379a000000000000000000000000000000000000000000000000000000000815260206004820152602560248201527f4e61746976654d6574615472616e73616374696f6e3a20494e56414c49445f5360448201527f49474e455200000000000000000000000000000000000000000000000000000060648201526084016107db565b60016113f26113ed87611d0c565b611d96565b6040805160008152602081018083529290925260ff851690820152606081018690526080810185905260a0016020604051602081039080840390855afa158015611440573d6000803e3d6000fd5b5050506020604051035173ffffffffffffffffffffffffffffffffffffffff168673ffffffffffffffffffffffffffffffffffffffff1614905095945050505050565b600061148d611209565b905090565b73ffffffffffffffffffffffffffffffffffffffff8216611535576040517f08c379a000000000000000000000000000000000000000000000000000000000815260206004820152602160248201527f45524332303a206275726e2066726f6d20746865207a65726f2061646472657360448201527f730000000000000000000000000000000000000000000000000000000000000060648201526084016107db565b73ffffffffffffffffffffffffffffffffffffffff8216600090815260208190526040902054818110156115eb576040517f08c379a000000000000000000000000000000000000000000000000000000000815260206004820152602260248201527f45524332303a206275726e20616d6f756e7420657863656564732062616c616e60448201527f636500000000000000000000000000000000000000000000000000000000000060648201526084016107db565b6115f582826129eb565b73ffffffffffffffffffffffffffffffffffffffff8416600090815260208190526040812091909155600180548492906116309084906129eb565b909155505060405182815260009073ffffffffffffffffffffffffffffffffffffffff8516907fddf252ad1be2c89b69c2b068fc378daa952ba7f163c4a11628f55a4df523b3ef9060200160405180910390a3505050565b6000828152600460205260409020600101546116ab816116a6611483565b611de1565b610cf68383611bc8565b6116bd611483565b73ffffffffffffffffffffffffffffffffffffffff168173ffffffffffffffffffffffffffffffffffffffff1614611777576040517f08c379a000000000000000000000000000000000000000000000000000000000815260206004820152602f60248201527f416363657373436f6e74726f6c3a2063616e206f6e6c792072656e6f756e636560448201527f20726f6c657320666f722073656c66000000000000000000000000000000000060648201526084016107db565b61127d8282611eb3565b6000610d358373ffffffffffffffffffffffffffffffffffffffff8416611fa6565b6000610d358383612108565b73ffffffffffffffffffffffffffffffffffffffff8316611852576040517f08c379a000000000000000000000000000000000000000000000000000000000815260206004820152602560248201527f45524332303a207472616e736665722066726f6d20746865207a65726f20616460448201527f647265737300000000000000000000000000000000000000000000000000000060648201526084016107db565b73ffffffffffffffffffffffffffffffffffffffff82166118f5576040517f08c379a000000000000000000000000000000000000000000000000000000000815260206004820152602360248201527f45524332303a207472616e7366657220746f20746865207a65726f206164647260448201527f657373000000000000000000000000000000000000000000000000000000000060648201526084016107db565b73ffffffffffffffffffffffffffffffffffffffff8316600090815260208190526040902054818110156119ab576040517f08c379a000000000000000000000000000000000000000000000000000000000815260206004820152602660248201527f45524332303a207472616e7366657220616d6f756e742065786365656473206260448201527f616c616e6365000000000000000000000000000000000000000000000000000060648201526084016107db565b6119b582826129eb565b73ffffffffffffffffffffffffffffffffffffffff80861660009081526020819052604080822093909355908516815290812080548492906119f8908490612996565b925050819055508273ffffffffffffffffffffffffffffffffffffffff168473ffffffffffffffffffffffffffffffffffffffff167fddf252ad1be2c89b69c2b068fc378daa952ba7f163c4a11628f55a4df523b3ef84604051611a5e91815260200190565b60405180910390a350505050565b60006106bc825490565b73ffffffffffffffffffffffffffffffffffffffff8216611af3576040517f08c379a000000000000000000000000000000000000000000000000000000000815260206004820152601f60248201527f45524332303a206d696e7420746f20746865207a65726f20616464726573730060448201526064016107db565b8060016000828254611b059190612996565b909155505073ffffffffffffffffffffffffffffffffffffffff821660009081526020819052604081208054839290611b3f908490612996565b909155505060405181815273ffffffffffffffffffffffffffffffffffffffff8316906000907fddf252ad1be2c89b69c2b068fc378daa952ba7f163c4a11628f55a4df523b3ef9060200160405180910390a35050565b600082815260046020526040902060010154611bb4816116a6611483565b610cf68383611eb3565b610cde8282611273565b600082815260046020908152604080832073ffffffffffffffffffffffffffffffffffffffff8516845290915290205460ff1661127d57600082815260046020908152604080832073ffffffffffffffffffffffffffffffffffffffff85168452909152902080547fffffffffffffffffffffffffffffffffffffffffffffffffffffffffffffff00166001179055611c5f611483565b73ffffffffffffffffffffffffffffffffffffffff168173ffffffffffffffffffffffffffffffffffffffff16837f2f8788117e7eff1d82e926ec794901d17c78024a50270940304540a733656f0d60405160405180910390a45050565b6000818152600183016020526040812054611d04575081546001818101845560008481526020808220909301849055845484825282860190935260409020919091556106bc565b5060006106bc565b6000604051806080016040528060438152602001612b166043913980516020918201208351848301516040808701518051908601209051611d799501938452602084019290925273ffffffffffffffffffffffffffffffffffffffff166040830152606082015260800190565b604051602081830303815290604052805190602001209050919050565b6000611da160075490565b6040517f19010000000000000000000000000000000000000000000000000000000000006020820152602281019190915260428101839052606201611d79565b600082815260046020908152604080832073ffffffffffffffffffffffffffffffffffffffff8516845290915290205460ff1661127d57611e398173ffffffffffffffffffffffffffffffffffffffff1660146121ea565b611e448360206121ea565b604051602001611e559291906128c0565b604080517fffffffffffffffffffffffffffffffffffffffffffffffffffffffffffffffe0818403018152908290527f08c379a00000000000000000000000000000000000000000000000000000000082526107db91600401612983565b600082815260046020908152604080832073ffffffffffffffffffffffffffffffffffffffff8516845290915290205460ff161561127d57600082815260046020908152604080832073ffffffffffffffffffffffffffffffffffffffff85168452909152902080547fffffffffffffffffffffffffffffffffffffffffffffffffffffffffffffff00169055611f48611483565b73ffffffffffffffffffffffffffffffffffffffff168173ffffffffffffffffffffffffffffffffffffffff16837ff6391f5c32d9c69d2a47ea670b442974b53935d1edc7fd64eb21e047a839171b60405160405180910390a45050565b600081815260018301602052604081205480156120fe576000611fca6001836129eb565b8554909150600090611fde906001906129eb565b9050600086600001828154811061201e577f4e487b7100000000000000000000000000000000000000000000000000000000600052603260045260246000fd5b9060005260206000200154905080876000018481548110612068577f4e487b7100000000000000000000000000000000000000000000000000000000600052603260045260246000fd5b6000918252602080832090910192909255828152600189019091526040902084905586548790806120c2577f4e487b7100000000000000000000000000000000000000000000000000000000600052603160045260246000fd5b600190038181906000526020600020016000905590558660010160008781526020019081526020016000206000905560019450505050506106bc565b60009150506106bc565b8154600090821061219b576040517f08c379a000000000000000000000000000000000000000000000000000000000815260206004820152602260248201527f456e756d657261626c655365743a20696e646578206f7574206f6620626f756e60448201527f647300000000000000000000000000000000000000000000000000000000000060648201526084016107db565b8260000182815481106121d7577f4e487b7100000000000000000000000000000000000000000000000000000000600052603260045260246000fd5b9060005260206000200154905092915050565b606060006121f98360026129ae565b612204906002612996565b67ffffffffffffffff811115612243577f4e487b7100000000000000000000000000000000000000000000000000000000600052604160045260246000fd5b6040519080825280601f01601f19166020018201604052801561226d576020820181803683370190505b5090507f3000000000000000000000000000000000000000000000000000000000000000816000815181106122cb577f4e487b7100000000000000000000000000000000000000000000000000000000600052603260045260246000fd5b60200101907effffffffffffffffffffffffffffffffffffffffffffffffffffffffffffff1916908160001a9053507f780000000000000000000000000000000000000000000000000000000000000081600181518110612355577f4e487b7100000000000000000000000000000000000000000000000000000000600052603260045260246000fd5b60200101907effffffffffffffffffffffffffffffffffffffffffffffffffffffffffffff1916908160001a90535060006123918460026129ae565b61239c906001612996565b90505b6001811115612487577f303132333435363738396162636465660000000000000000000000000000000085600f1660108110612404577f4e487b7100000000000000000000000000000000000000000000000000000000600052603260045260246000fd5b1a60f81b828281518110612441577f4e487b7100000000000000000000000000000000000000000000000000000000600052603260045260246000fd5b60200101907effffffffffffffffffffffffffffffffffffffffffffffffffffffffffffff1916908160001a90535060049490941c9361248081612a2e565b905061239f565b508315610d35576040517f08c379a000000000000000000000000000000000000000000000000000000000815260206004820181905260248201527f537472696e67733a20686578206c656e67746820696e73756666696369656e7460448201526064016107db565b803573ffffffffffffffffffffffffffffffffffffffff8116811461251457600080fd5b919050565b803560ff8116811461251457600080fd5b60006020828403121561253b578081fd5b610d35826124f0565b60008060408385031215612556578081fd5b61255f836124f0565b915061256d602084016124f0565b90509250929050565b60008060006060848603121561258a578081fd5b612593846124f0565b92506125a1602085016124f0565b9150604084013590509250925092565b6000806000604084860312156125c5578283fd5b6125ce846124f0565b9250602084013567ffffffffffffffff808211156125ea578384fd5b818601915086601f8301126125fd578384fd5b81358181111561260b578485fd5b87602082850101111561261c578485fd5b6020830194508093505050509250925092565b600080600080600060a08688031215612646578081fd5b61264f866124f0565b9450602086013567ffffffffffffffff8082111561266b578283fd5b818801915088601f83011261267e578283fd5b81358181111561269057612690612ae6565b604051601f82017fffffffffffffffffffffffffffffffffffffffffffffffffffffffffffffffe0908116603f011681019083821181831017156126d6576126d6612ae6565b816040528281528b60208487010111156126ee578586fd5b826020860160208301379182016020018590525095505050604086013592506060860135915061272060808701612519565b90509295509295909350565b6000806040838503121561273e578182fd5b612747836124f0565b946020939093013593505050565b600060208284031215612766578081fd5b81518015158114610d35578182fd5b600060208284031215612786578081fd5b5035919050565b6000806040838503121561279f578182fd5b8235915061256d602084016124f0565b600080604083850312156127c1578182fd5b50508035926020909101359150565b6000602082840312156127e1578081fd5b81357fffffffff0000000000000000000000000000000000000000000000000000000081168114610d35578182fd5b60008151808452612828816020860160208601612a02565b601f017fffffffffffffffffffffffffffffffffffffffffffffffffffffffffffffffe0169290920160200192915050565b6000825161286c818460208701612a02565b9190910192915050565b60008351612888818460208801612a02565b60609390931b7fffffffffffffffffffffffffffffffffffffffff000000000000000000000000169190920190815260140192915050565b7f416363657373436f6e74726f6c3a206163636f756e74200000000000000000008152600083516128f8816017850160208801612a02565b7f206973206d697373696e6720726f6c65200000000000000000000000000000006017918401918201528351612935816028840160208801612a02565b01602801949350505050565b600073ffffffffffffffffffffffffffffffffffffffff80861683528085166020840152506060604083015261297a6060830184612810565b95945050505050565b602081526000610d356020830184612810565b600082198211156129a9576129a9612ab7565b500190565b6000817fffffffffffffffffffffffffffffffffffffffffffffffffffffffffffffffff04831182151516156129e6576129e6612ab7565b500290565b6000828210156129fd576129fd612ab7565b500390565b60005b83811015612a1d578181015183820152602001612a05565b83811115610fa25750506000910152565b600081612a3d57612a3d612ab7565b507fffffffffffffffffffffffffffffffffffffffffffffffffffffffffffffffff0190565b600181811c90821680612a7757607f821691505b60208210811415612ab1577f4e487b7100000000000000000000000000000000000000000000000000000000600052602260045260246000fd5b50919050565b7f4e487b7100000000000000000000000000000000000000000000000000000000600052601160045260246000fd5b7f4e487b7100000000000000000000000000000000000000000000000000000000600052604160045260246000fdfe4d6574615472616e73616374696f6e2875696e74323536206e6f6e63652c616464726573732066726f6d2c62797465732066756e6374696f6e5369676e617475726529a2646970667358221220500b34638f48c323c948b942e1b07c0723f9eba780a08f7efe7d887589648a4264736f6c63430008040033454950373132446f6d61696e28737472696e67206e616d652c737472696e672076657273696f6e2c6164647265737320766572696679696e67436f6e74726163742c627974657333322073616c7429",
  "linkReferences": {},
  "deployedLinkReferences": {}
}