{
  "_format": "hh-sol-artifact-1",
  "contractName": "EIP712Base",
  "sourceName": "contracts/bridge/StandardMaticEIP712+MetaTransaction.sol",
  "abi": [
    {
      "inputs": [],
      "name": "ERC712_VERSION",
      "outputs": [
        {
          "internalType": "string",
          "name": "",
          "type": "string"
        }
      ],
      "stateMutability": "view",
      "type": "function"
    },
    {
      "inputs": [],
      "name": "getChainId",
      "outputs": [
        {
          "internalType": "uint256",
          "name": "",
          "type": "uint256"
        }
      ],
      "stateMutability": "view",
      "type": "function"
    },
    {
      "inputs": [],
      "name": "getDomainSeperator",
      "outputs": [
        {
          "internalType": "bytes32",
          "name": "",
          "type": "bytes32"
        }
      ],
      "stateMutability": "view",
      "type": "function"
    }
  ],
  "bytecode": "0x60806040526000805460ff1916905534801561001a57600080fd5b506101578061002a6000396000f3fe608060405234801561001057600080fd5b50600436106100415760003560e01c80630f7e59701461004657806320379ee5146100985780633408e470146100aa575b600080fd5b6100826040518060400160405280600181526020017f310000000000000000000000000000000000000000000000000000000000000081525081565b60405161008f91906100b0565b60405180910390f35b6001545b60405190815260200161008f565b4661009c565b6000602080835283518082850152825b818110156100dc578581018301518582016040015282016100c0565b818111156100ed5783604083870101525b50601f017fffffffffffffffffffffffffffffffffffffffffffffffffffffffffffffffe01692909201604001939250505056fea26469706673582212207329e3e758f722c059d84fe389015083bba52069e1d5d01a6f8409e4b6229ca664736f6c63430008040033",
  "linkReferences": {},
  "deployedLinkReferences": {}
}