{
  "_format": "hh-sol-artifact-1",
  "contractName": "NativeMetaTransaction",
  "sourceName": "contracts/bridge/StandardMaticEIP712+MetaTransaction.sol",
  "abi": [
    {
      "anonymous": false,
      "inputs": [
        {
          "indexed": false,
          "internalType": "address",
          "name": "userAddress",
          "type": "address"
        },
        {
          "indexed": false,
          "internalType": "address",
          "name": "relayerAddress",
          "type": "address"
        },
        {
          "indexed": false,
          "internalType": "bytes",
          "name": "functionSignature",
          "type": "bytes"
        }
      ],
      "name": "MetaTransactionExecuted",
      "type": "event"
    },
    {
      "inputs": [],
      "name": "ERC712_VERSION",
      "outputs": [
        {
          "internalType": "string",
          "name": "",
          "type": "string"
        }
      ],
      "stateMutability": "view",
      "type": "function"
    },
    {
      "inputs": [
        {
          "internalType": "address",
          "name": "userAddress",
          "type": "address"
        },
        {
          "internalType": "bytes",
          "name": "functionSignature",
          "type": "bytes"
        },
        {
          "internalType": "bytes32",
          "name": "sigR",
          "type": "bytes32"
        },
        {
          "internalType": "bytes32",
          "name": "sigS",
          "type": "bytes32"
        },
        {
          "internalType": "uint8",
          "name": "sigV",
          "type": "uint8"
        }
      ],
      "name": "executeMetaTransaction",
      "outputs": [
        {
          "internalType": "bytes",
          "name": "",
          "type": "bytes"
        }
      ],
      "stateMutability": "payable",
      "type": "function"
    },
    {
      "inputs": [],
      "name": "getChainId",
      "outputs": [
        {
          "internalType": "uint256",
          "name": "",
          "type": "uint256"
        }
      ],
      "stateMutability": "view",
      "type": "function"
    },
    {
      "inputs": [],
      "name": "getDomainSeperator",
      "outputs": [
        {
          "internalType": "bytes32",
          "name": "",
          "type": "bytes32"
        }
      ],
      "stateMutability": "view",
      "type": "function"
    },
    {
      "inputs": [
        {
          "internalType": "address",
          "name": "user",
          "type": "address"
        }
      ],
      "name": "getNonce",
      "outputs": [
        {
          "internalType": "uint256",
          "name": "nonce",
          "type": "uint256"
        }
      ],
      "stateMutability": "view",
      "type": "function"
    }
  ],
  "bytecode": "0x60806040526000805460ff1916905534801561001a57600080fd5b506109678061002a6000396000f3fe60806040526004361061005a5760003560e01c806320379ee51161004357806320379ee5146100d15780632d0335ab146100f05780633408e4701461013357600080fd5b80630c53c51c1461005f5780630f7e597014610088575b600080fd5b61007261006d366004610650565b610146565b60405161007f919061083f565b60405180910390f35b34801561009457600080fd5b506100726040518060400160405280600181526020017f310000000000000000000000000000000000000000000000000000000000000081525081565b3480156100dd57600080fd5b506001545b60405190815260200161007f565b3480156100fc57600080fd5b506100e261010b36600461062f565b73ffffffffffffffffffffffffffffffffffffffff1660009081526002602052604090205490565b34801561013f57600080fd5b50466100e2565b604080516060818101835273ffffffffffffffffffffffffffffffffffffffff88166000818152600260209081529085902054845283015291810186905261019187828787876103d7565b610222576040517f08c379a000000000000000000000000000000000000000000000000000000000815260206004820152602160248201527f5369676e657220616e64207369676e617475726520646f206e6f74206d61746360448201527f680000000000000000000000000000000000000000000000000000000000000060648201526084015b60405180910390fd5b73ffffffffffffffffffffffffffffffffffffffff8716600090815260026020526040902054610253906001610852565b73ffffffffffffffffffffffffffffffffffffffff88166000908152600260205260409081902091909155517f5845892132946850460bff5a0083f71031bc5bf9aadcd40f1de79423eac9b10b906102b090899033908a906107fd565b60405180910390a16000803073ffffffffffffffffffffffffffffffffffffffff16888a6040516020016102e59291906107b3565b604080517fffffffffffffffffffffffffffffffffffffffffffffffffffffffffffffffe08184030181529082905261031d91610797565b6000604051808303816000865af19150503d806000811461035a576040519150601f19603f3d011682016040523d82523d6000602084013e61035f565b606091505b5091509150816103cb576040517f08c379a000000000000000000000000000000000000000000000000000000000815260206004820152601c60248201527f46756e6374696f6e2063616c6c206e6f74207375636365737366756c000000006044820152606401610219565b98975050505050505050565b600073ffffffffffffffffffffffffffffffffffffffff861661047c576040517f08c379a000000000000000000000000000000000000000000000000000000000815260206004820152602560248201527f4e61746976654d6574615472616e73616374696f6e3a20494e56414c49445f5360448201527f49474e45520000000000000000000000000000000000000000000000000000006064820152608401610219565b600161048f61048a87610520565b6105aa565b6040805160008152602081018083529290925260ff851690820152606081018690526080810185905260a0016020604051602081039080840390855afa1580156104dd573d6000803e3d6000fd5b5050506020604051035173ffffffffffffffffffffffffffffffffffffffff168673ffffffffffffffffffffffffffffffffffffffff1614905095945050505050565b60006040518060800160405280604381526020016108ef604391398051602091820120835184830151604080870151805190860120905161058d9501938452602084019290925273ffffffffffffffffffffffffffffffffffffffff166040830152606082015260800190565b604051602081830303815290604052805190602001209050919050565b60006105b560015490565b6040517f1901000000000000000000000000000000000000000000000000000000000000602082015260228101919091526042810183905260620161058d565b803573ffffffffffffffffffffffffffffffffffffffff8116811461061957600080fd5b919050565b803560ff8116811461061957600080fd5b600060208284031215610640578081fd5b610649826105f5565b9392505050565b600080600080600060a08688031215610667578081fd5b610670866105f5565b9450602086013567ffffffffffffffff8082111561068c578283fd5b818801915088601f83011261069f578283fd5b8135818111156106b1576106b16108bf565b604051601f82017fffffffffffffffffffffffffffffffffffffffffffffffffffffffffffffffe0908116603f011681019083821181831017156106f7576106f76108bf565b816040528281528b602084870101111561070f578586fd5b82602086016020830137918201602001859052509550505060408601359250606086013591506107416080870161061e565b90509295509295909350565b6000815180845261076581602086016020860161088f565b601f017fffffffffffffffffffffffffffffffffffffffffffffffffffffffffffffffe0169290920160200192915050565b600082516107a981846020870161088f565b9190910192915050565b600083516107c581846020880161088f565b60609390931b7fffffffffffffffffffffffffffffffffffffffff000000000000000000000000169190920190815260140192915050565b600073ffffffffffffffffffffffffffffffffffffffff808616835280851660208401525060606040830152610836606083018461074d565b95945050505050565b602081526000610649602083018461074d565b6000821982111561088a577f4e487b710000000000000000000000000000000000000000000000000000000081526011600452602481fd5b500190565b60005b838110156108aa578181015183820152602001610892565b838111156108b9576000848401525b50505050565b7f4e487b7100000000000000000000000000000000000000000000000000000000600052604160045260246000fdfe4d6574615472616e73616374696f6e2875696e74323536206e6f6e63652c616464726573732066726f6d2c62797465732066756e6374696f6e5369676e617475726529a264697066735822122030cd645d896f8bf1d22103dd5e53ac342e9f9309cbf65a082b62231c5819ad6764736f6c63430008040033",
  "linkReferences": {},
  "deployedLinkReferences": {}
}