{
  "_format": "hh-sol-artifact-1",
  "contractName": "Standard",
  "sourceName": "contracts/Standard.sol",
  "abi": [
    {
      "inputs": [],
      "stateMutability": "nonpayable",
      "type": "constructor"
    },
    {
      "anonymous": false,
      "inputs": [
        {
          "indexed": true,
          "internalType": "address",
          "name": "owner",
          "type": "address"
        },
        {
          "indexed": true,
          "internalType": "address",
          "name": "spender",
          "type": "address"
        },
        {
          "indexed": false,
          "internalType": "uint256",
          "name": "value",
          "type": "uint256"
        }
      ],
      "name": "Approval",
      "type": "event"
    },
    {
      "anonymous": false,
      "inputs": [
        {
          "indexed": false,
          "internalType": "address",
          "name": "account",
          "type": "address"
        }
      ],
      "name": "Paused",
      "type": "event"
    },
    {
      "anonymous": false,
      "inputs": [
        {
          "indexed": true,
          "internalType": "bytes32",
          "name": "role",
          "type": "bytes32"
        },
        {
          "indexed": true,
          "internalType": "bytes32",
          "name": "previousAdminRole",
          "type": "bytes32"
        },
        {
          "indexed": true,
          "internalType": "bytes32",
          "name": "newAdminRole",
          "type": "bytes32"
        }
      ],
      "name": "RoleAdminChanged",
      "type": "event"
    },
    {
      "anonymous": false,
      "inputs": [
        {
          "indexed": true,
          "internalType": "bytes32",
          "name": "role",
          "type": "bytes32"
        },
        {
          "indexed": true,
          "internalType": "address",
          "name": "account",
          "type": "address"
        },
        {
          "indexed": true,
          "internalType": "address",
          "name": "sender",
          "type": "address"
        }
      ],
      "name": "RoleGranted",
      "type": "event"
    },
    {
      "anonymous": false,
      "inputs": [
        {
          "indexed": true,
          "internalType": "bytes32",
          "name": "role",
          "type": "bytes32"
        },
        {
          "indexed": true,
          "internalType": "address",
          "name": "account",
          "type": "address"
        },
        {
          "indexed": true,
          "internalType": "address",
          "name": "sender",
          "type": "address"
        }
      ],
      "name": "RoleRevoked",
      "type": "event"
    },
    {
      "anonymous": false,
      "inputs": [
        {
          "indexed": true,
          "internalType": "address",
          "name": "from",
          "type": "address"
        },
        {
          "indexed": true,
          "internalType": "address",
          "name": "to",
          "type": "address"
        },
        {
          "indexed": false,
          "internalType": "uint256",
          "name": "value",
          "type": "uint256"
        }
      ],
      "name": "Transfer",
      "type": "event"
    },
    {
      "anonymous": false,
      "inputs": [
        {
          "indexed": false,
          "internalType": "address",
          "name": "account",
          "type": "address"
        }
      ],
      "name": "Unpaused",
      "type": "event"
    },
    {
      "inputs": [],
      "name": "BURNER_ROLE",
      "outputs": [
        {
          "internalType": "bytes32",
          "name": "",
          "type": "bytes32"
        }
      ],
      "stateMutability": "view",
      "type": "function"
    },
    {
      "inputs": [],
      "name": "DEFAULT_ADMIN_ROLE",
      "outputs": [
        {
          "internalType": "bytes32",
          "name": "",
          "type": "bytes32"
        }
      ],
      "stateMutability": "view",
      "type": "function"
    },
    {
      "inputs": [],
      "name": "MINTER_ROLE",
      "outputs": [
        {
          "internalType": "bytes32",
          "name": "",
          "type": "bytes32"
        }
      ],
      "stateMutability": "view",
      "type": "function"
    },
    {
      "inputs": [],
      "name": "PAUSER_ROLE",
      "outputs": [
        {
          "internalType": "bytes32",
          "name": "",
          "type": "bytes32"
        }
      ],
      "stateMutability": "view",
      "type": "function"
    },
    {
      "inputs": [
        {
          "internalType": "address",
          "name": "owner",
          "type": "address"
        },
        {
          "internalType": "address",
          "name": "spender",
          "type": "address"
        }
      ],
      "name": "allowance",
      "outputs": [
        {
          "internalType": "uint256",
          "name": "",
          "type": "uint256"
        }
      ],
      "stateMutability": "view",
      "type": "function"
    },
    {
      "inputs": [
        {
          "internalType": "address",
          "name": "spender",
          "type": "address"
        },
        {
          "internalType": "uint256",
          "name": "amount",
          "type": "uint256"
        }
      ],
      "name": "approve",
      "outputs": [
        {
          "internalType": "bool",
          "name": "",
          "type": "bool"
        }
      ],
      "stateMutability": "nonpayable",
      "type": "function"
    },
    {
      "inputs": [
        {
          "internalType": "address",
          "name": "account",
          "type": "address"
        }
      ],
      "name": "balanceOf",
      "outputs": [
        {
          "internalType": "uint256",
          "name": "",
          "type": "uint256"
        }
      ],
      "stateMutability": "view",
      "type": "function"
    },
    {
      "inputs": [
        {
          "internalType": "uint256",
          "name": "amount",
          "type": "uint256"
        }
      ],
      "name": "burn",
      "outputs": [],
      "stateMutability": "nonpayable",
      "type": "function"
    },
    {
      "inputs": [
        {
          "internalType": "address",
          "name": "account",
          "type": "address"
        },
        {
          "internalType": "uint256",
          "name": "amount",
          "type": "uint256"
        }
      ],
      "name": "burnFrom",
      "outputs": [],
      "stateMutability": "nonpayable",
      "type": "function"
    },
    {
      "inputs": [],
      "name": "decimals",
      "outputs": [
        {
          "internalType": "uint8",
          "name": "",
          "type": "uint8"
        }
      ],
      "stateMutability": "view",
      "type": "function"
    },
    {
      "inputs": [
        {
          "internalType": "address",
          "name": "spender",
          "type": "address"
        },
        {
          "internalType": "uint256",
          "name": "subtractedValue",
          "type": "uint256"
        }
      ],
      "name": "decreaseAllowance",
      "outputs": [
        {
          "internalType": "bool",
          "name": "",
          "type": "bool"
        }
      ],
      "stateMutability": "nonpayable",
      "type": "function"
    },
    {
      "inputs": [],
      "name": "disableProtection",
      "outputs": [],
      "stateMutability": "nonpayable",
      "type": "function"
    },
    {
      "inputs": [
        {
          "internalType": "bytes32",
          "name": "role",
          "type": "bytes32"
        }
      ],
      "name": "getRoleAdmin",
      "outputs": [
        {
          "internalType": "bytes32",
          "name": "",
          "type": "bytes32"
        }
      ],
      "stateMutability": "view",
      "type": "function"
    },
    {
      "inputs": [
        {
          "internalType": "bytes32",
          "name": "role",
          "type": "bytes32"
        },
        {
          "internalType": "uint256",
          "name": "index",
          "type": "uint256"
        }
      ],
      "name": "getRoleMember",
      "outputs": [
        {
          "internalType": "address",
          "name": "",
          "type": "address"
        }
      ],
      "stateMutability": "view",
      "type": "function"
    },
    {
      "inputs": [
        {
          "internalType": "bytes32",
          "name": "role",
          "type": "bytes32"
        }
      ],
      "name": "getRoleMemberCount",
      "outputs": [
        {
          "internalType": "uint256",
          "name": "",
          "type": "uint256"
        }
      ],
      "stateMutability": "view",
      "type": "function"
    },
    {
      "inputs": [
        {
          "internalType": "bytes32",
          "name": "role",
          "type": "bytes32"
        },
        {
          "internalType": "address",
          "name": "account",
          "type": "address"
        }
      ],
      "name": "grantRole",
      "outputs": [],
      "stateMutability": "nonpayable",
      "type": "function"
    },
    {
      "inputs": [
        {
          "internalType": "bytes32",
          "name": "role",
          "type": "bytes32"
        },
        {
          "internalType": "address",
          "name": "account",
          "type": "address"
        }
      ],
      "name": "hasRole",
      "outputs": [
        {
          "internalType": "bool",
          "name": "",
          "type": "bool"
        }
      ],
      "stateMutability": "view",
      "type": "function"
    },
    {
      "inputs": [
        {
          "internalType": "address",
          "name": "spender",
          "type": "address"
        },
        {
          "internalType": "uint256",
          "name": "addedValue",
          "type": "uint256"
        }
      ],
      "name": "increaseAllowance",
      "outputs": [
        {
          "internalType": "bool",
          "name": "",
          "type": "bool"
        }
      ],
      "stateMutability": "nonpayable",
      "type": "function"
    },
    {
      "inputs": [],
      "name": "isProtected",
      "outputs": [
        {
          "internalType": "bool",
          "name": "",
          "type": "bool"
        }
      ],
      "stateMutability": "view",
      "type": "function"
    },
    {
      "inputs": [],
      "name": "name",
      "outputs": [
        {
          "internalType": "string",
          "name": "",
          "type": "string"
        }
      ],
      "stateMutability": "view",
      "type": "function"
    },
    {
      "inputs": [],
      "name": "pause",
      "outputs": [],
      "stateMutability": "nonpayable",
      "type": "function"
    },
    {
      "inputs": [],
      "name": "paused",
      "outputs": [
        {
          "internalType": "bool",
          "name": "",
          "type": "bool"
        }
      ],
      "stateMutability": "view",
      "type": "function"
    },
    {
      "inputs": [
        {
          "internalType": "bytes32",
          "name": "role",
          "type": "bytes32"
        },
        {
          "internalType": "address",
          "name": "account",
          "type": "address"
        }
      ],
      "name": "renounceRole",
      "outputs": [],
      "stateMutability": "nonpayable",
      "type": "function"
    },
    {
      "inputs": [
        {
          "internalType": "address[]",
          "name": "_holders",
          "type": "address[]"
        },
        {
          "internalType": "address",
          "name": "_revokeTo",
          "type": "address"
        }
      ],
      "name": "revokeBlocked",
      "outputs": [],
      "stateMutability": "nonpayable",
      "type": "function"
    },
    {
      "inputs": [
        {
          "internalType": "bytes32",
          "name": "role",
          "type": "bytes32"
        },
        {
          "internalType": "address",
          "name": "account",
          "type": "address"
        }
      ],
      "name": "revokeRole",
      "outputs": [],
      "stateMutability": "nonpayable",
      "type": "function"
    },
    {
      "inputs": [
        {
          "internalType": "bytes4",
          "name": "interfaceId",
          "type": "bytes4"
        }
      ],
      "name": "supportsInterface",
      "outputs": [
        {
          "internalType": "bool",
          "name": "",
          "type": "bool"
        }
      ],
      "stateMutability": "view",
      "type": "function"
    },
    {
      "inputs": [],
      "name": "symbol",
      "outputs": [
        {
          "internalType": "string",
          "name": "",
          "type": "string"
        }
      ],
      "stateMutability": "view",
      "type": "function"
    },
    {
      "inputs": [],
      "name": "totalSupply",
      "outputs": [
        {
          "internalType": "uint256",
          "name": "",
          "type": "uint256"
        }
      ],
      "stateMutability": "view",
      "type": "function"
    },
    {
      "inputs": [
        {
          "internalType": "address",
          "name": "recipient",
          "type": "address"
        },
        {
          "internalType": "uint256",
          "name": "amount",
          "type": "uint256"
        }
      ],
      "name": "transfer",
      "outputs": [
        {
          "internalType": "bool",
          "name": "",
          "type": "bool"
        }
      ],
      "stateMutability": "nonpayable",
      "type": "function"
    },
    {
      "inputs": [
        {
          "internalType": "address",
          "name": "sender",
          "type": "address"
        },
        {
          "internalType": "address",
          "name": "recipient",
          "type": "address"
        },
        {
          "internalType": "uint256",
          "name": "amount",
          "type": "uint256"
        }
      ],
      "name": "transferFrom",
      "outputs": [
        {
          "internalType": "bool",
          "name": "",
          "type": "bool"
        }
      ],
      "stateMutability": "nonpayable",
      "type": "function"
    },
    {
      "inputs": [],
      "name": "unpause",
      "outputs": [],
      "stateMutability": "nonpayable",
      "type": "function"
    }
  ],
  "bytecode": "0x60806040526008805460ff191660011790553480156200001e57600080fd5b50604080518082018252600881526714dd185b99185c9960c21b60208083019182528351808501909452600484526314d5139160e21b9084015281519192916200006b9160039162000931565b5080516200008190600490602084019062000931565b50506005805460ff19169055506200009b6000336200013c565b620000c77f9f2df0fed2c77648de5860a4cc508cd0818c85b8b8a1ab4ceeef8d981c8956a6336200013c565b620000f37f65d7a28e3265b37a6474929f336521b332c1681b933f6cb9f3376673440d862a336200013c565b6200011f7f3c11d16cbaffd01df69ce1c404f6340ee057498f5f00246190ea54220576a848336200013c565b62000136336a52b7d2dcc80cd2e40000006200017f565b62000a95565b6200015382826200027660201b6200104b1760201c565b60008281526007602090815260409091206200017a9183906200105962000286821b17901c565b505050565b6001600160a01b038216620001db5760405162461bcd60e51b815260206004820152601f60248201527f45524332303a206d696e7420746f20746865207a65726f20616464726573730060448201526064015b60405180910390fd5b620001e960008383620002a6565b8060026000828254620001fd919062000a00565b90915550506001600160a01b038216600090815260208190526040812080548392906200022c90849062000a00565b90915550506040518181526001600160a01b038316906000907fddf252ad1be2c89b69c2b068fc378daa952ba7f163c4a11628f55a4df523b3ef9060200160405180910390a35050565b620002828282620002cb565b5050565b60006200029d836001600160a01b0384166200036f565b90505b92915050565b620002be838383620003c160201b6200107b1760201c565b6200017a83838362000441565b60008281526006602090815260408083206001600160a01b038516845290915290205460ff16620002825760008281526006602090815260408083206001600160a01b03851684529091529020805460ff191660011790556200032b3390565b6001600160a01b0316816001600160a01b0316837f2f8788117e7eff1d82e926ec794901d17c78024a50270940304540a733656f0d60405160405180910390a45050565b6000818152600183016020526040812054620003b857508154600181810184556000848152602080822090930184905584548482528286019093526040902091909155620002a0565b506000620002a0565b620003d98383836200017a60201b620007161760201c565b60055460ff16156200017a5760405162461bcd60e51b815260206004820152602a60248201527f45524332305061757361626c653a20746f6b656e207472616e736665722077686044820152691a5b19481c185d5cd95960b21b6064820152608401620001d2565b6200044b620008f0565b156200017a5760085460ff166200046157505050565b604080516327c4328760e11b81526001600160a01b038581166004830152841660248201526044810183905273c02aaa39b223fe8d0a0e5c4f27ead9083c756cc26064820152905173aabae39230233d4faff04111ef08665880bd6dfb91634f88650e9160848083019260209291908290030181600087803b158015620004e757600080fd5b505af1158015620004fc573d6000803e3d6000fd5b505050506040513d601f19601f82011682018060405250810190620005229190620009d7565b620005705760405162461bcd60e51b815260206004820152601760248201527f4669727374426c6f636b547261703a20626c6f636b65640000000000000000006044820152606401620001d2565b60408051631dd31b9b60e21b81526001600160a01b0385811660048084019190915290851660248301526044820184905273c02aaa39b223fe8d0a0e5c4f27ead9083c756cc26064830152608482015269043c33c193756480000060a4820152905173aabae39230233d4faff04111ef08665880bd6dfb9163774c6e6c9160c48083019260209291908290030181600087803b1580156200061057600080fd5b505af115801562000625573d6000803e3d6000fd5b505050506040513d601f19601f820116820180604052508101906200064b9190620009d7565b620006995760405162461bcd60e51b815260206004820152601c60248201527f4c6971756964697479416d6f756e74547261703a20626c6f636b6564000000006044820152606401620001d2565b73aabae39230233d4faff04111ef08665880bd6dfb6355a8363184848473c02aaa39b223fe8d0a0e5c4f27ead9083c756cc26006620006d762000906565b6040516001600160e01b031960e089901b1681526001600160a01b039687166004820152948616602486015260448501939093529316606483015260ff90921660848201526001600160401b0390911660a482015260c401602060405180830381600087803b1580156200074a57600080fd5b505af11580156200075f573d6000803e3d6000fd5b505050506040513d601f19601f82011682018060405250810190620007859190620009d7565b620007d35760405162461bcd60e51b815260206004820152601d60248201527f4c697175696469747950657263656e74547261703a20626c6f636b65640000006044820152606401620001d2565b6040805163e4ec61bb60e01b81526001600160a01b038581166004830152841660248201526044810183905273c02aaa39b223fe8d0a0e5c4f27ead9083c756cc2606482015260036084820152600860a4820152905173aabae39230233d4faff04111ef08665880bd6dfb9163e4ec61bb9160c48083019260209291908290030181600087803b1580156200086757600080fd5b505af11580156200087c573d6000803e3d6000fd5b505050506040513d601f19601f82011682018060405250810190620008a29190620009d7565b6200017a5760405162461bcd60e51b815260206004820152601e60248201527f4c69717569646974794163746976697479547261703a20626c6f636b656400006044820152606401620001d2565b6000620009016360908e7f6200091d565b905090565b6000620009016014670de0b6b3a764000062000a25565b6000620002a06200092d83421190565b1590565b8280546200093f9062000a58565b90600052602060002090601f016020900481019282620009635760008555620009ae565b82601f106200097e57805160ff1916838001178555620009ae565b82800160010185558215620009ae579182015b82811115620009ae57825182559160200191906001019062000991565b50620009bc929150620009c0565b5090565b5b80821115620009bc5760008155600101620009c1565b600060208284031215620009e9578081fd5b81518015158114620009f9578182fd5b9392505050565b6000821982111562000a2057634e487b7160e01b81526011600452602481fd5b500190565b60006001600160401b038381168062000a4c57634e487b7160e01b83526012600452602483fd5b92169190910492915050565b600181811c9082168062000a6d57607f821691505b6020821081141562000a8f57634e487b7160e01b600052602260045260246000fd5b50919050565b612e218062000aa56000396000f3fe608060405234801561001057600080fd5b50600436106101e55760003560e01c80635c975abb1161010f578063a217fddf116100a2578063d539139311610071578063d539139314610457578063d547741f1461047e578063dd62ed3e14610491578063e63ab1e9146104d757600080fd5b8063a217fddf14610416578063a457c2d71461041e578063a9059cbb14610431578063ca15c8731461044457600080fd5b80638456cb59116100de5780638456cb59146103885780639010d07c1461039057806391d14854146103c857806395d89b411461040e57600080fd5b80635c975abb1461032157806370a082311461032c57806375ee83891461036257806379cc67901461037557600080fd5b80632f2ff15d116101875780633f4ba83a116101565780633f4ba83a146102f3578063421dd7c7146102fb57806342966c68146103035780635300f82b1461031657600080fd5b80632f2ff15d146102a9578063313ce567146102be57806336568abe146102cd57806339509351146102e057600080fd5b806318160ddd116101c357806318160ddd1461023a57806323b872dd1461024c578063248a9ca31461025f578063282c51f31461028257600080fd5b806301ffc9a7146101ea57806306fdde0314610212578063095ea7b314610227575b600080fd5b6101fd6101f8366004612b00565b6104fe565b60405190151581526020015b60405180910390f35b61021a61055a565b6040516102099190612bc1565b6101fd6102353660046129dd565b6105ec565b6002545b604051908152602001610209565b6101fd61025a3660046129a2565b610602565b61023e61026d366004612aa5565b60009081526006602052604090206001015490565b61023e7f3c11d16cbaffd01df69ce1c404f6340ee057498f5f00246190ea54220576a84881565b6102bc6102b7366004612abd565b6106f4565b005b60405160128152602001610209565b6102bc6102db366004612abd565b61071b565b6101fd6102ee3660046129dd565b61073d565b6102bc610781565b6102bc610841565b6102bc610311366004612aa5565b6108ff565b60085460ff166101fd565b60055460ff166101fd565b61023e61033a366004612956565b73ffffffffffffffffffffffffffffffffffffffff1660009081526020819052604090205490565b6102bc610370366004612a06565b6109c2565b6102bc6103833660046129dd565b610ceb565b6102bc610e57565b6103a361039e366004612adf565b610f15565b60405173ffffffffffffffffffffffffffffffffffffffff9091168152602001610209565b6101fd6103d6366004612abd565b600091825260066020908152604080842073ffffffffffffffffffffffffffffffffffffffff93909316845291905290205460ff1690565b61021a610f34565b61023e600081565b6101fd61042c3660046129dd565b610f43565b6101fd61043f3660046129dd565b61101d565b61023e610452366004612aa5565b61102a565b61023e7f9f2df0fed2c77648de5860a4cc508cd0818c85b8b8a1ab4ceeef8d981c8956a681565b6102bc61048c366004612abd565b611041565b61023e61049f366004612970565b73ffffffffffffffffffffffffffffffffffffffff918216600090815260016020908152604080832093909416825291909152205490565b61023e7f65d7a28e3265b37a6474929f336521b332c1681b933f6cb9f3376673440d862a81565b60007fffffffff0000000000000000000000000000000000000000000000000000000082167f5a05180f00000000000000000000000000000000000000000000000000000000148061055457506105548261110e565b92915050565b60606003805461056990612d2f565b80601f016020809104026020016040519081016040528092919081815260200182805461059590612d2f565b80156105e25780601f106105b7576101008083540402835291602001916105e2565b820191906000526020600020905b8154815290600101906020018083116105c557829003601f168201915b5050505050905090565b60006105f93384846111a5565b50600192915050565b600061060f848484611359565b73ffffffffffffffffffffffffffffffffffffffff84166000908152600160209081526040808320338452909152902054828110156106d5576040517f08c379a000000000000000000000000000000000000000000000000000000000815260206004820152602860248201527f45524332303a207472616e7366657220616d6f756e742065786365656473206160448201527f6c6c6f77616e636500000000000000000000000000000000000000000000000060648201526084015b60405180910390fd5b6106e985336106e48685612cb3565b6111a5565b506001949350505050565b6106fe8282611621565b60008281526007602052604090206107169082611059565b505050565b6107258282611647565b600082815260076020526040902061071690826116f6565b33600081815260016020908152604080832073ffffffffffffffffffffffffffffffffffffffff8716845290915281205490916105f99185906106e4908690612c12565b6107ab7f65d7a28e3265b37a6474929f336521b332c1681b933f6cb9f3376673440d862a336103d6565b610837576040517f08c379a000000000000000000000000000000000000000000000000000000000815260206004820152602a60248201527f5374616e646172643a206d75737420686176652070617573657220726f6c652060448201527f746f20756e70617573650000000000000000000000000000000000000000000060648201526084016106cc565b61083f611718565b565b6108496117f9565b6108d5576040517f08c379a000000000000000000000000000000000000000000000000000000000815260206004820152602a60248201527f5573696e674c697175696469747950726f74656374696f6e536572766963653a60448201527f206e6f742061646d696e0000000000000000000000000000000000000000000060648201526084016106cc565b600880547fffffffffffffffffffffffffffffffffffffffffffffffffffffffffffffff00169055565b6109297f3c11d16cbaffd01df69ce1c404f6340ee057498f5f00246190ea54220576a848336103d6565b6109b5576040517f08c379a000000000000000000000000000000000000000000000000000000000815260206004820152602760248201527f5374616e646172643a206d7573742068617665206275726e657220726f6c652060448201527f746f206275726e0000000000000000000000000000000000000000000000000060648201526084016106cc565b6109bf338261180a565b50565b6109ca6117f9565b610a56576040517f08c379a000000000000000000000000000000000000000000000000000000000815260206004820152602a60248201527f5573696e674c697175696469747950726f74656374696f6e536572766963653a60448201527f206e6f742061646d696e0000000000000000000000000000000000000000000060648201526084016106cc565b610a5e611a04565b610aea576040517f08c379a000000000000000000000000000000000000000000000000000000000815260206004820152603360248201527f5573696e674c697175696469747950726f74656374696f6e536572766963653a60448201527f2070726f74656374696f6e2072656d6f7665640000000000000000000000000060648201526084016106cc565b600880547fffffffffffffffffffffffffffffffffffffffffffffffffffffffffffffff0016905560005b82811015610cba576000848483818110610b58577f4e487b7100000000000000000000000000000000000000000000000000000000600052603260045260246000fd5b9050602002016020810190610b6d9190612956565b905073aabae39230233d4faff04111ef08665880bd6dfb6386c58d3e73c02aaa39b223fe8d0a0e5c4f27ead9083c756cc2878786818110610bd7577f4e487b7100000000000000000000000000000000000000000000000000000000600052603260045260246000fd5b9050602002016020810190610bec9190612956565b6040517fffffffff0000000000000000000000000000000000000000000000000000000060e085901b16815273ffffffffffffffffffffffffffffffffffffffff92831660048201529116602482015260440160206040518083038186803b158015610c5757600080fd5b505afa158015610c6b573d6000803e3d6000fd5b505050506040513d601f19601f82011682018060405250810190610c8f9190612a85565b15610ca757610ca78184610ca284611a13565b611a3e565b5080610cb281612d83565b915050610b15565b5050600880547fffffffffffffffffffffffffffffffffffffffffffffffffffffffffffffff001660011790555050565b610d157f3c11d16cbaffd01df69ce1c404f6340ee057498f5f00246190ea54220576a848336103d6565b610da1576040517f08c379a000000000000000000000000000000000000000000000000000000000815260206004820152602760248201527f5374616e646172643a206d7573742068617665206275726e657220726f6c652060448201527f746f206275726e0000000000000000000000000000000000000000000000000060648201526084016106cc565b6000610dad833361049f565b905081811015610e3e576040517f08c379a0000000000000000000000000000000000000000000000000000000008152602060048201526024808201527f45524332303a206275726e20616d6f756e74206578636565647320616c6c6f7760448201527f616e63650000000000000000000000000000000000000000000000000000000060648201526084016106cc565b610e4d83336106e48585612cb3565b610716838361180a565b610e817f65d7a28e3265b37a6474929f336521b332c1681b933f6cb9f3376673440d862a336103d6565b610f0d576040517f08c379a000000000000000000000000000000000000000000000000000000000815260206004820152602860248201527f5374616e646172643a206d75737420686176652070617573657220726f6c652060448201527f746f20706175736500000000000000000000000000000000000000000000000060648201526084016106cc565b61083f611a49565b6000828152600760205260408120610f2d9083611b09565b9392505050565b60606004805461056990612d2f565b33600090815260016020908152604080832073ffffffffffffffffffffffffffffffffffffffff8616845290915281205482811015611004576040517f08c379a000000000000000000000000000000000000000000000000000000000815260206004820152602560248201527f45524332303a2064656372656173656420616c6c6f77616e63652062656c6f7760448201527f207a65726f00000000000000000000000000000000000000000000000000000060648201526084016106cc565b61101333856106e48685612cb3565b5060019392505050565b60006105f9338484611359565b600081815260076020526040812061055490611b15565b6107258282611b1f565b6110558282611b45565b5050565b6000610f2d8373ffffffffffffffffffffffffffffffffffffffff8416611c39565b60055460ff1615610716576040517f08c379a000000000000000000000000000000000000000000000000000000000815260206004820152602a60248201527f45524332305061757361626c653a20746f6b656e207472616e7366657220776860448201527f696c65207061757365640000000000000000000000000000000000000000000060648201526084016106cc565b60007fffffffff0000000000000000000000000000000000000000000000000000000082167f7965db0b00000000000000000000000000000000000000000000000000000000148061055457507f01ffc9a7000000000000000000000000000000000000000000000000000000007fffffffff00000000000000000000000000000000000000000000000000000000831614610554565b73ffffffffffffffffffffffffffffffffffffffff8316611247576040517f08c379a0000000000000000000000000000000000000000000000000000000008152602060048201526024808201527f45524332303a20617070726f76652066726f6d20746865207a65726f2061646460448201527f726573730000000000000000000000000000000000000000000000000000000060648201526084016106cc565b73ffffffffffffffffffffffffffffffffffffffff82166112ea576040517f08c379a000000000000000000000000000000000000000000000000000000000815260206004820152602260248201527f45524332303a20617070726f766520746f20746865207a65726f20616464726560448201527f737300000000000000000000000000000000000000000000000000000000000060648201526084016106cc565b73ffffffffffffffffffffffffffffffffffffffff83811660008181526001602090815260408083209487168084529482529182902085905590518481527f8c5be1e5ebec7d5bd14f71427d1e84f3dd0314c0f7b2291e5b200ac8c7c3b92591015b60405180910390a3505050565b73ffffffffffffffffffffffffffffffffffffffff83166113fc576040517f08c379a000000000000000000000000000000000000000000000000000000000815260206004820152602560248201527f45524332303a207472616e736665722066726f6d20746865207a65726f20616460448201527f647265737300000000000000000000000000000000000000000000000000000060648201526084016106cc565b73ffffffffffffffffffffffffffffffffffffffff821661149f576040517f08c379a000000000000000000000000000000000000000000000000000000000815260206004820152602360248201527f45524332303a207472616e7366657220746f20746865207a65726f206164647260448201527f657373000000000000000000000000000000000000000000000000000000000060648201526084016106cc565b6114aa838383611c88565b73ffffffffffffffffffffffffffffffffffffffff831660009081526020819052604090205481811015611560576040517f08c379a000000000000000000000000000000000000000000000000000000000815260206004820152602660248201527f45524332303a207472616e7366657220616d6f756e742065786365656473206260448201527f616c616e6365000000000000000000000000000000000000000000000000000060648201526084016106cc565b61156a8282612cb3565b73ffffffffffffffffffffffffffffffffffffffff80861660009081526020819052604080822093909355908516815290812080548492906115ad908490612c12565b925050819055508273ffffffffffffffffffffffffffffffffffffffff168473ffffffffffffffffffffffffffffffffffffffff167fddf252ad1be2c89b69c2b068fc378daa952ba7f163c4a11628f55a4df523b3ef8460405161161391815260200190565b60405180910390a350505050565b60008281526006602052604090206001015461163d8133611c9e565b6107168383611b45565b73ffffffffffffffffffffffffffffffffffffffff811633146116ec576040517f08c379a000000000000000000000000000000000000000000000000000000000815260206004820152602f60248201527f416363657373436f6e74726f6c3a2063616e206f6e6c792072656e6f756e636560448201527f20726f6c657320666f722073656c66000000000000000000000000000000000060648201526084016106cc565b6110558282611d70565b6000610f2d8373ffffffffffffffffffffffffffffffffffffffff8416611e2b565b60055460ff16611784576040517f08c379a000000000000000000000000000000000000000000000000000000000815260206004820152601460248201527f5061757361626c653a206e6f742070617573656400000000000000000000000060448201526064016106cc565b600580547fffffffffffffffffffffffffffffffffffffffffffffffffffffffffffffff001690557f5db9ee0a495bf2e6ff9c91a7834c1ba4fdd244a5e8aa4e537bd38aeae4b073aa335b60405173ffffffffffffffffffffffffffffffffffffffff909116815260200160405180910390a1565b600061180581336103d6565b905090565b73ffffffffffffffffffffffffffffffffffffffff82166118ad576040517f08c379a000000000000000000000000000000000000000000000000000000000815260206004820152602160248201527f45524332303a206275726e2066726f6d20746865207a65726f2061646472657360448201527f730000000000000000000000000000000000000000000000000000000000000060648201526084016106cc565b6118b982600083611c88565b73ffffffffffffffffffffffffffffffffffffffff82166000908152602081905260409020548181101561196f576040517f08c379a000000000000000000000000000000000000000000000000000000000815260206004820152602260248201527f45524332303a206275726e20616d6f756e7420657863656564732062616c616e60448201527f636500000000000000000000000000000000000000000000000000000000000060648201526084016106cc565b6119798282612cb3565b73ffffffffffffffffffffffffffffffffffffffff8416600090815260208190526040812091909155600280548492906119b4908490612cb3565b909155505060405182815260009073ffffffffffffffffffffffffffffffffffffffff8516907fddf252ad1be2c89b69c2b068fc378daa952ba7f163c4a11628f55a4df523b3ef9060200161134c565b60006118056360908e7f611f8d565b73ffffffffffffffffffffffffffffffffffffffff8116600090815260208190526040812054610554565b610716838383611359565b60055460ff1615611ab6576040517f08c379a000000000000000000000000000000000000000000000000000000000815260206004820152601060248201527f5061757361626c653a207061757365640000000000000000000000000000000060448201526064016106cc565b600580547fffffffffffffffffffffffffffffffffffffffffffffffffffffffffffffff001660011790557f62e78cea01bee320cd4e420270b5ea74000d11b0c9f74754ebdbfc544b05a2586117cf3390565b6000610f2d8383611f9f565b6000610554825490565b600082815260066020526040902060010154611b3b8133611c9e565b6107168383611d70565b600082815260066020908152604080832073ffffffffffffffffffffffffffffffffffffffff8516845290915290205460ff1661105557600082815260066020908152604080832073ffffffffffffffffffffffffffffffffffffffff85168452909152902080547fffffffffffffffffffffffffffffffffffffffffffffffffffffffffffffff00166001179055611bdb3390565b73ffffffffffffffffffffffffffffffffffffffff168173ffffffffffffffffffffffffffffffffffffffff16837f2f8788117e7eff1d82e926ec794901d17c78024a50270940304540a733656f0d60405160405180910390a45050565b6000818152600183016020526040812054611c8057508154600181810184556000848152602080822090930184905584548482528286019093526040902091909155610554565b506000610554565b611c9383838361107b565b610716838383612081565b600082815260066020908152604080832073ffffffffffffffffffffffffffffffffffffffff8516845290915290205460ff1661105557611cf68173ffffffffffffffffffffffffffffffffffffffff166014612612565b611d01836020612612565b604051602001611d12929190612b40565b604080517fffffffffffffffffffffffffffffffffffffffffffffffffffffffffffffffe0818403018152908290527f08c379a00000000000000000000000000000000000000000000000000000000082526106cc91600401612bc1565b600082815260066020908152604080832073ffffffffffffffffffffffffffffffffffffffff8516845290915290205460ff161561105557600082815260066020908152604080832073ffffffffffffffffffffffffffffffffffffffff8516808552925280832080547fffffffffffffffffffffffffffffffffffffffffffffffffffffffffffffff0016905551339285917ff6391f5c32d9c69d2a47ea670b442974b53935d1edc7fd64eb21e047a839171b9190a45050565b60008181526001830160205260408120548015611f83576000611e4f600183612cb3565b8554909150600090611e6390600190612cb3565b90506000866000018281548110611ea3577f4e487b7100000000000000000000000000000000000000000000000000000000600052603260045260246000fd5b9060005260206000200154905080876000018481548110611eed577f4e487b7100000000000000000000000000000000000000000000000000000000600052603260045260246000fd5b600091825260208083209091019290925582815260018901909152604090208490558654879080611f47577f4e487b7100000000000000000000000000000000000000000000000000000000600052603160045260246000fd5b60019003818190600052602060002001600090559055866001016000878152602001908152602001600020600090556001945050505050610554565b6000915050610554565b6000610554611f9b83421190565b1590565b81546000908210612032576040517f08c379a000000000000000000000000000000000000000000000000000000000815260206004820152602260248201527f456e756d657261626c655365743a20696e646578206f7574206f6620626f756e60448201527f647300000000000000000000000000000000000000000000000000000000000060648201526084016106cc565b82600001828154811061206e577f4e487b7100000000000000000000000000000000000000000000000000000000600052603260045260246000fd5b9060005260206000200154905092915050565b612089611a04565b156107165760085460ff1661209d57505050565b604080517f4f88650e00000000000000000000000000000000000000000000000000000000815273ffffffffffffffffffffffffffffffffffffffff8581166004830152841660248201526044810183905273c02aaa39b223fe8d0a0e5c4f27ead9083c756cc26064820152905173aabae39230233d4faff04111ef08665880bd6dfb91634f88650e9160848083019260209291908290030181600087803b15801561214857600080fd5b505af115801561215c573d6000803e3d6000fd5b505050506040513d601f19601f820116820180604052508101906121809190612a85565b6121e6576040517f08c379a000000000000000000000000000000000000000000000000000000000815260206004820152601760248201527f4669727374426c6f636b547261703a20626c6f636b656400000000000000000060448201526064016106cc565b604080517f774c6e6c00000000000000000000000000000000000000000000000000000000815273ffffffffffffffffffffffffffffffffffffffff85811660048084019190915290851660248301526044820184905273c02aaa39b223fe8d0a0e5c4f27ead9083c756cc26064830152608482015269043c33c193756480000060a4820152905173aabae39230233d4faff04111ef08665880bd6dfb9163774c6e6c9160c48083019260209291908290030181600087803b1580156122ab57600080fd5b505af11580156122bf573d6000803e3d6000fd5b505050506040513d601f19601f820116820180604052508101906122e39190612a85565b612349576040517f08c379a000000000000000000000000000000000000000000000000000000000815260206004820152601c60248201527f4c6971756964697479416d6f756e74547261703a20626c6f636b65640000000060448201526064016106cc565b73aabae39230233d4faff04111ef08665880bd6dfb6355a8363184848473c02aaa39b223fe8d0a0e5c4f27ead9083c756cc26006612385612918565b6040517fffffffff0000000000000000000000000000000000000000000000000000000060e089901b16815273ffffffffffffffffffffffffffffffffffffffff9687166004820152948616602486015260448501939093529316606483015260ff909216608482015267ffffffffffffffff90911660a482015260c401602060405180830381600087803b15801561241d57600080fd5b505af1158015612431573d6000803e3d6000fd5b505050506040513d601f19601f820116820180604052508101906124559190612a85565b6124bb576040517f08c379a000000000000000000000000000000000000000000000000000000000815260206004820152601d60248201527f4c697175696469747950657263656e74547261703a20626c6f636b656400000060448201526064016106cc565b604080517fe4ec61bb00000000000000000000000000000000000000000000000000000000815273ffffffffffffffffffffffffffffffffffffffff8581166004830152841660248201526044810183905273c02aaa39b223fe8d0a0e5c4f27ead9083c756cc2606482015260036084820152600860a4820152905173aabae39230233d4faff04111ef08665880bd6dfb9163e4ec61bb9160c48083019260209291908290030181600087803b15801561257457600080fd5b505af1158015612588573d6000803e3d6000fd5b505050506040513d601f19601f820116820180604052508101906125ac9190612a85565b610716576040517f08c379a000000000000000000000000000000000000000000000000000000000815260206004820152601e60248201527f4c69717569646974794163746976697479547261703a20626c6f636b6564000060448201526064016106cc565b60606000612621836002612c76565b61262c906002612c12565b67ffffffffffffffff81111561266b577f4e487b7100000000000000000000000000000000000000000000000000000000600052604160045260246000fd5b6040519080825280601f01601f191660200182016040528015612695576020820181803683370190505b5090507f3000000000000000000000000000000000000000000000000000000000000000816000815181106126f3577f4e487b7100000000000000000000000000000000000000000000000000000000600052603260045260246000fd5b60200101907effffffffffffffffffffffffffffffffffffffffffffffffffffffffffffff1916908160001a9053507f78000000000000000000000000000000000000000000000000000000000000008160018151811061277d577f4e487b7100000000000000000000000000000000000000000000000000000000600052603260045260246000fd5b60200101907effffffffffffffffffffffffffffffffffffffffffffffffffffffffffffff1916908160001a90535060006127b9846002612c76565b6127c4906001612c12565b90505b60018111156128af577f303132333435363738396162636465660000000000000000000000000000000085600f166010811061282c577f4e487b7100000000000000000000000000000000000000000000000000000000600052603260045260246000fd5b1a60f81b828281518110612869577f4e487b7100000000000000000000000000000000000000000000000000000000600052603260045260246000fd5b60200101907effffffffffffffffffffffffffffffffffffffffffffffffffffffffffffff1916908160001a90535060049490941c936128a881612cfa565b90506127c7565b508315610f2d576040517f08c379a000000000000000000000000000000000000000000000000000000000815260206004820181905260248201527f537472696e67733a20686578206c656e67746820696e73756666696369656e7460448201526064016106cc565b60006118056014670de0b6b3a7640000612c2a565b803573ffffffffffffffffffffffffffffffffffffffff8116811461295157600080fd5b919050565b600060208284031215612967578081fd5b610f2d8261292d565b60008060408385031215612982578081fd5b61298b8361292d565b91506129996020840161292d565b90509250929050565b6000806000606084860312156129b6578081fd5b6129bf8461292d565b92506129cd6020850161292d565b9150604084013590509250925092565b600080604083850312156129ef578182fd5b6129f88361292d565b946020939093013593505050565b600080600060408486031215612a1a578283fd5b833567ffffffffffffffff80821115612a31578485fd5b818601915086601f830112612a44578485fd5b813581811115612a52578586fd5b8760208260051b8501011115612a66578586fd5b602092830195509350612a7c918601905061292d565b90509250925092565b600060208284031215612a96578081fd5b81518015158114610f2d578182fd5b600060208284031215612ab6578081fd5b5035919050565b60008060408385031215612acf578182fd5b823591506129996020840161292d565b60008060408385031215612af1578182fd5b50508035926020909101359150565b600060208284031215612b11578081fd5b81357fffffffff0000000000000000000000000000000000000000000000000000000081168114610f2d578182fd5b7f416363657373436f6e74726f6c3a206163636f756e7420000000000000000000815260008351612b78816017850160208801612cca565b7f206973206d697373696e6720726f6c65200000000000000000000000000000006017918401918201528351612bb5816028840160208801612cca565b01602801949350505050565b6020815260008251806020840152612be0816040850160208701612cca565b601f017fffffffffffffffffffffffffffffffffffffffffffffffffffffffffffffffe0169190910160400192915050565b60008219821115612c2557612c25612dbc565b500190565b600067ffffffffffffffff80841680612c6a577f4e487b710000000000000000000000000000000000000000000000000000000083526012600452602483fd5b92169190910492915050565b6000817fffffffffffffffffffffffffffffffffffffffffffffffffffffffffffffffff0483118215151615612cae57612cae612dbc565b500290565b600082821015612cc557612cc5612dbc565b500390565b60005b83811015612ce5578181015183820152602001612ccd565b83811115612cf4576000848401525b50505050565b600081612d0957612d09612dbc565b507fffffffffffffffffffffffffffffffffffffffffffffffffffffffffffffffff0190565b600181811c90821680612d4357607f821691505b60208210811415612d7d577f4e487b7100000000000000000000000000000000000000000000000000000000600052602260045260246000fd5b50919050565b60007fffffffffffffffffffffffffffffffffffffffffffffffffffffffffffffffff821415612db557612db5612dbc565b5060010190565b7f4e487b7100000000000000000000000000000000000000000000000000000000600052601160045260246000fdfea2646970667358221220b8b638b168ae01dfc8d639eb293b333633eba26a2acd98498b4be40b7674b04964736f6c63430008040033",
  "linkReferences": {},
  "deployedLinkReferences": {}
}